:020000040800F2
:10000000706300205D02000869940008F56800082C
:1000100065940008FF1600089DBA00080000000063
:100020000000000000000000000000009D0100082A
:10003000311D000800000000F901000845AB000870
:1000400077020008770200087702000877020008AC
:10005000770200087702000877020008770200089C
:10006000770200087702000877020008770200088C
:10007000770200087702000877020008770200087C
:10008000770200087702000877020008770200086C
:10009000770200087702000877020008770200085C
:1000A000770200088DAE000877020008770200088A
:1000B0009DAE00087702000877020008770200086A
:1000C000770200087702000877020008770200082C
:1000D0007702000809BA00087702000877020008D2
:1000E000351D000877020008770200087702000833
:1000F00077020008770200087702000877020008FC
:10010000000000000000000000000000770200086E
:1001100077020008770200087702000877020008DB
:1001200077020008770200087702000877020008CB
:1001300077020008770200080000000000000000BD
:10014000770200087702000877020008000000002C
:10015000000000000000000000000000000000009F
:10016000000000000000000077020008770200088D
:1001700077020008000000000000000000000000FE
:100180000000000077020008DFF80CD000F0BEFC91
:100190000048004771FB0008706300202C4B196871
:1001A0000868B0E8F04F80F30988BFF36F8F4FF015
:1001B000000080F3118870470000000008480068C4
:1001C000006880F308884FF0000080F3148862B65E
:1001D00061B6BFF34F8FBFF36F8F00DF00BF00BF6B
:1001E00008ED00E0DFF80C00016841F470010160E7
:1001F000704700BF88ED00E0EFF30980BFF36F8F19
:10020000134B1A681EF0100F08BF20ED108A20E96A
:10021000F04F106009B44FF0500080F31188BFF325
:100220004F8FBFF36F8F11F089FD4FF0000080F307
:10023000118809BC19680868B0E8F04F1EF0100F6B
:1002400008BFB0EC108A80F30988BFF36F8F704746
:1002500038000020EFF30580704700000648804713
:1002600006480047FEE7FEE7FEE7FEE7FEE7FEE79B
:10027000FEE7FEE7FEE7FEE731AC00088901000873
:100280002DE9F05F0546002092469B4688460646CB
:10029000814640241BE0284641464746224600F05E
:1002A00020F853465A46C01A914110D311461846B9
:1002B000224600F078FA2D1A67EB01084F462246D5
:1002C0000120002100F06FFA17EB00094E41201EBB
:1002D000A4F10104DFDC484631462A464346BDE826
:1002E000F09F202A04DB203A21FA02F00021704717
:1002F00021FA02F3D040C2F120029140084319468E
:10030000704740EA01039B0703D009E008C9121FA8
:1003100008C0042AFAD203E011F8013B00F8013BBF
:10032000521EF9D27047D2B201E000F8012B491EEB
:10033000FBD270470022F6E710B513460A46044682
:100340001946FFF7F0FF204610BD421C10F8011BB4
:100350000029FBD1801A7047034611F8012B00F8E1
:10036000012B002AF9D11846704770B506460EF0E9
:10037000F7FA046805460A220021304600F082FAA6
:100380002C6070BD70B506460EF0EAFA04680546AA
:100390000A220021304600F0ADFA2C6070BD2DE934
:1003A000FE4F804681EA0300C00F0C46009021F00A
:1003B000004123F00045B8EB0200A94105D24046B8
:1003C000214690461C460B46024623F0004010434F
:1003D00047D0270DC7F30A00C3F30A510290401A11
:1003E000019040286BDAC3F3130040F4801B00989F
:1003F000924620B10023D2EB030A63EB0B0B01986A
:100400005946C0F14002504600F0CDF906460D466F
:1004100050465946019A00F0D5F910EB08006141A9
:10042000002487EA115284EAE7731A4340D0009A05
:1004300062B3019A012A4FEA075215DC001B61EBF7
:1004400002014FF0004202EA0752CDE90042001CCF
:1004500041F5801132462B4600F0DAFA03B0BDE8D0
:10046000F08F40462146F9E7001B61EB0201001CBA
:1004700041F5801300185B412018A2F5001747EBE7
:10048000030140EAD570B6196D4111E06D084FEADD
:10049000360645EAC0754FEA0752001B61EB0201C0
:1004A000001C41F5801149084FEA30000019514104
:1004B00032462B4603B0BDE8F04F00F09ABA0098E0
:1004C000012240000023D0EB020263EBE0730098AE
:1004D00021464FEAE074B8EB000061EB0401E9E764
:1004E00083F000435BE781F0004158E72DE9FE4FC0
:1004F00081EA030404F0004421F0004100944FF02D
:10050000000B23F0004350EA01045ED052EA0304DA
:100510005BD0C3F30A54C1F30A552C44A4F2F3345C
:100520000194A0FB0254C1F3130141F48011C3F301
:10053000130343F4801301FB024400FB034E840ABF
:10054000970A44EA815447EA8357A4FB0768029557
:100550008D0A05FB07854FEA932C04FB0C542705F5
:10056000029D4FEA065847EA1637B5EB08056EEBD1
:10057000070C870E920E47EA811742EA8312A7FB07
:100580000201B6EB0B0164EB00042B0D43EA0C33C4
:100590005E1844EB1C50DA465146E7FB0201C5F3F6
:1005A00013044FEA0B3343EA14534FEA0432019C1D
:1005B00043EA0603A4F10C040294009CCDE900B4C4
:1005C00000F026FA03B0BDE8F08F00200146F9E7FD
:1005D0002DE9F04D81EA030404F0004B21F00045C1
:1005E00014464FF0000A23F0004150EA050220D0E3
:1005F00054EA01021DD0C5F30A570246C5F313039E
:10060000C1F31300C1F30A5640F4801543F480137C
:10061000A7EB0608101BD64608F2FD3873EB050061
:1006200002D308F1010801E092185B41B8F1000F14
:1006300003DA00200146BDE8F08D00204FF4801160
:10064000064684460EE0171B73EB050705D3121B05
:1006500063EB050306434CEA010C49084FEA3000FE
:1006600092185B4150EA0107EDD152EA030012D023
:1006700082EA040083EA0501084305D0101BAB4160
:1006800006D20122002306E000224FF0004302E0E0
:100690006FF0010253101AEB06004CEB085110EBFF
:1006A0000A0041EB0B01BDE8F04D00F0A2B9F0B437
:1006B000CA17CB0F50405140C61841F100054FEA10
:1006C000C372314628004FF0960303D0B623F0BC26
:1006D00000F061B930460021F9E70EB540F2334130
:1006E00002910021CDE900110A460B4600F090F975
:1006F00003B000BD3EB5CA17CB0F00245040514097
:10070000C0186141DA0740F233430094CDE9012378
:100710002246234600F07CF903B030BD00F00042D1
:1007200030F000400AD0C10D01F56071C0F3160031
:1007300042EA0151C20840071143704700200146B8
:10074000704701F0004330B421F0004150EA01024B
:1007500006D00A0DA2F56072C1F31301002A02DC73
:1007600030BC00207047440F44EAC104C100E018C7
:1007700030BC00EBC25000F005B930B50B46014665
:1007800000202022012409E021FA02F59D4205D330
:1007900003FA02F5491B04FA02F52844151EA2F1DA
:1007A0000102F1DC30BD202A04DB203A00FA02F11C
:1007B000002070479140C2F1200320FA03F319434F
:1007C00090407047202A06DBCB17203A41FA02F00E
:1007D00043EAE07306E041FA02F3D040C2F120029E
:1007E00091400843194670470FB4002300B589B003
:1007F0000CA900910B996FF00042CB601E4B069341
:100800001E4B07930423CDE901321D4A089202468C
:100810006B46002000F02EFA09B05DF814FB70B5AD
:1008200086B006464FF0FF300091CDE9010100206F
:1008300015460C4604903246694604A8FFF7D4FFDB
:1008400002460498211825B108B1084600E0204668
:100850002860049800280DD0002A02DD0098884204
:1008600008D0081B0094CDE901043246694604A86B
:10087000FFF7BAFF06B070BDAD0E0008CB0E000842
:10088000390B00082DE9F04791460F468046044693
:10089000002614F8015B2DB100F04AF90068405DB4
:1008A000C007F6D12B2D02D02D2D18D0641E4A463C
:1008B0003946204600F01AFB27B13968A14201D120
:1008C000C7F8008071054FF002040BD540420028A4
:1008D00003DD0EF045F80460A007BDE8F08746F49C
:1008E0008066E4E70028F8DA0EF03AF804606FF06A
:1008F0000040F2E72DE9F04791460E468046044657
:10090000002514F8017B2FB100F012F90068C05DDA
:10091000C007F6D12B2F02D02D2F1ED0641E4A46C1
:100920003146204600F031FB26B13268A24201D1A7
:10093000C6F800806A054FF0020418D50023D0EBFA
:10094000030563EB01025D1B934109DB0023D0EB40
:10095000030063EB0101BDE8F08745F48065DEE745
:100960000DF0FEFF046000204FF00041F3E7021E8F
:1009700071F10002EFDA0DF0F3FF04604FF0FF3089
:100980004108E8E70029A8BF7047401C490008BF9C
:1009900020F00100704710B4B0FA80FC00FA0CF0AF
:1009A00050EA010404BF10BC704749B1CCF12004E7
:1009B00021FA04F411FA0CF118BF01212143084374
:1009C000A3EB0C01CB1D4FEA00614FEA102042BFA0
:1009D000002010BC704700EBC35010440029A4BF96
:1009E00010BC7047401C490008BF20F0010010BC3B
:1009F000704710B5141E73F1000408DA401C41F171
:100A0000000192185B411A4301D120F0010010BD92
:100A10002DE9F04D92469B4611B1B1FA81F202E008
:100A2000B0FA80F220329046FFF7BDFE04460F4632
:100A300040EA0A0041EA0B0153465A46084313D0E4
:100A4000114653EA010019D0C8F140025046FFF7A1
:100A500048FC05460E46504659464246FFF7A3FE5F
:100A6000084305D0012004E020463946BDE8F08D5A
:100A70000020054346EAE0762C4337430A98630595
:100A8000E40AA0EB08000022FD0A44EA47540A30B9
:100A900002D500200146E9E7010510196941DDE9A9
:100AA000084500196941BDE8F04DA2E7C1F30A52BB
:100AB000C1F3130140F2FF3341F480119A4202DA8C
:100AC00000200146704740F233439A42A2F233427B
:100AD00002DC5242FFF705BCFFF765BE30B5041ECD
:100AE00071F1000404DB4FF00044404264EB01016B
:100AF000141E73F1000405DB1C464FF00043524204
:100B000063EB0403994208BF904230BD064C074D89
:100B100006E0E06840F0010394E8070098471034CD
:100B2000AC42F6D3FFF734FB24B0010854B00108FF
:100B30000048704778AC010810B50446FFF7F8FF8D
:100B40000068005D00F0010010BD00002DE9FF4FBE
:100B5000087883B09946FF2805D0491C2D2804D079
:100B60000024002008E000200BE00124F9E700EB5E
:100B7000800003EB4000491C0B78FF2BF7D104B138
:100B8000404200230293147819461D462D2C01D0B3
:100B90002B2C04D1521C2D2C13D000240294AA46D5
:100BA0001478FF2C0FD00A25A3FB057801FB0581E3
:100BB0004FF0000C03FB0C11521CE3194AEB01012E
:100BC000EEE70124EAE7814453EA010002D019F577
:100BD000C87F06DA03980021C0E9001107B0BDE81C
:100BE000F08F0025AE4E2F46DFF8B882184600F091
:100BF0003BFACDE90001B9F1000002DAC9F10004C5
:100C000000E004460023A74A1AEB030B42EB045A08
:100C100012E0E00707D02A46334638464146FFF740
:100C200065FC074688462A46334610461946FFF7B4
:100C30005DFC05460E466410002CEAD1DDE900019A
:100C4000B9F1000F5A46534606DAFFF7C1FC3A469F
:100C50004346FFF7BDFC05E0FFF748FC3A46434634
:100C6000FFF744FC029A0AB181F00041039AC2E9FD
:100C70000001B3E72DE9FF4F1F468DB0D7E90146CC
:100C80004FF0FF382E2045464FF000090B90B96910
:100C90006D1C0E988847396A824688470028F6D12D
:100CA000BAF1FF3F0AD024F4D064002E11DDBAF16E
:100CB0002B0F08D0BAF12D0F0BD102E0404611B036
:100CC0008DE744F48064B9696D1C0E9888478246AC
:100CD000761E6946600501D52D2000E02B208DF899
:100CE000000001F1010B0DF1200809E0B9696D1C4C
:100CF0000E98884782460F9844F40074761E05606B
:100D0000002E02DDBAF1300FF0D00B998A453ED1AA
:100D100044F0800406E00F99681CA9F1010944F42D
:100D200000740860B9696D1C761E0E98884782466B
:100D30003028F0D02BE00B998A4505D1200603D44A
:100D400044F08004761E18E050460DF007FF08B30B
:100D50000DF11301761E44F400748B4508D2AAF1FC
:100D600030000BF8010B200607D5A9F1010003E0C4
:100D7000200602D409F101008146A00502D50F9991
:100D8000681C0860B9696D1C0E9888478246002E61
:100D9000D1DC53E0002E51DDBAF1650F02D0BAF17B
:100DA000450F4BD1A00549D5B9696D1C24F4407499
:100DB000761E0E9888478246002E0CDD2B2804D024
:100DC000BAF12D0F07D144F48074B9696D1C0E98E7
:100DD00088478246761EE00501D52D2100E02B21B3
:100DE00008F8011BCDF82C8021E00DF12901761EB9
:100DF00044F4007488450CD2AAF1300010F0FF00D2
:100E000088F8000002D10B99884509D908F101083A
:100E100006E0E00501D5244801E042F20F7081466A
:100E2000B9696D1C0E98884782460F980560002EA0
:100E300004DD50460DF092FE0028D6D1F9690E98D7
:100E40008847FF208BF8000088F8000000200690FB
:100E500007904B466A4608A906A8FFF777FEA0054B
:100E600002D46FF001002AE714F0240F0AD0E00743
:100E700014D1DDE906123868031D3B600068C0E943
:100E800000120BE0DDE90601FFF75BFC0146E0071D
:100E900004D13868021D3A600068016028460EE7F8
:100EA000000014400000F03FF1D8FFFF426842B15B
:100EB000016811F8013B23B1521EC0E90012184627
:100EC00070470121C160881E704742685AB1C368EB
:100ED000016843B983688B4205D0491E521CC0E9A2
:100EE0000012002070474FF0FF3070472DE9F05F8F
:100EF00082460078002715468B460AF10104B94660
:100F0000302801D09DB113E014F8010B0127782897
:100F100003D0582801D045B10AE00DB1102D07D1FA
:100F20000027102514F8010B02E0082500E00A252F
:100F30000026B0460EE005FB080005FB06F1012780
:100F400001EB10461FFA80F8B6F5803F00D3B94692
:100F500014F8010B294600F079F80028EBDABBF110
:100F6000000F05D00FB1641E00E05446CBF80040DE
:100F7000B9F1000F06D00DF0F3FC02210160C81E8C
:100F8000BDE8F09F48EA0640FAE72DE9F74F4FF039
:100F90000009009C1546CA4614F8010B302801D000
:100FA000ADB115E014F8010B4FF00109782803D01A
:100FB000582801D04DB10BE00DB1102D08D14FF0E4
:100FC0000009102514F8010B02E0082500E00A25AD
:100FD00000273E46B8464FEAE57B16E0A5FB07230F
:100FE0000BFB073105FB080005FB0616030CD718A1
:100FF00046F100061FFA80F8381E4FF0010976F519
:10100000803000D3CA4614F8010B294600F01EF8C0
:101010000028E3DA019838B1B9F1000F01D0641E5D
:1010200000E0009C01980460BAF1000F08D00DF0B8
:1010300097FC02210160C81E014603B0BDE8F08F95
:10104000310441EA174148EA0740F6E73A2800D25E
:10105000303820F02002412A01D3A2F13700884223
:1010600001D34FF0FF3070470EB540F23342029289
:101070000022CDE900221346FFF7CAFC03B000BDF1
:1010800070B58D1810F8014B14F0030201D110F85F
:10109000012B231106D110F8013B03E010F8016B7E
:1010A00001F8016B521EF9D1ABB110F8012B04F01D
:1010B0000C048A1A0C2C03D0A2EB84129B1C08E0AF
:1010C00010F8014BA2EB0422F8E712F8014B01F8EB
:1010D000014B5B1EF9D5A942D4D3002070BD00009E
:1010E0000146084600F02002202A00D1012000F02D
:1010F0000502052A00D0012000F00802082A01D0CC
:10110000012007E000F00D020D2A03D1002001228A
:10111000014B1A7070470000B800002070B5002520
:101120000024282002F0C4FC88480078002869D1F7
:1011300000F082FA85B2B5F5004F03DDA5F5004059
:1011400085B200E00025002D5BDD81480078401C61
:101150007F49087008460078052803D17D4805803E
:101160007D4805807A480078052816DB7B48D0ED5D
:10117000000A00EE105AB8EE400A30EE800A80ED08
:10118000000A74480088854201DD72480580724873
:101190000088854201DA704805806D4800780F2884
:1011A0002FDB6E48D0ED000A6A48008800EE100A76
:1011B000B8EE400A70EEC00A6748008800EE100AD8
:1011C000B8EE400A30EEC00AF2EE020A80EE201AB3
:1011D000BCEEC10A10EE100A6149088101205B498A
:1011E00008700846007809F096FC9FED5E0A5B489F
:1011F00080ED000A0020574908805749088054496B
:10120000087068E051480078012864D100F03EFA87
:1012100084B2B4F5004F03DDA4F5004084B200E0D1
:101220000024002C57DD50480078401C4E490870BF
:1012300008460078052803D14C4804804C480480B7
:1012400049480078052816DB4A48D0ED000A00EE30
:10125000104AB8EE400A30EE800A80ED000A43489A
:101260000088844201DD414804804148008884426E
:1012700001DA3F4804803C4800780F282BDB3D48CA
:10128000D0ED000A3948008800EE100AB8EE400A96
:1012900070EEC00A3648008800EE100AB8EE400A28
:1012A00030EEC00AF2EE020A80EE201ABCEEC10A4D
:1012B00010EE100A304908810220244908709FED81
:1012C000290A2C4880ED000A002028490880284976
:1012D0000880254908701D480078022831D1274828
:1012E0000078401C2549087008460078642811DB06
:1012F0000020087000224FF400414FF0904001F0B0
:101300004BFF642000F042F80122D1034FF09040DF
:1013100001F042FF00200D4908700846007809F0EE
:10132000FAFB0F4800891649088013480089088491
:101330001448406814490A78012191400843114932
:101340004860282002F0D6FB70BD0000B2000020EB
:1013500098000020A0000020A20000209C00002097
:101360006456002000000000A4000020AC00002013
:10137000AE000020A800002070560020B100002020
:10138000045E0020E45D0020B000002010B548227B
:1013900000EBC003D90000E000BF0B1EA1F101016A
:1013A000FAD110BD2DE9F04105464FF000080024A8
:1013B000002624E000271EE0640000224FF4806134
:1013C000144801F0E9FE0220FFF7E0FF012291023C
:1013D000104801F0E1FE0220FFF7D8FF4FF4006152
:1013E0000C4801F0C7FE8046B8F1010F01D144F06E
:1013F0000104781CC7B2082FDEDB701CC6B2032EB6
:10140000D8DB2C6001229102024801F0C5FEBDE844
:10141000F0810000000800482DE9F04105464FF03A
:1014200000080024002624E000271EE064000022BB
:101430004FF48061144801F0AFFE0220FFF7A6FFD1
:1014400001229102104801F0A7FE0220FFF79EFF43
:101450004FF400610C4801F08DFE8046B8F1010F99
:1014600001D144F00104781CC7B2082FDEDB701CE8
:10147000C6B2032ED8DB2C6001229102024801F093
:101480008BFEBDE8F08100000008004870B50446FE
:1014900000252068806800F00300012806D120683C
:1014A000006800F0010008B1012000E000200028E1
:1014B0003BD02068806800F00D00012800D100E0DA
:1014C000002050B100BF2068806840F00200216811
:1014D000886003202168086009E0206C40F010005B
:1014E0002064606C40F001006064012070BD01F078
:1014F00059FE054613E001F055FE401B02280ED9A7
:101500002068806800F0010048B1206C40F01000B5
:101510002064606C40F0010060640120E6E7206810
:10152000806800F001000028E5D10020DEE700001F
:1015300070B5044600252068806800F0030001288B
:1015400006D12068006800F0010008B1012000E029
:10155000002080BB206880681B49084008B9012032
:1015600000E0002048B9206C40F010002064606C5E
:1015700040F001006064012070BD2068806840F088
:1015800001002168886001F00DFE054614E001F0BD
:1015900009FE401B02280FD92068006800F00100F6
:1015A00050B9206C40F010002064606C40F00100E5
:1015B00060640120E0E705E02068006800F00100B9
:1015C0000028E4D00020D7E73F00008010B50024B9
:1015D0000948006870B1084800680EF0BAF804467F
:1015E0000648844201D2012010BD00200249086053
:1015F000034908700020F7E7A8080020C027090069
:10160000AC08002010B500240948006868B10848FB
:1016100000680EF09EF804460648844205D204484D
:1016200000680449084402490860002010BD000019
:10163000A8080020E0930400F8B5002000900024E2
:1016400000260025012291020F4801F0A5FD05E0CA
:10165000681CC5B2C82D01DD3046F8BD4FF40061ED
:10166000094801F087FD0028F2D16846FFF79AFE8D
:101670000098C4B20098000A00902046FFF730FDA1
:1016800000B9009E3046E8E70008004838B5002061
:10169000009000240025012291020D4801F07CFDFC
:1016A00000BF4FF400610A4801F064FD0028F8D142
:1016B0006846FFF7B1FE0098C4B20098000A009097
:1016C0002046FFF70DFD00B9009D284638BD0000FB
:1016D0000008004810B500224FF400414FF0904040
:1016E00001F05AFD642001F0B7FB0122D1034FF055
:1016F000904001F051FD642001F0AEFB10BD00BF31
:10170000FEE7000008B50027B846B94600BF002430
:10171000A24600BF0025FFF7DDFF10F0F5FE814671
:1017200058E04FF400612C4801F024FD0090C821DE
:101730002A48006810F028FD01280CD1002410F080
:10174000E3FEA0EB0900082811D3FFF7E7FC10F037
:10175000DBFE81460BE0641C052C08D30024002628
:1017600003E0FFF769FF8346761C0A2EF9DB01F0E0
:1017700019FD4FF47A71B0FBF1F201FB1207C82F8B
:1017800002D24FF000080EE0B8F1000F0BD14FF07D
:10179000010805F06FFC08F05FF905F087FF05F020
:1017A000E7FE05F0E5FC0E48007878B910F0ACFED5
:1017B000A0EB0A0041F28831884207D305F001000E
:1017C0000DF090FD6D1C10F09FFE824602200EF081
:1017D00018FA00BFA5E7000000080048B400002088
:1017E000B811002000BF0C4890F8020178B10A48F7
:1017F000B0F8001108F07CFF0020074981F80201D1
:10180000A1F800014FF480710348FEF793FD0A2010
:101810000EF0F7F9E7E700008446002000BF04213E
:10182000034801F0AFFC4FF47A700EF0EAF9F6E7E6
:10183000000C004810B5C9A1002007F0A5FF6020EA
:101840004FF0006191FAA1F1B1FA81F10843012151
:10185000B1EB601F02D1C54800681FE060204FF067
:10186000006191FAA1F1B1FA81F108430221B1EBD3
:10187000601F02D1BD48006A10E060204FF0006197
:1018800091FAA1F1B1FA81F108430421B1EB601F93
:1018900002D1B648406801E0B448406A60214FF088
:1018A000006292FAA2F2B2FA82F2114301F01F0230
:1018B00001219140084018B1ADA1002007F064FF5C
:1018C00060204FF0806191FAA1F1B1FA81F10843F3
:1018D0000121B1EB601F02D1A44800681FE0602025
:1018E0004FF0806191FAA1F1B1FA81F10843022130
:1018F000B1EB601F02D19D48006A10E060204FF0FC
:10190000806191FAA1F1B1FA81F108430421B1EBB0
:10191000601F02D19548406801E09448406A602108
:101920004FF0806292FAA2F2B2FA82F2114301F011
:101930001F0201219140084018B193A1002007F037
:1019400023FF60204FF0805191FAA1F1B1FA81F1AB
:1019500008430121B1EB601F02D1844800681FE0F9
:1019600060204FF0805191FAA1F1B1FA81F1084362
:101970000221B1EB601F02D17C48006A10E06020B8
:101980004FF0805191FAA1F1B1FA81F1084304219D
:10199000B1EB601F02D17548406801E07348406AAE
:1019A00060214FF0805292FAA2F2B2FA82F2114311
:1019B00001F01F0201219140084018B178A10020D8
:1019C00007F0E2FE60204FF0005191FAA1F1B1FA68
:1019D00081F108430121B1EB601F02D16348006827
:1019E0001FE060204FF0005191FAA1F1B1FA81F1AE
:1019F00008430221B1EB601F02D15C48006A10E08D
:101A000060204FF0005191FAA1F1B1FA81F1084341
:101A10000421B1EB601F02D15448406801E05348F3
:101A2000406A60214FF0005292FAA2F2B2FA82F2BA
:101A3000114301F01F0201219140084018B15EA13D
:101A4000002007F0A1FE60204FF0804191FAA1F143
:101A5000B1FA81F108430121B1EB601F02D1434883
:101A600000681FE060204FF0804191FAA1F1B1FAC7
:101A700081F108430221B1EB601F02D13B48006AAB
:101A800010E060204FF0804191FAA1F1B1FA81F1AC
:101A900008430421B1EB601F02D13448406801E0E3
:101AA0003248406A60214FF0804292FAA2F2B2FAC4
:101AB00082F2114301F01F0201219140084018B148
:101AC00045A1002007F060FE6020810691FAA1F197
:101AD000B1FA81F108430121B1EB601F02D1234823
:101AE00000681DE06020810691FAA1F1B1FA81F150
:101AF00008430221B1EB601F02D11C48006A0FE0CD
:101B00006020810691FAA1F1B1FA81F10843042124
:101B1000B1EB601F02D11548406801E01348406AEC
:101B200060218A0692FAA2F2B2FA82F2114301F01F
:101B30001F0201219140084018B12EA1002007F09A
:101B400023FE0120010691FAA1F1B1FA81F1304A98
:101B500002EB8101C1F8800410BD0000526573657D
:101B60007420536F757263653A20000000100240C4
:101B7000504F522028506F7765722D4F6E2052655E
:101B8000736574290D0A000050494E202845787469
:101B900065726E616C205265736574290D0A0000D0
:101BA0005346542028536F667477617265205265DE
:101BB000736574290D0A0000495744472028496E6F
:101BC000646570656E64656E7420576174636864E3
:101BD0006F67290D0A0000005757444720285769AE
:101BE0006E646F77205761746368646F67290D0AAC
:101BF000000000004C50575220284C6F7720506F47
:101C0000776572205265736574290D0A0000000023
:101C10000000424210B586B004463C4800780028D7
:101C200072D03B48007805286DD2DFE800F0031839
:101C30002D425700374800783749086018201E2188
:101C40009623CDE90130CDE903103A20022300901C
:101C500031483249026820460FF048F953E03048D5
:101C600000782D49086018201E219623CDE9013007
:101C7000CDE903106A200223009027482749026813
:101C800020460FF033F93EE02648007822490860EC
:101C900018201E219623CDE90130CDE903109A20AA
:101CA000022300901C481D49026820460FF01EF9CF
:101CB00029E01D4800781849086018201E21962345
:101CC000CDE90130CDE90310CA200223009012486B
:101CD0001249026820460FF009F914E01348007811
:101CE0000D49086018201E219623CDE90130CDE969
:101CF0000310FA2002230090074808490268204692
:101D00000FF0F4F800BF00BF06B010BD6D11002049
:101D10006C1100206711002064020020445E002046
:101D200068110020691100206A1100206B11002049
:101D30007047000008B5002000900B48006800F4D0
:101D4000006058B14FF40060074908600748006818
:101D500020B169460548006810F0A6F94FF400600C
:101D600001F01CF908BD000014040140B40000207B
:101D700072B600BFFEE7000008B505F01FF84FF48B
:101D8000784073234FF4A07200210090084604F0BD
:101D900086FF4FF4FC6078234FF4A072732100900B
:101DA000002004F07CFF1F20F0234FF4A072782164
:101DB0000090002004F073FF05F052FF0DF048FE84
:101DC00064200DF01EFF48F23040F0234FF4A07263
:101DD0000021009008460EF02FFB002006F09EFE2A
:101DE0000848006840F010000649086000BF05F090
:101DF00097FE0FF0D1FC07F091F832200DF001FFB3
:101E0000F5E70000D400002030B501468F2248F2EB
:101E1000E80501FB05F0C51700EB15552B1302EB88
:101E2000C20000EB0210C3EB8000642568432B2541
:101E300090FBF5F000F6C414A0B230BD2DE9F041DE
:101E400004467648006E7649B0FBF1F201FB1200C1
:101E50007449B0FBF1F201FB12087148B4FBF0F0D9
:101E60000A21B0FBF1F201FB12066E48B4FBF0F060
:101E7000B0FBF1F201FB120706EB860007EB400016
:101E8000C5B21B2D71D2DFE805F0C50E151C232A43
:101E900031383F464D545B626971787F868D949BE3
:101EA000A2A9B0B7BE0042465FA15C4848300CF022
:101EB00027FDB0E042465DA1584848300CF020FDB7
:101EC000A9E042465AA1554848300CF019FDA2E05D
:101ED000424658A1514848300CF012FD9BE0424662
:101EE00055A14E4848300CF00BFD94E0424653A1FA
:101EF0004A4848300CF004FD8DE0424650A1474866
:101F000048300CF0FDFC86E042464EA14348483084
:101F10000CF0F6FC7FE042464BA1404848300CF004
:101F2000EFFC78E0424649A13C4848300CF0E8FC20
:101F300071E0424646A1394848300CF0E1FC6AE0C5
:101F4000424644A1354848300CF0DAFC63E0424692
:101F500041A1324848300CF0D3FC5CE042463FA13E
:101F60002E4848300CF0CCFC55E053E042463CA1F2
:101F70002A4848300CF0C4FC4DE0424639A12748BD
:101F800048300CF0BDFC46E0424637A123484830BB
:101F90000CF0B6FC3FE0424634A1204848300CF03B
:101FA000AFFC38E0424632A11C4848300CF0A8FC97
:101FB00031E042462FA1194848300CF0A1FC2AE03C
:101FC00042462DA1154848300CF09AFC23E04246C9
:101FD0002AA1124848300CF093FC1CE0424628A18C
:101FE0000E4848300CF08CFC15E0424625A10B4809
:101FF00048300CF085FC0EE0424623A107484830EB
:102000000CF07EFC07E0424620A1044848300CF06A
:1020100077FC00E000BF00BFBDE8F0819C560020C7
:1020200000E1F50580969800412564004225640092
:10203000432564004425640045256400462564006A
:102040004725640048256400492564004A2564004A
:102050004B2564004C2564004D2564004E2564002A
:102060004F2564005025640051256400522564000A
:1020700053256400542564005525640056256400EA
:102080005725640058256400592564005A256400CA
:1020900000A070474754512D5A472D303031000071
:1020A00000A0704756312E332E3000002DE9F0414C
:1020B00004460E46002700BF94F83C00012802D1D8
:1020C0000220BDE8F081012084F83C0000BF2046DA
:1020D000FFF7DCF9074697BB012020642068806881
:1020E00020F0804021688860012E05D1206880683A
:1020F00040F08040216888602068806840F000409F
:102100002168886001F04EF8054619E001F04AF8B0
:10211000401B0A2814D92068806800F00040B0F104
:10212000004F0DD1206C20F0020040F01000206420
:1021300000BF002084F83C0000BF0120C1E70CE094
:102140002068806800F00040B0F1004FDED0206CC5
:1021500020F0020040F00100206400BF002084F85D
:102160003C0000BF3846ACE770B594B002460B4661
:102170000024186800B100BF1068B0F1A04F02D170
:102180005648009017E0554D1068A84203D14FF013
:10219000A04000900FE0524D1068A84202D1514873
:1021A000009008E04F4D1068A84202D14C480090C2
:1021B00001E000200090009810B9012014B070BD1B
:1021C00000BF92F83C00012801D10220F6E701206F
:1021D00082F83C0000BF10688068C0F380000028CF
:1021E00070D100988068C0F3800000286AD1106820
:1021F000B0F1A04F03D0394D1068A84201D13A4840
:1022000000E03A480146186888B392F830005D68EB
:1022100045EA40308D6825F46045284388601068A1
:10222000806800F00300012806D11068006800F003
:10223000010008B1012000E00020C8BB00988068C0
:1022400000F00300012806D10098006800F00100AA
:1022500008B1012000E0002050BB9D6818682843A9
:102260008D6840F61F76B543284388602FE0FFE76E
:10227000886820F4604088601068806800F003007F
:10228000012806D11068006800F0010008B10120A3
:1022900000E0002060B90098806800F00300012889
:1022A00008D10098006800F0010018B1012002E098
:1022B0000DE007E0002050B9886840F61F75A8437C
:1022C000886004E0106C40F020001064012400BF1E
:1022D000002082F83C0000BF20466FE7000100505C
:1022E000000400500005005000030050000700509B
:1022F000F0B595B00246002500200090C86801287E
:1023000000D000E000BF00BF92F83C00012802D1DD
:10231000022015B0F0BD012082F83C0000BF10681B
:102320008068C0F38000002879D14868052812D25F
:102330001068006B0E7906EB460677001F26BE403C
:10234000B0430F7907EB47077F000E68BE4030436C
:102350001668306343E048680A2814D21068406B5E
:102360000E79761F06EB460677001F26BE40B04367
:102370000F797F1F07EB47077F000E68BE40304391
:10238000166870632BE048680F2814D21068806BC1
:102390000E790A3E06EB460677001F26BE40B04384
:1023A0000F790A3F07EB47077F000E68BE403043B6
:1023B0001668B06313E01068C06B0E790F3E06EB31
:1023C000460677001F26BE40B0430F790F3F07EB4C
:1023D00047077F000E68BE4030431668F063106800
:1023E000806800F00C0008B1012000E00020002807
:1023F00070D108680A2813D3106880690E780A3EE5
:1024000006EB46070726BE40B0430F780A3F07EBAE
:1024100047078E68BE4030431668B06110E07EE129
:10242000106840690E7806EB46070726BE40B043A9
:102430000F7807EB47078E68BE403043166870611F
:1024400048691668F668C6F3C106760000FA06F415
:102450000869012806D0022812D003281ED00428BB
:1024600039D129E01068006EB34E30400E784FF03D
:10247000004747EA8666264330431668306663E0C5
:102480001068406EAC4E30400E784FF0004747EA7F
:102490008666264330431668706655E01068806E85
:1024A000A54E30400E784FF0004747EA8666264337
:1024B00030431668B06647E01068C06E9E4E3040EC
:1024C0000E784FF0004747EA866626433043166889
:1024D000F06639E039E01068006E00F0F8400E78E0
:1024E000B0EB866F05D11068006E20F000401668D2
:1024F00030661068406E00F0F8400E78B0EB866FE2
:1025000005D11068406E20F00040166870661068B3
:10251000806E00F0F8400E78B0EB866F05D1106841
:10252000806E20F000401668B0661068C06E00F043
:10253000F8400E78B0EB866F05D11068C06E20F0C1
:1025400000401668F06600BF00BF1068806800F0A9
:102550000300012806D11068006800F0010008B1EE
:10256000012000E00020002871D1C86801280AD0AD
:102570001068D0F8B0000F780126BE40B04316684E
:10258000C6F8B00032E01068D0F8B0000F7801262D
:10259000BE4030431668C6F8B00008680A2813D356
:1025A000106886690878093800EB40070720B840B2
:1025B00026EA00000E78093E06EB46068F68B74013
:1025C00038431668B06111E0106840690E78761CD7
:1025D00006EB46070726BE40B0430F787F1C07EB8B
:1025E00047078E68BE403043166870611068B0F1CE
:1025F000A04F03D0514E1068B04201D1504800E0C6
:10260000504803460868102803D1986800F4000079
:1026100070B10868112803D1986800F0807038B153
:102620000868122813D1986800F4800000287BD134
:102630001068B0F1A04F02D14048019018E03F4E21
:102640001068B04204D14FF0A040019010E05FE06C
:102650003D4E1068B04202D13C48019008E03B4E2C
:102660001068B04202D13848019001E0002001908A
:102670001068806800F00300012806D11068006827
:1026800000F0010008B1012000E00020C0BB01986B
:1026900070B10198806800F00300012806D101980C
:1026A000006800F0010008B1012000E0002038BB04
:1026B0000868102818D11068B0F1A04F14D198689C
:1026C00040F40000986022480068224EB0FBF6F00B
:1026D00000EB80004000009002E00098401E009057
:1026E00000980028F9D11FE00868112809D1106866
:1026F000B0F1A04F05D1986840F08070986013E069
:1027000007E0086812280FD1986840F480009860AC
:102710000AE0106C40F020001064012504E0106C09
:1027200040F020001064012500BF002082F83C002A
:1027300000BF2846EDE5000000F0FF8300010050D7
:102740000003005000070050000400500005005036
:102750003400002040420F0001460868006C7047BA
:10276000F0B595B00446002600250020009014B96D
:10277000012015B0F0BD206918B12020005D00B126
:1027800000BF206C00F01000002853D1206C98BBD3
:10279000002060640021E164A06484F83C002046CD
:1027A00000F04EF92068806800F0805020BB204681
:1027B000FEF76CFE0646206C00F01000E0B9DEB9B2
:1027C000206C20F4885040F002002064206880686B
:1027D00020F04050216888602068806840F0805078
:1027E000216888608E4800688E49B0FBF1F000EBEC
:1027F00080004000009003E005E00098401E00903B
:1028000000980028F9D12068806800F0805030B12D
:102810002068806800F00050B0F1005F0AD1206CA1
:1028200020F0020040F010002064606C40F00100D5
:1028300060640126206C00F0100000287BD1002E7F
:10284000FCD120688068C0F380000028F6D1206C9D
:1028500020F4807040F0020020642068B0F1A04FA6
:1028600003D071492068884201D1704800E0704867
:1028700007462068B0F1A04F02D16B48019017E0E5
:1028800069492068884203D14FF0A04001900FE0D1
:1028900068492068884202D16748019008E066498B
:1028A0002068884202D16348019001E00020019035
:1028B0002068806800F00300012806D120680068C5
:1028C00000F0010008B1012000E00020B0B901983B
:1028D00070B10198806800F00300012806D10198CA
:1028E000006800F0010008B1012000E0002028B9D4
:1028F000B86820F4403061680843B860606B012814
:1029000002D04FF4805100E00021607E41EA403067
:10291000E1680843A168084305432020005D0128C1
:1029200014D1607E40B9A08C401E4FF4803141EA42
:10293000404005430AE069E0206C20F0020040F0CE
:1029400020002064606C40F001006064A06A0128EF
:1029500022D038492068884203D03749206888420D
:1029600016D1A06AB0F5307F02D14FF4E07010E0CC
:10297000A06AB0F5807F02D14FF4307009E0A06A00
:10298000B0F5E07F02D14FF4807002E0A06A00E071
:10299000A06AE16A084305432068806800F00C00E3
:1029A00008B1012000E0002068B92068C06844F246
:1029B000020188432168C860207E810394F83000BA
:1029C00041EA400005432068C0681C49084028438C
:1029D0002168C8602069012809D12068006B20F0B7
:1029E0000F00E169491E08432168086305E020687B
:1029F000006B20F00F002168086300206064206CE9
:102A000020F0020040F00100206406E0206C20F07D
:102A1000020040F01000206401263046A9E60000C4
:102A20003400002040420F0000010050000300501D
:102A300000070050000400500005005007C0F0FFE0
:102A400008B50168B1F1A04F0DD100BF0649496931
:102A500041F08051044A51611146496901F08051A9
:102A6000009100BF00BF08BD0010024070B50446D1
:102A7000002520688068C0F3800000287ED100BF58
:102A800094F83C00012801D1022070BD012084F897
:102A90003C0000BF2046FEF74BFD0546002D6ED1E1
:102AA000206C40F60161884340F480702064206807
:102AB000B0F1A04F03D056492068884204D1554850
:102AC000006800F01F0003E05348006800F01F009A
:102AD00040B12068B0F1A04F04D04E49F8312068D1
:102AE00088420FD1206C20F4801020642068C068D8
:102AF00000F0007018B3206C20F4005040F48050B7
:102B000020641CE0206C40F4801020642068B0F148
:102B1000A04F03D03E492068884205D14FF0A04025
:102B2000C06800F0007003E03C48006800F00070EE
:102B300028B1206C20F4005040F480502064206CB8
:102B400000F48050B0F5805F04D1606C20F0060086
:102B5000606401E00020606400BF002084F83C0055
:102B600000BF1C20216808602068B0F1A04F03D08E
:102B700027492068884207D1264801E044E03EE02A
:102B8000006800F01F0003E02348006800F01F0009
:102B900070B32068B0F1A04F03D01D49206888426F
:102BA00004D11C48006800F01F0003E01A480068C8
:102BB00000F01F0005281BD02068B0F1A04F03D003
:102BC00013492068884204D11248006800F01F00B1
:102BD00003E01148006800F01F00092808D02068B1
:102BE000B0F1A04F04D00D490C39206888420CD1B7
:102BF0002068806840F004002168886005E000BF1C
:102C0000002084F83C0000E0022528463DE7000053
:102C10000001005008030050080700500C04005049
:102C200070B503460024002500BF5879012801D162
:102C3000022070BD0120587100BF02201871186871
:102C4000046840F6FE7090408443D1E9000640EAF3
:102C5000060505FA02F0044318680460186806685F
:102C6000C02090408643186806600120187100BF9C
:102C70000020587100BF00BFDBE710B504460CB957
:102C8000012010BD207920B900206071204600F09D
:102C900009F802202071002020610120207100200D
:102CA000EFE7000010B586B00446142101A8FDF737
:102CB00041FB16492068884225D100BF1448C069ED
:102CC00040F000501249C8610846C06900F0005049
:102CD000009000BF00BF00BF0846406940F40030CC
:102CE00048610846406900F40030009000BF00BF12
:102CF00020200190032002900020039001A94FF0B2
:102D0000904000F059F906B010BD0000007400407A
:102D10000010024038B50446002000902068009062
:102D200029B902F10800009D2844009004E002F156
:102D30001400009D2844009000980360002038BDD6
:102D4000024600BF5079012801D1022070470120BE
:102D5000507100BF022010711068006801238B4081
:102D600018431368186061B91068006800F03C00EF
:102D70003C2813D11068406840F001001368586087
:102D80000CE01068006800F47010B0F5701F05D1F9
:102D90001068406840F0020013685860012010710C
:102DA00000BF0020507100BF00BFCFE7014691F87F
:102DB0002100022808D00420886300BF002081F889
:102DC000200000BF012070470868006820F00E0056
:102DD0000A6810600868006820F001000A68106046
:102DE00091F8402001209040CA6B5060012081F88A
:102DF000210000BF002081F8200000BF00BFE2E7F3
:102E000070B50446002594F82100022803D0042060
:102E1000A06301251EE02068006820F00E002168F4
:102E200008602068006820F001002168086094F8BC
:102E3000401001208840E16B4860012084F82100A7
:102E400000BF002084F8200000BF606B10B1204656
:102E5000616B8847284670BD70B5044600F0A2F942
:102E600006462546681C10B104480078054400BF9A
:102E700000F098F9801BA842FAD370BD3000002002
:102E8000F0B50B46002176E001258D4005EA0302EE
:102E9000002A6FD03A4D8E0855F826408D072E0F28
:102EA0000F25B5402C40B0F1904F01D1002514E022
:102EB000344DA84201D101250FE0334DA84201D184
:102EC00002250AE0314DA84201D1032505E0304D2D
:102ED000A84201D1042500E005258E07360FB54034
:102EE000A54221D12B4D2D6895432A4E3560351DC5
:102EF0002D689543361D3560351D2D689543361D6B
:102F00003560351D2D689543361D35608D072E0FB4
:102F10000F2505FA06F41A4D8E0855F82650A543DC
:102F2000174E8F0846F8275005684F000326BE400D
:102F3000B5430560CE0800F1200555F826504E0730
:102F4000F70E0F26BE40B543CF0800F1200646F825
:102F50002750C5684F000326BE40B543C56046688C
:102F600001258D40AE43466085684F000326BE4074
:102F7000B5438560491C23FA01F5002D84D1F0BDCD
:102F8000080001400004004800080048000C004808
:102F900000100048000401407047000010B50446CE
:102FA00004480068204020B1024804602046FFF732
:102FB000F3FF10BD1404014078B503460A46002112
:102FC000C4E001268E40156805EA0604002C73D083
:102FD000157905F00305012D04D0157905F00305D9
:102FE000022D13D198684E000325B540A8434E002A
:102FF000D568B54028439860586801258D40A8439E
:103000001579C5F300158D4028435860157905F0F2
:103010000305032D09D0D8684E000325B540A84309
:103020004E009568B5402843D860157905F0030532
:10303000022D13D1CE0803F1200555F826004D07C7
:10304000EE0E0F25B540A8434E07F60E1569B540A4
:103050002843CE0803F1200545F8260018684E00E5
:103060000325B540A843157905F003054E00B5408A
:1030700028431860556805F44035002D65D000BF21
:10308000354DAD6945F00105334EB5613546AD6945
:1030900005F00105009500BF00BF4FEAB6358E0868
:1030A00055F826008D072E0F0F25B540A843B3F124
:1030B000904F02D1002515E047E0284DAB4201D1E9
:1030C00001250FE0264DAB4201D102250AE0254D36
:1030D000AB4201D1032505E0234DAB4201D10425CC
:1030E00000E005258E07360FB54028431F4D8E089A
:1030F00045F826001E4D2868A043556805F4803524
:1031000005B120431A4D28602D1D2868A04355683D
:1031100005F4003505B12043154D2D1D28602D1DEA
:103120002868A043556805F4801505B12043104D6B
:10313000083528602D1D2868A043556805F4001542
:1031400005B120430A4D0C352860491C1568CD4057
:10315000002D7FF436AF78BD001002400004004817
:1031600000080048000C004800100048080001401A
:1031700000040140024613690B400BB1012000E03E
:103180000020704710B5426921EA020302EA0104F7
:1031900043EA0443836110BD0AB1816100E08162AA
:1031A00070470000014800687047000028000020B8
:1031B000024692F8410020282DD100BF92F840002D
:1031C000012801D102207047012082F8400000BF91
:1031D000242082F841001068006820F00100136884
:1031E00018601068006820F4805013681860106838
:1031F00000680843136818601068006840F0010018
:1032000013681860202082F8410000BF002082F877
:10321000400000BFD7E70220D5E710B502460B46B5
:1032200092F8410020282AD100BF92F840000128DE
:1032300001D1022010BD012082F8400000BF2420EF
:1032400082F841001068006820F0010014682060D6
:103250001068016821F4706141EA0321106801607F
:103260001068006840F0010014682060202082F897
:10327000410000BF002082F8400000BFDAE70220D2
:10328000D8E710B504460CB9012010BD242084F8FD
:1032900041002068006820F0010021680860204695
:1032A00000F090FA0020606484F84100206384F804
:1032B000420000BF84F8400000BF00BFE5E7000007
:1032C00010B504460CB9012010BD94F8410028B98E
:1032D000002084F84000204600F0A8FA242084F85A
:1032E00041002068006820F00100216808606068E3
:1032F00020F07060216808612068806820F4004038
:1033000021688860E068012805D1A06840F4004089
:103310002168886004E0A06840F404402168886067
:10332000E068022802D18002216848602068406875
:1033300013490843216848602068C06820F40040B1
:103340002168C860D4E904010843A16940EA01206A
:103350002168C860D4E90701084321680860206833
:10336000006840F0010021680860002060642020AF
:1033700084F841000020206384F8420000BFA3E7E6
:10338000008000022DE9FC4704460F4690461E4689
:103390000020019094F84100202872D120688069B3
:1033A000C0F3C03010B10220BDE8FC8700BF94F824
:1033B0004000012801D10220F6E7012084F84000F6
:1033C00000BF242084F841000020606400BFE06852
:1033D000012806D1C7F3090040F4005040F0007006
:1033E00003E0C7F3090040F4205021684860FFF76C
:1033F000D9FE054620688069C0F3401920688069BD
:10340000C0F3001A1DE0701C98B1FFF7CBFE401B03
:10341000B04200D86EB9202084F84100606C40F0C2
:103420002000606400BF002084F8400000BF01203D
:10343000BAE720688069C0F3401920688069C0F34A
:10344000001AB9F1000F02D1BAF1000FDBD02068E9
:103450008069C0F30010A8B933460022202120461D
:10346000009503F0D1FA08B101209DE720202168E2
:10347000C86184F8410000BF002084F8400000BF0C
:1034800092E73AE03346002220212046009503F0DF
:10349000BBFA08B1012087E710202168C86120200D
:1034A0002168C8610198404512D12068406840F405
:1034B0008040216848603346002220212046009544
:1034C00003F0A2FA08B101206EE720202168C8614C
:1034D0000198401C019001984045FFF478AF2020EE
:1034E00084F84100606C40F02000606400BF002060
:1034F00084F8400000BF012056E7022054E7000096
:103500002DE9F8430446894616461F46DDF820801B
:1035100094F84100202873D100BF94F8400001289E
:1035200002D10220BDE8F883012084F8400000BFEA
:10353000FFF738FE054619230122D10320460095E6
:1035400003F062FA08B10120ECE7222084F8410080
:10355000102084F842000020606466626785606322
:10356000608DFF280CD9FF2020853C48009094F8FE
:1035700028204FF080734946204603F02BFA0BE0D9
:10358000608D20853548009094F828204FF0007316
:103590004946204603F01EFA3FE02A4641462046AF
:1035A00003F062FA08B10120BCE72068406A616A52
:1035B0000870606A401C6062208D401E2085608D0E
:1035C000401E6085608D40B3208D30BB4346002295
:1035D00080212046009503F017FA08B10120A1E7E9
:1035E000608DFF280DD9FF2020850020009094F8E1
:1035F00028204FF080734946204603F0EBF90CE099
:103600002AE0608D20850020009094F828204FF05B
:1036100000734946204603F0DDF9608D0028BCD1D7
:103620002A464146204603F06FFA08B1012079E7A7
:1036300020202168C8612068406809490840216845
:103640004860202084F84100002084F8420000BF38
:1036500084F8400000BF65E7022063E70024008093
:1036600000E800FE2DE9F8430446894616461F4649
:10367000DDF8208094F84100202871D100BF94F833
:103680004000012802D10220BDE8F883012084F81F
:10369000400000BFFFF786FD054619230122D10334
:1036A0002046009503F0B0F908B10120ECE7212095
:1036B00084F84100102084F84200002060646662B3
:1036C00067856063608DFF280BD9FF2020853B480C
:1036D000009094F82820C3024946204603F07AF966
:1036E0000AE0608D20853548009094F82820030377
:1036F0004946204603F06EF93FE02A4641462046FF
:1037000003F02DFA08B10120BEE7606A0078216855
:103710008862606A401C6062608D401E6085208DFA
:10372000401E2085608D40B3208D30BB4346002273
:1037300080212046009503F067F908B10120A3E736
:10374000608DFF280DD9FF2020850020009094F87F
:1037500028204FF080734946204603F03BF90CE0E7
:103760002AE0608D20850020009094F828204FF0FA
:1037700000734946204603F02DF9608D0028BCD126
:103780002A464146204603F0BFF908B101207BE7F5
:1037900020202168C86120684068094908402168E4
:1037A0004860202084F84100002084F8420000BFD7
:1037B00084F8400000BF67E7022065E70020008032
:1037C00000E800FE10B504461449206888420FD175
:1037D0001348C06920F400101149C86189151148C7
:1037E000FFF74EFB4FF400710E48FFF749FB14E062
:1037F0000D492068884210D10948C06920F4800032
:103800000749C86149154FF09040FFF739FB4FF465
:1038100080614FF09040FFF733FB10BD0054004033
:1038200000100240000400480058004010B586B067
:103830000446142101A8FCF77DFD30492068884228
:103840002AD100BF2E48406940F480202C494861AD
:103850000846406900F48020009000BF00BF4FF48C
:1038600040700190122002900020039003200490E9
:103870000420059001A92348FFF79EFB00BF2048C4
:10388000C06940F400101E49C8610846C06900F4D0
:103890000010009000BF2FE01B49206888422BD108
:1038A00000BF1748406940F4003015494861084698
:1038B000406900F40030009000BF00BF4FF4C060CA
:1038C0000190122002900020039003200490042015
:1038D000059001A94FF09040FFF76EFB00BF08482C
:1038E000C06940F480000649C8610846C06900F418
:1038F0008000009000BF00BF06B010BD0054004023
:1039000000100240000400480058004070B5044612
:103910000CB9012070BD4CF6CC402168086045F21E
:10392000555021680860D4E9001048602168A068FB
:103930008860FFF737FC05460BE0FFF733FC401BC0
:10394000272806D92068C06800F0070008B10320C6
:10395000E0E72068C06800F007000028EDD120688B
:103960000169E068814203D02168E068086103E0F2
:103970004AF6AA20216808600020CBE701464AF6F3
:10398000AA200A6810600020704700000348006801
:10399000034909780844014908607047280000205D
:1039A0003000002010B50848006840F010000649BB
:1039B0000860032000F0ECF80F2000F007F800F09A
:1039C00053F8002010BD000000200240F0B587B081
:1039D00004460026002700BF1E48806940F40060AE
:1039E0001C4988610846806900F40060009000BFAF
:1039F00000BF01A902A800F0D3FB00F00FFC0646AF
:103A00001548B6FBF0F0471E14481549086040F20F
:103A1000E7311348C1604760002101618160816125
:103A200001F01AFF054695B90D4801F04DFF054616
:103A30006DB9192000F05EF8102C07D20022214643
:103A4000192000F067F80748046000E001252846C7
:103A500007B0F0BD0010024040420F00002C0140B2
:103A6000284900202C00002008B500BF0F488069BD
:103A700040F001000D4988610846806900F00100AE
:103A8000009000BF00BF00BF0846C06940F08050F2
:103A9000C8610846C06900F08050009000BF00BFB8
:103AA00000220F21901E00F035F808BD00100240E2
:103AB00010B501460846002817DB00F01F0301225D
:103AC0009A400B4B440943F8242000BF00BF00BFBD
:103AD000BFF34F8F00BF00BF00BF00BF00BF00BFDC
:103AE000BFF36F8F00BF00BF00BF00BF10BD00005D
:103AF00080E100E001460846002809DB00F01F03D2
:103B000001229A4043099B0003F1E023C3F80021FE
:103B100000BF70472DE9F05F80460D46164600272E
:103B20000AF002FF074639462A46334601F00700ED
:103B3000C0F1070ABAF1040F02D94FF0040A01E0FC
:103B4000C0F1070AD14600F1040ABAF1070F02D208
:103B50004FF0000A01E0A0F1030AD4464FF0010A39
:103B60000AFA09FAAAF1010A0AEA020A0AFA0CFA9E
:103B70004FF0010B0BFA0CFBABF1010B0BEA030B43
:103B80004AEA0B04214640460AF0D6FEBDE8F09F03
:103B900000BF00F00702064B19684FF6FF031940FB
:103BA000044B0B4343EA0221014B196000BF7047ED
:103BB0000CED00E00000FA0500BF00BF00BF00BF31
:103BC00000BFBFF34F8F00BF00BF00BF09480068B0
:103BD00000F4E06008490843001D0649086000BF82
:103BE00000BF00BFBFF34F8F00BF00BF00BF00BFCB
:103BF00000BFFDE70CED00E00000FA050348006897
:103C000040F4807001490860704700000070004077
:103C1000F8B50446002600250027206800F480300F
:103C2000B0F5803F73D1B048C06900F0805070B9E2
:103C300000BFAD48C06940F08050AB49C86108463C
:103C4000C06900F08050009000BF00BF0127A74866
:103C5000006800F48070B0B9A448006840F4807037
:103C6000A2490860FFF79EFA064606E0FFF79AFAB7
:103C7000801B642801D90320F8BD9C48006800F42B
:103C800080700028F2D09848006A00F44075002D3A
:103C90006BD0A08800F44070A84266D09248006AB9
:103CA00020F440750121080490FAA0F0B0FA80F0E9
:103CB0008F4A02EB8000C0F800140020090491FA3A
:103CC000A1F1B1FA81F102EB8101C1F8000486484B
:103CD000056205F00100B8B3FFF764FA064608E094
:103CE000FFF760FA801B41F28831884201D9032036
:103CF000C2E74020022191FAA1F1B1FA81F1084313
:103D00000121B1EB601F03D1774800681FE03BE061
:103D10004020022191FAA1F1B1FA81F10843022178
:103D2000B1EB601F02D17048006A10E04020022110
:103D300091FAA1F1B1FA81F108430421B1EB601FBE
:103D400003D16948406802E00FE06748406A4021BB
:103D5000022292FAA2F2B2FA82F2114301F01F0299
:103D60000121914008400028BAD05F48006A20F441
:103D70004070616808435C490862012F04D108461D
:103D8000C06920F08050C861207800F0010038B18F
:103D90005548006B20F00300A168084352490863AE
:103DA000207800F00200022807D14F48006B20F471
:103DB0004030E16808434C490863207800F0040073
:103DC000042807D14848006B20F4402021690843AB
:103DD00045490863207800F02000202807D1424898
:103DE000006B20F01000E16908433F490863206838
:103DF00000F40030B0F5003F07D13B48406820F4A4
:103E00008000A16B084338494860207800F04000EA
:103E1000402807D13448006B20F02000216A084375
:103E200031490863207800F00800082807D12E489F
:103E3000006B20F44010616908432B490863207827
:103E400000F01000102807D12748006B20F4400034
:103E5000A169084324490863208800F40070B0F584
:103E6000007F07D12048406820F40000E16A084341
:103E70001D494860207800F08000802807D11A484A
:103E8000C06A20F4F870616A08431749C862208844
:103E900000F48070B0F5807F07D11348C06A20F429
:103EA0007850A16A08431049C862208800F4805005
:103EB000B0F5805F07D10C48006B20F48070216B57
:103EC000084309490863208800F40050B0F5005FFA
:103ED00007D10548006B20F40070616B084302496C
:103EE00008630020C8E60000001002400070004097
:103EF0000000424270B504460D4600260CB9012070
:103F000070BDA248006800F00700A8420ED29F488A
:103F1000006820F0070028439C49086008460068B4
:103F200000F00700A84201D00120E9E7207800F066
:103F30000200022807D19648406820F0F000A168EE
:103F4000084393494860207800F0010000287CD0A5
:103F5000606801283BD12020010391FAA1F1B1FA58
:103F600081F108430121B1EB601F02D1884800684C
:103F70001DE02020010391FAA1F1B1FA81F108437B
:103F80000221B1EB601F02D18148006A0FE02020BE
:103F9000010391FAA1F1B1FA81F108430421B1EBD7
:103FA000601F02D17A48406801E07948406A2021C8
:103FB0000A0392FAA2F2B2FA82F2114301F01F024E
:103FC00001219140084000287CD1012098E76068D9
:103FD00002283BD12020010591FAA1F1B1FA81F12B
:103FE00008430121B1EB601F02D1694800681DE060
:103FF0002020010591FAA1F1B1FA81F108430221D3
:10400000B1EB601F02D16248006A0FE02020010579
:1040100091FAA1F1B1FA81F108430421B1EB601FDB
:1040200002D15B48406801E05948406A20210A05F6
:1040300092FAA2F2B2FA82F2114301F01F020121B8
:1040400091400840E8BB01205AE758E020200221B7
:1040500091FAA1F1B1FA81F108430121B1EB601F9E
:1040600002D14B4800681DE02020022191FAA1F105
:10407000B1FA81F108430221B1EB601F02D144483B
:10408000006A0FE02020022191FAA1F1B1FA81F13A
:1040900008430421B1EB601F02D13D48406801E0B4
:1040A0003B48406A2021022292FAA2F2B2FA82F23E
:1040B000114301F01F0201219140084008B901207D
:1040C0001EE7FFE73248406820F0030061680843BC
:1040D0002F494860FFF766F8064608E0FFF762F8E8
:1040E000801B41F28831884201D9032008E7284823
:1040F000406800F00C006168B0EB810FEED12348FE
:10410000006800F00700A8420ED92048006820F09F
:10411000070028431D4908600846006800F00700B2
:10412000A84201D00120EBE6207800F0040004282A
:1041300007D11748406820F4E060E168084314495B
:104140004860207800F00800082808D1104840682E
:1041500020F46050216940EAC1000D49486000F038
:1041600073F80B49496801F0F001F02292FAA2F2CB
:10417000B2FA82F2D140074A515CC8400649086051
:1041800006480068FFF722FC0020B9E60020024044
:1041900000100240A4290108340000202C00002057
:1041A0000F2202600D4A526802F0030242600B4A7D
:1041B000526802F0F0028260084A526802F4E0623B
:1041C000C260064A526802F46052D2080261044A90
:1041D000126802F007020A607047000000100240F7
:1041E00000200240014800687047000034000020B1
:1041F00000B5FFF7F7FF0749496801F4E0614FF4A4
:10420000E06292FAA2F2B2FA82F2D140024A515C22
:10421000C84000BD00100240B429010800B5FFF7F6
:10422000E1FF0749496801F460514FF4605292FA86
:10423000A2F2B2FA82F2D140024A515CC84000BDFB
:1042400000100240B42901082DE9F04100240025A6
:1042500000270026A0461F48446804F00C0078B3ED
:10426000042802D008282CD102E0DFF86C802CE072
:1042700004F470104FF4701191FAA1F1B1FA81F1C8
:10428000C84016490E5C1348C06A00F00F000F21A9
:1042900091FAA1F1B1FA81F1C84011490D5C04F421
:1042A000803040B12A4600230B481946FBF7E8FF4F
:1042B000A0FB067102E00B48A0FB0671B84604E0C3
:1042C00000E000BFDFF8108000BF00BF4046BDE83F
:1042D000F08100000010024000127A0084290108D9
:1042E0009429010800093D00F8B504460CB90120E5
:1042F000F8BD207800F0010000287BD0FA48406823
:1043000000F00C0004280CD0F748406800F00C00C6
:10431000082845D1F448406800F48030B0F5803F6B
:104320003ED12020010391FAA1F1B1FA81F10843B5
:104330000121B1EB601F02D1EB4800681DE0202095
:10434000010391FAA1F1B1FA81F108430221B1EB25
:10435000601F02D1E448006A0FE02020010391FAB7
:10436000A1F1B1FA81F108430421B1EB601F02D140
:10437000DD48406801E0DC48406A20210A0392FAE7
:10438000A2F2B2FA82F2114301F01F020121914020
:1043900008400028B1D0606800282BD10120A7E791
:1043A00000BF6068B0F5803F06D1CF48006840F498
:1043B0008030CD49086029E0606858B9CA48006873
:1043C00020F48030C84908600846006820F4802046
:1043D00008601BE06068B0F5A02F0CD1C2480068EF
:1043E00040F48020C04908600846006840F48030EE
:1043F00008600BE0A1E0BC48006820F48030BA49B6
:1044000008600846006820F48020086000BFB648B5
:10441000C06A20F00F00A1680843B349C862606811
:10442000A0B3FEF7BFFE054606E0FEF7BBFE401B4D
:10443000642801D903205BE72020010391FAA1F150
:10444000B1FA81F108430121B1EB601F02D1A64806
:1044500000681EE02020010391FAA1F1B1FA81F178
:1044600008430221B1EB601F02D19F48006A10E0AF
:104470002020010391FAA1F1B1FA81F1084304214E
:10448000B1EB601F03D19848406802E010E0964805
:10449000406A20210A0392FAA2F2B2FA82F2114390
:1044A00001F01F020121914008400028BDD044E0E6
:1044B000FEF778FE054606E0FEF774FE401B642812
:1044C00001D9032014E72020010391FAA1F1B1FAE8
:1044D00081F108430121B1EB601F02D182480068DD
:1044E0001DE02020010391FAA1F1B1FA81F1084306
:1044F0000221B1EB601F02D17B48006A0FE020204F
:10450000010391FAA1F1B1FA81F108430421B1EB61
:10451000601F02D17448406801E07348406A20215E
:104520000A0392FAA2F2B2FA82F2114301F01F02D8
:104530000121914008400028BED1207800F00200FF
:1045400002285CD16848406800F00C0050B1664811
:10455000406800F00C00082852D16348406800F41D
:104560008030E8BB2020022191FAA1F1B1FA81F15B
:1045700008430121B1EB601F02D15B4800681DE0D8
:104580002020022191FAA1F1B1FA81F10843022120
:10459000B1EB601F02D15448006A0FE020200221D5
:1045A00091FAA1F1B1FA81F108430421B1EB601F46
:1045B00002D14D48406801E04B48406A2021022268
:1045C00092FAA2F2B2FA82F2114301F01F02012123
:1045D0009140084028B12069012802D0012087E6D7
:1045E0000EE04148006820F0F800F82292FAA2F2AA
:1045F000B2FA82F26169914008433B490860B1E038
:10460000206970B3012191FAA1F0B0FA80F0374A25
:1046100042F82010FEF7C6FD054606E0FEF7C2FD93
:10462000401B022801D9032062E62020022191FAD2
:10463000A1F1B1FA81F108430121B1EB601F02D170
:10464000294800681EE02020022191FAA1F1B1FA68
:1046500081F108430221B1EB601F03D12248006AB7
:1046600010E02CE02020022191FAA1F1B1FA81F1B1
:1046700008430421B1EB601F02D11B48406801E0F0
:104680001948406A2021022292FAA2F2B2FA82F27A
:10469000114301F01F020121914008400028BDD0C4
:1046A0001148006820F0F800F82292FAA2F2B2FA5B
:1046B00082F26169914008430B49086052E0002092
:1046C000012191FAA1F1B1FA81F1084A42F82100E1
:1046D000FEF768FD05460BE0FEF764FD401B02286F
:1046E00006D9032004E60000001002400000424208
:1046F0002020022191FAA1F1B1FA81F108430121B0
:10470000B1EB601F02D1FB4800681DE020200221B0
:1047100091FAA1F1B1FA81F108430221B1EB601FD6
:1047200002D1F448006A0FE02020022191FAA1F1A1
:10473000B1FA81F108430421B1EB601F02D1ED48C9
:10474000406801E0EB48406A2021022292FAA2F27E
:10475000B2FA82F2114301F01F0201219140084098
:104760000028B9D1207800F00800082851D1A069AC
:1047700080B3012191FAA1F0B0FA80F0DE4A02EB99
:104780008000C0F88014FEF70DFD054606E0FEF738
:1047900009FD401B022801D90320A9E56020022160
:1047A00091FAA1F1B1FA81F108430121B1EB601F47
:1047B00002D1D04800681EE06020022191FAA1F1E8
:1047C000B1FA81F108430221B1EB601F03D1C9485E
:1047D000006A10E01EE06020022191FAA1F1B1FA16
:1047E00081F108430421B1EB601F02D1C148406848
:1047F00001E0C048406A6021022292FAA2F2B2FAB5
:1048000082F2114301F01F0201219140084000286B
:10481000BDD04FE00020012191FAA1F1B1FA81F160
:10482000B54A02EB8101C1F88004FEF7BBFC0546E6
:1048300006E0FEF7B7FC401B022801D9032057E52C
:104840006020022191FAA1F1B1FA81F1084301211E
:10485000B1EB601F02D1A74800681DE06020022173
:1048600091FAA1F1B1FA81F108430221B1EB601F85
:1048700002D1A048006A0FE06020022191FAA1F164
:10488000B1FA81F108430421B1EB601F02D19948CC
:10489000406801E09748406A6021022292FAA2F241
:1048A000B2FA82F2114301F01F0201219140084047
:1048B0000028BED1207800F00400042873D100271E
:1048C0008C48C06900F0805070B900BF8948C06949
:1048D00040F080508749C8610846C06900F08050A8
:1048E000009000BF00BF01278448006800F480707A
:1048F000B0B98248006840F4807080490860FEF7D3
:1049000051FC054606E0FEF74DFC401B642801D92A
:104910000320EDE47948006800F480700028F2D0AC
:1049200000BFE068012806D17248006A40F001002B
:104930007049086227E0E06858B96E48006A20F0C4
:1049400001006C4908620846006A20F00400086211
:1049500019E0E06805280BD16648006A40F00400C1
:10496000644908620846006A40F0010008620AE0F3
:104970006048006A20F001005E4908620846006A4B
:1049800020F00400086200BFE068B8B3FEF70AFC3C
:10499000054609E0FEF706FC401B41F288318842DB
:1049A00002D90320A4E48BE04020022191FAA1F176
:1049B000B1FA81F108430121B1EB601F02D14D48EA
:1049C00000681EE04020022191FAA1F1B1FA81F1C4
:1049D00008430221B1EB601F02D14648006A10E093
:1049E0004020022191FAA1F1B1FA81F1084304219A
:1049F000B1EB601F03D13F48406802E010E03D4842
:104A0000406A4021022292FAA2F2B2FA82F21143E3
:104A100001F01F020121914008400028BAD046E071
:104A2000FEF7C0FB054608E0FEF7BCFB401B41F269
:104A30008831884201D903205AE44020022191FAAA
:104A4000A1F1B1FA81F108430121B1EB601F02D15C
:104A5000284800681DE04020022191FAA1F1B1FA36
:104A600081F108430221B1EB601F02D12148006AA5
:104A70000FE04020022191FAA1F1B1FA81F108433F
:104A80000421B1EB601F02D11A48406801E01948C7
:104A9000406A4021022292FAA2F2B2FA82F2114353
:104AA00001F01F020121914008400028BCD1012FD4
:104AB00005D11048C06920F080500E49C86100BF80
:104AC000E069002874D00B48406800F00C0008280A
:104AD0006FD0E06902286DD100204FF0807191FA0B
:104AE000A1F1B1FA81F1044A42F82100FEF75AFB24
:104AF00005460CE0001002400000424200700040F9
:104B0000FEF750FB401B022801D9032047E4202078
:104B1000010591FAA1F1B1FA81F108430121B1EB4C
:104B2000601F02D1774800681DE02020010591FA3E
:104B3000A1F1B1FA81F108430221B1EB601F02D16A
:104B40007048006A0FE02020010591FAA1F1B1FA46
:104B500081F108430421B1EB601F02D1694840682C
:104B600001E06848406A20210A0592FAA2F2B2FAEE
:104B700082F2114301F01F020121914008400028F8
:104B8000BED1D4E9081008435E49496821F4741184
:104B900008435C4948600120010691FAA1F1B1FA8D
:104BA00081F1594A42F82100FEF7FCFA054609E076
:104BB000A5E092E041E0FEF7F5FA401B022801D99A
:104BC000032038E42020010591FAA1F1B1FA81F126
:104BD00008430121B1EB601F02D14A4800681DE083
:104BE0002020010591FAA1F1B1FA81F108430221D7
:104BF000B1EB601F02D14348006A0FE0202001059D
:104C000091FAA1F1B1FA81F108430421B1EB601FDF
:104C100002D13C48406801E03A48406A20210A0538
:104C200092FAA2F2B2FA82F2114301F01F020121BC
:104C3000914008400028BED061E000204FF0807114
:104C400091FAA1F1B1FA81F12F4A42F82100FEF761
:104C5000A9FA054606E0FEF7A5FA401B022801D98D
:104C600003202FE42020010591FAA1F1B1FA81F18E
:104C700008430121B1EB601F02D1224800681DE00A
:104C80002020010591FAA1F1B1FA81F10843022136
:104C9000B1EB601F02D11B48006A0FE02020010524
:104CA00091FAA1F1B1FA81F108430421B1EB601F3F
:104CB00002D11448406801E01248406A20210A05E8
:104CC00092FAA2F2B2FA82F2114301F01F0201211C
:104CD000914008400028BED111E0E069012800D1D0
:104CE0007DE40848466806F48031206A814204D198
:104CF00006F47011606A814201D001206FE4002047
:104D00006DE4000000100240000042420246002311
:104D1000106800F1500303EB81031868704710B569
:104D20000023046804F1500303EB81031A6010BDF3
:104D300070B505460B4616460024286840680E49A3
:104D400000EA0104200CD870C4F30420587004F069
:104D50003F009870C4F3423018705EB9D87804F000
:104D6000B9FBD870587804F0B5FB5870987804F007
:104D7000B1FB9870002070BD3FFFFF0070B5044686
:104D80000B46164600252068806A58602068006936
:104D9000C0F30E009860206800680F4900EA010522
:104DA000C5F305401870C5F30620587005F07F0064
:104DB000987005F48000000CD8705EB9187804F083
:104DC00089FB1870587804F085FB5870987804F0C7
:104DD00081FB9870002070BD7F7F7F0010B5044676
:104DE0000CB9012010BD607F20B90020207720463B
:104DF00000F060F80220607700BFCA202168486296
:104E000053202168486200BF204604F07BFB40B17C
:104E100000BFFF202168486200BF042060770120A6
:104E2000E0E720688068224908402168886021699D
:104E300060680843616908432168896808432168FC
:104E400088602168E068086120680169208941EA7A
:104E50000040216808612068C06820F08000216857
:104E6000C8602068806800F0200060B9204600F02B
:104E700033FA40B100BFFF202168486200BF042020
:104E800060770120AEE72068006C20F48020216864
:104E900008642068006CA16908432168086400BFA9
:104EA000FF202168486200BF01206077002099E759
:104EB000BFFF8FFF074A016891420AD10121CA034F
:104EC00092FAA2F2B2FA82F2034B03EB8202C2F828
:104ED0000014704700280040000042422DE9F047CE
:104EE00004460D4616460027B846B94600BF207F47
:104EF000012802D10220BDE8F0870120207700BF01
:104F00000220607746BB2068806800F0400000B156
:104F100002E00020E87000BFE86900B900E000BFCF
:104F2000287804F0E2FA0304687804F0DEFA43EA31
:104F30000023A87804F0D9FA0343E87843EA004351
:104F400095F8200004F0D1FA43EA0060E9690843CB
:104F5000696940EA01081FE02068806800F04000AD
:104F600000B102E00020E87000BFE86900B900E08D
:104F700000BF28780004697840EA0120A978084336
:104F8000E97840EA014095F8201040EA0160E969BB
:104F90000843696940EA0108A969686840EA0109AB
:104FA00000BFCA202168486253202168486200BFC0
:104FB000686AB0F5807F35D12068806820F4807001
:104FC000216888602068806820F4805021688860AB
:104FD000FEF7E8F8074612E0FEF7E4F8C01BB0F56C
:104FE0007A7F0CD900BFFF202168486200BF0320F0
:104FF000607700BF0020207700BF03207BE7206898
:10500000C06800F001000028E6D02068C0F81C80CD
:105010002068C0F844902068806840F4807021685F
:10502000886034E02068806820F40070216888601F
:105030002068806820F4005021688860FEF7B2F88C
:10504000074612E0FEF7AEF8C01BB0F57A7F0CD928
:1050500000BFFF202168486200BF0320607700BFC7
:105060000020207700BF032045E72068C068C0F318
:1050700040000028E6D02068C0F820802068C0F8F2
:1050800048902068806840F400702168886000BF04
:10509000FF202168486200BF0120607700BF002028
:1050A000207700BF00BF26E72DE9F04104460D46FA
:1050B0001646002700BF207F012802D10220BDE84C
:1050C000F0810120207700BF022060774EB9687818
:1050D00000F01000102804D1687800F0EF000A30CA
:1050E000687086B9E87804F000FA0304687804F080
:1050F000FCF943EA0023A87804F0F7F90343287881
:1051000043EA403709E0E8780004697840EA012082
:10511000A9780843297840EA413700BFCA202168AE
:10512000486253202168486200BF204604F0EAF933
:1051300060B100BFFF202168486200BF0420607793
:1051400000BF0020207700BF0120B8E71648384094
:10515000216848602068C06820F080002168C8602D
:105160002068806800F0200080B9204600F0B4F884
:1051700060B100BFFF202168486200BF0420607753
:1051800000BF0020207700BF012098E700BFFF206C
:105190002168486200BF0120607700BF00202077AF
:1051A00000BF00BF8BE700003FFFFF002DE9F0418B
:1051B00004460D461646002700BF207F012802D175
:1051C0000220BDE8F0810120207700BF0220607737
:1051D000CEB92068806800F0400000B102E00020F5
:1051E000E87000BF287804F080F90304687804F0C0
:1051F0007CF943EA0023A87804F077F90343E878C0
:1052000043EA004712E02068806800F0400000B1E7
:1052100002E00020E87000BF28780004697840EAC6
:105220000120A9780843E97840EA014700BFCA2075
:105230002168486253202168486200BF204604F07C
:1052400061F960B100BFFF202168486200BF0420FF
:10525000607700BF0020207700BF0120B1E71D4824
:105260003840216808602068806820F48020216828
:105270008860D5E9030108432168896808432168EB
:1052800088602068C06820F080002168C8602068BD
:10529000806800F0200080B9204600F01DF860B161
:1052A00000BFFF202168486200BF0420607700BF74
:1052B0000020207700BF012083E700BFFF20216886
:1052C000486200BF0120607700BF0020207700BF48
:1052D00000BF76E77F7F7F0070B504460025206819
:1052E000C06820F0A0002168C860FDF75BFF05469C
:1052F00007E0FDF757FF401BB0F57A7F01D9032087
:1053000070BD2068C06800F020000028F1D00020A7
:10531000F6E710B504460CB9012010BD022084F850
:105320005D002068006820F0400021680860204689
:1053300000F088F80020206684F85D0000BF84F843
:105340005C0000BF00BFE8E770B504460CB901205F
:1053500070BD606A38B96068B0F5827F00D105E041
:105360000021E16102E00021216161610021A1626F
:1053700094F85D0028B9002084F85C00204600F015
:105380008FF8022084F85D002068006820F040005B
:1053900021680860E068B0F5E06F01D9002501E000
:1053A0004FF48055E068B0F5706F05D0E068B0F557
:1053B000E06F01D00021A162A08800F482702189F1
:1053C00001F404410843217C01F002010843217DDE
:1053D00001F001010843218B01F400710843217F92
:1053E00001F0380108432021095D01F080010843E4
:1053F000218D01F400510843216808600421A0694F
:1054000001EA104094F8241001F01001084394F8C8
:10541000341001F008010843A18901F470610843C8
:1054200005F480510843216848602068C06920F471
:1054300000602168C86100202066012084F85D00BA
:10544000002085E710B504461149206888420FD135
:105450001048806920F480500E498861C0214FF0C7
:105460009040FDF70DFD08210B48FDF709FD0EE00A
:105470000A49206888420AD10648C06920F4804061
:105480000449C8614FF460410348FDF7F9FC10BDC1
:105490000030014000100240000400480038004085
:1054A00010B586B00446142101A8FAF743FF3D4920
:1054B0002068884245D100BF3B48806940F4805055
:1054C000394988610846806900F48050009000BF27
:1054D00000BF00BF0846406940F4003048610846FC
:1054E000406900F40030009000BF00BF00BF0846D4
:1054F000406940F4802048610846406900F48020FB
:10550000009000BF00BFC020019002200290002048
:105510000390032004900520059001A94FF09040CE
:10552000FDF74AFD08200190022002900020039020
:10553000032004900520059001A91C48FDF73CFDBF
:105540002DE01B492068884229D100BF1648C06958
:1055500040F480401449C8610846C06900F48040A6
:10556000009000BF00BF00BF0846406940F48020A3
:1055700048610846406900F48020009000BF00BFE9
:105580004FF460400190022002900020039003201D
:1055900004900520059001A90448FDF70DFD06B013
:1055A00010BD00000030014000100240000400481F
:1055B000003800402DE9F84F0446884616461D463F
:1055C0004FF0000A00BF94F85C00012802D10220CD
:1055D000BDE8F88F012084F85C0000BFFDF7E2FD14
:1055E0000746B14694F85D00012802D04FF0020A48
:1055F000CBE0B8F1000F00D016B94FF0010AC4E0BB
:10560000032084F85D0000202066C4F83880A68757
:10561000E6872064A4F84400A4F846002065E0640E
:10562000A068B0F5004F0BD12068006820F0400062
:10563000216808602068006840F4804021680860A4
:105640002068006800F04000402805D0206800680D
:1056500040F0400021680860E068B0F5E06F2FD9A5
:10566000606810B1B9F1010F09D1A06B0088216801
:10567000C860A06B801CA063E08F401EE0871BE029
:105680002068806800F0020002280AD1A06B008820
:105690002168C860A06B801CA063E08F401EE0877B
:1056A0000AE0FDF77FFDC01BA84201D3681C00B9CA
:1056B00015B94FF0030A68E0E08F0028E0D14AE016
:1056C000606810B1B9F1010F17D1E08F01280AD934
:1056D000A06B00882168C860A06B801CA063E08F6D
:1056E000801EE08709E0A06B007821680873A06B3A
:1056F000401CA063E08F401EE08729E0206880689E
:1057000000F00200022818D1E08F01280AD9A06B0E
:1057100000882168C860A06B801CA063E08F801E99
:10572000E08715E0A06B007821680873A06B401C2F
:10573000A063E08F401EE0870AE0FDF733FDC01B49
:10574000A84201D3681C00B915B94FF0030A1CE048
:10575000E08F0028D2D13A462946204604F066FB65
:1057600008B120202066A06850B900BF002000903A
:105770002068C068009020688068009000BF00BF6B
:10578000206E08B14FF0010A00BF012084F85D00CF
:1057900000BF002084F85C0000BF504618E7704747
:1057A0007047704730B502460B4600BF92F83C0088
:1057B000012801D1022030BD012082F83C0000BF49
:1057C000022082F83D0010684168106884681D4D11
:1057D0001068A84203D01C4D1068A84203D121F4E0
:1057E00070015868014321F0700118680143106886
:1057F0004160144D1068A84213D01068B0F1804F7A
:105800000FD0124D1068A8420BD0114D1068A8425D
:1058100007D00D4D1068A84203D00E4D1068A84265
:1058200005D124F080049868044310688460012046
:1058300082F83D0000BF002082F83C0000BF00BF9E
:10584000B9E70000002C0140003401400004004092
:10585000000800400040014010B504460CB901208A
:1058600010BD94F83D0028B9002084F83C00204683
:1058700000F029F8022084F83D00211D206805F081
:1058800015FB012084F8480000BF84F83E00012188
:105890003F2001554020015541200155422001552E
:1058A0004320015500BF00BF012084F8440045207B
:1058B0000155462001554720015500BF012084F8BD
:1058C0003D000020CCE77047014691F83D000128DB
:1058D00001D001207047022081F83D000868C068AF
:1058E00040F001000B68D860184B0868984213D04C
:1058F0000868B0F1804F0FD0154B086898420BD064
:10590000144B0868984207D0134B0868984203D09C
:10591000124B0868984210D108688068104B00EA62
:105920000302062A0FD0B2F5803F0CD00868006849
:1059300040F001000B68186005E00868006840F05E
:1059400001000B6818600020C4E70000002C014033
:1059500000040040000800400034014000400140C5
:105960000700010010B504462068B0F1804F1FD138
:105970004FF400614D48FDF7FDFBD0B14C48006885
:10598000006A20F420404A490968086248480068D3
:10599000006A40F400504649096808620020444902
:1059A000096848624348007840F010004149087097
:1059B0007BE00C213E4800F06FFC3F4908803C48EA
:1059C0000068006A20F420403949096808623848B4
:1059D0000068006A3649096808623648007800F0B5
:1059E000100000285BD03348007800F08000E8B356
:1059F00031480088B0F5967F0DDD2F480088B0F55E
:105A0000487F08DA2D48006840002C4908600846A5
:105A10000068086043E028480088B0F5AF6F0FDDEC
:105A200025480088B0F5E16F0ADA24480068400094
:105A3000224908600846006840F0010008602EE036
:105A40001D48008840F69801884228DD1A480088E1
:105A500040F62821884222DA19480078401C18496B
:105A600008701448007800F0F00000E002E01149EE
:105A7000087014E01048008841F2680188420EDD89
:105A80000D48008841F25C21884208DA0948007814
:105A900040F0800007490870002009490870054857
:105AA000007820F010000349087010BD0004004881
:105AB000384600200413002006130020081300209D
:105AC0000C1300202DE9F04104460D461646002730
:105AD00000BF94F83C00012802D10220BDE8F0810B
