:020000040800F2
:10000000983000205D020008171700083D15000811
:10001000151700088D030008431C000800000000AD
:100020000000000000000000000000009D0100082A
:10003000A703000800000000F901000821170008CC
:1000400077020008770200087702000877020008AC
:10005000770200087702000877020008770200089C
:10006000770200087702000877020008770200088C
:10007000770200087702000877020008770200087C
:10008000770200087702000877020008770200086C
:10009000770200087702000877020008770200085C
:1000A00077020008D51700087702000877020008D9
:1000B000770200087702000877020008770200083C
:1000C000770200087702000877020008770200082C
:1000D000770200087702000877020008770200081C
:1000E000A9030008770200087702000877020008D9
:1000F00077020008770200087702000877020008FC
:10010000000000000000000000000000770200086E
:1001100077020008770200087702000877020008DB
:1001200077020008770200087702000877020008CB
:1001300077020008770200080000000000000000BD
:10014000770200087702000877020008000000002C
:10015000000000000000000000000000000000009F
:10016000000000000000000077020008770200088D
:1001700077020008000000000000000000000000FE
:100180000000000077020008DFF80CD000F0ECF867
:1001900000480047831C0008983000202C4B196849
:1001A0000868B0E8F04F80F30988BFF36F8F4FF015
:1001B000000080F3118870470000000008480068C4
:1001C000006880F308884FF0000080F3148862B65E
:1001D00061B6BFF34F8FBFF36F8F00DF00BF00BF6B
:1001E00008ED00E0DFF80C00016841F470010160E7
:1001F000704700BF88ED00E0EFF30980BFF36F8F19
:10020000134B1A681EF0100F08BF20ED108A20E96A
:10021000F04F106009B44FF0500080F31188BFF325
:100220004F8FBFF36F8F02F0EBF84FF0000080F3B9
:10023000118809BC19680868B0E8F04F1EF0100F6B
:1002400008BFB0EC108A80F30988BFF36F8F704746
:1002500028000020EFF30580704700000648804723
:1002600006480047FEE7FEE7FEE7FEE7FEE7FEE79B
:10027000FEE7FEE7FEE7FEE7C51700088901000874
:100280002DE9F05F0546002092469B4688460646CB
:10029000814640241BE0284641464746224600F05E
:1002A00020F853465A46C01A914110D311461846B9
:1002B000224600F04AF82D1A67EB01084F46224605
:1002C0000120002100F041F817EB00094E41201EEB
:1002D000A4F10104DFDC484631462A464346BDE826
:1002E000F09F202A04DB203A21FA02F00021704717
:1002F00021FA02F3D040C2F120029140084319468E
:10030000704740EA01039B0703D009E008C9121FA8
:1003100008C0042AFAD203E011F8013B00F8013BBF
:10032000521EF9D27047D2B201E000F8012B491EEB
:10033000FBD270470022F6E710B513460A46044682
:100340001946FFF7F0FF204610BD202A04DB203AB3
:1003500000FA02F1002070479140C2F1200320FA18
:1003600003F3194390407047064C074D06E0E068E0
:1003700040F0010394E8070098471034AC42F6D3EC
:10038000FFF706FFBC290008DC290008FEE7012072
:1003900001F08AFCFBE7012001F086FCFBE701206D
:1003A00001F082FCFBE7704738B50F4C002000904D
:1003B00020684FF40065000506D50C48006810B1B0
:1003C000694602F0C5F82560284600F025F8009837
:1003D000002807D006494FF080500860BFF34F8FC8
:1003E000BFF36F8F38BD0000140401408800002067
:1003F00004ED00E072B6FEE7054C4FF47A75042177
:10040000204600F0FDF8284601F04EFCF7E700001A
:10041000000C004870470000044910B50A68024209
:1004200002D00860FFF7F6FF10BD00001404014081
:100430002DE9F04FDFF8AC91002309F1040A032500
:100440000AF1040B85B04FF0010C0F270BF1040EDD
:10045000BFE000BF0CFA03F6324075D00C7904F00F
:100460000304012C01D0022C1BD1846800945C0091
:1004700005FA04F80494009C24EA08040094D1F8D6
:100480000C80049C08FA04F8009C48EA0408C0F8B0
:1004900008804468B4430E79C6F300169E40264394
:1004A00046600C79E443A4070AD0C4684FEA4308C5
:1004B00005FA08F6B4438E6806FA08F62643C660C5
:1004C0000C7904F00304022C10D1DC0800EB840446
:1004D0000294246A5E074FEAD66807FA08F6B44326
:1004E0000E6906FA08F62643029C266204684FEA63
:1004F000430805FA08F6B4430E7906F0030606FA37
:1005000008F6264306604C6814F4403F60D0364C31
:10051000A66946F00106A661A46923F0030604F06B
:1005200001040094314C34440294A4689E074FEABD
:10053000167807FA08F6B443B0F1904F05D02C4E68
:10054000B04204D1012612E042E000260FE0294E1D
:10055000B04201D102260AE0274EB04201D1032663
:1005600005E0264EB04201D1042600E0052606FA39
:1005700008F62643029CA660D9F800604C46D1F8E4
:10058000048096435FEAC83800D516432660DAF83F
:1005900000405646D1F8048094435FEA883800D57D
:1005A00014433460DBF800405E46D1F80480944385
:1005B0005FEAC82800D514433460DEF80040764670
:1005C000D1F8048094435FEA882800D5144334604E
:1005D0005B1C0A6832FA03F47FF43CAF05B0BDE857
:1005E000F08F0000000401400010024000000140B4
:1005F0000004004800080048000C004800100048B3
:10060000426921EA02030A4043EA024181617047DC
:100610000AB18161704781627047000001488068BB
:1006200070470000180000200248816802781144D9
:100630008160704718000020074810B5016841F03C
:1006400010010160032000F097F80F2000F006F879
:1006500000F04AF8002010BD0020024030B50546E9
:100660001C4887B0816941F400618161806906A9F5
:1006700000F40060009001A800F040FA00F076FA63
:100680001549164AB0FBF1F11548491E0260416058
:1006900040F2E7320021C0E903218160816100F06E
:1006A0009AFD040012D10E4800F0C8FD04000DD1DF
:1006B000192000F033F8102D07D200222946192006
:1006C00000F03AF80748056000E0012407B0204632
:1006D00030BD00000010024040420F00002C0140DD
:1006E0005C1F00201C0000200B4882B0816941F093
:1006F00001018161816901F001010091C16941F04D
:100700008051C161C069002200F0805000900F212B
:10071000901E02B000F010B800100240002809DB63
:1007200000F01F02012191404009800000F1E0200B
:10073000C0F8001170470000F0B40E4B1B680C4667
:10074000C3F30223C3F10705042D00D90425191DA5
:10075000072901D2002300E0DB1E012606FA05F17D
:10076000491E214099409E40761E16403143F0BC00
:1007700001F068BA0CED00E0064900F007020868D5
:100780004FF6FF03184040EA0220034A1043086076
:10079000704700000CED00E00000FA052DE9F84F6D
:1007A000044600680026804DC0036ED5E869C0008D
:1007B00008D4E86940F08050E861E869012600F05B
:1007C0008050009079480168C90512D401688046BC
:1007D00041F480710160FFF721FF074605E000BF8B
:1007E000FFF71CFFC01B642835D8D8F80000C005EF
:1007F000F6D5286A10F4407053D0A18801F44071F6
:1008000081424ED0286A4FF4803191FAA1F2B2FAB7
:1008100082F29700664A4FF00108174420F44070B6
:10082000C7F8008491FAA1F1B1FA81F102EB8101DC
:100830000023C1F800342862C00732D0FFF7EEFE73
:10084000074641F2883A4FF0020907E0FFF7E6FE5B
:10085000C11B514502D90320BDE8F88F99FAA9F0D0
:10086000B0FA80F040F040024946B8EB521F01D187
:100870002A680CE091FAA1F2B2FA82F242F0400248
:10088000B1EB521F02D12A6A01E015E06A6A99FAB7
:10089000A9F1B1FA81F101F01F0108FA01F0024259
:1008A000D4D0286A616820F44070084328621EB1E1
:1008B000E86920F08050E8612078C00705D0286BF7
:1008C000A16820F00300084328632078800705D53D
:1008D000286BE16820F44030084328632078400703
:1008E00005D5286B216920F440200843286320782F
:1008F000800605D5286BE16920F0100008432863C5
:100900002068800305D56868A16B20F48000084347
:1009100068602078400605D5286B216A20F0200009
:10092000084328632078000705D5286B616920F407
:100930004010084328632078C00605D5286BA169BC
:1009400020F44000084328632088800505D56868A6
:10095000E16A20F40000084368602078000605D5AD
:10096000E86A616A20F4F8700843E8622088C005EC
:1009700005D5E86AA16A20F478500843E862208827
:10098000C00405D5286B216B20F4807008432863D0
:100990002088800405D5286B616B20F40070084323
:1009A0002863002058E7000000100240007000405B
:1009B000000042422DE9F0470F46050069D04A4E3B
:1009C000306800F00700B84209D2306820F0070014
:1009D00038433060306800F00700B84259D12878B9
:1009E000424C800705D56068A96820F0F0000843F4
:1009F00060602878C0073DD06968012001290DD0CA
:100A0000022923D05FF0020393FAA3F2B2FA82F232
:100A100042F02002520904D0226803E04FF4003370
:100A2000F2E7626A93FAA3F3B3FA83F303F01F03C6
:100A3000984002422DD0606820F0030008436060B7
:100A4000FFF7ECFD804641F288390CE04FF000736F
:100A5000DAE700BFFFF7E2FDA0EB0801494502D944
:100A60000320BDE8F0876068696800F00C00B0EB17
:100A7000810FEFD1306800F00700B8420BD9306821
:100A800020F0070038433060306800F00700B842BB
:100A900001D00120E5E72878400705D56068E968BE
:100AA00020F4E060084360602878000706D560689D
:100AB000296920F4605040EAC100606000F06EF8DF
:100AC0006168F02292FAA2F201F0F001B2FA82F229
:100AD000D140074A515CC840064908600648006892
:100AE000FFF7BCFD0020BCE70020024000100240E0
:100AF00064290008240000201C0000200F2202604E
:100B00000C4A536803F003034360536803F0F00397
:100B10008360536803F4E063C36052684FF4E0639A
:100B200003EAD20202610448006800F0070008608E
:100B300070470000001002400020024008480949A8
:100B4000006849684FF4E06292FAA2F201F4E061B1
:100B5000B2FA82F2D140044A515CC84070470000AA
:100B600024000020001002407429000808480949A8
:100B7000006849684FF4605292FAA2F201F46051A1
:100B8000B2FA82F2D140044A515CC840704700007A
:100B9000240000200010024074290008164A10B5F5
:100BA0005168164801F00C03042B20D0082B1ED1ED
:100BB0004FF4701494FAA4F401F47013B4FA84F4AA
:100BC000E3400F4CD26AE45C0F2393FAA3F302F0E4
:100BD0000F02B3FA83F3DA40094B1033C9039A5C6E
:100BE00006D500231946FFF74BFBA0FB040110BDFF
:100BF0000448A4FB000110BD0010024000127A005E
:100C00004429000800093D002DE9F84F050071D086
:100C10002878FC4EC0074FF0010425D070686704A7
:100C2000C0F38100012807D07068C0F3810002285A
:100C30001BD17068C00318D597FAA7F0B0FA80F0FE
:100C400040F02000400901D0306800E0706A97FA57
:100C5000A7F1B1FA81F101F01F0104FA01F1084294
:100C600065D068680028D2D061E06868B0F5803F40
:100C70000BD010B1B0F5A02F17D0306820F4803021
:100C80003060306820F4802002E0306840F480302A
:100C90003060F06AA96820F00F000843F0626868CD
:100CA00020B3FFF7BBFC80460AE0306840F48020A8
:100CB0003060EAE7FFF7B2FCA0EB0800642871D8C7
:100CC00097FAA7F0B0FA80F040F02000400901D078
:100CD000306800E0706A97FAA7F1B1FA81F101F08B
:100CE0001F0104FA01F10842E4D020E0FFF796FC6E
:100CF000804607E0C2E000BFFFF790FCA0EB0800D1
:100D00006428DCD897FAA7F0B0FA80F040F0200011
:100D1000400901D0306800E0706A97FAA7F1B1FA93
:100D200081F101F01F0104FA01F10842E4D12878B1
:100D3000DFF8D48280074FF0000A4FF0020730D569
:100D400070684FF0F80B10F00C0F07D07068C0F30C
:100D50008100022827D17068C00324D497FAA7F035
:100D6000B0FA80F040F02000400901D0306800E087
:100D7000706A97FAA7F1B1FA81F101F01F0104FA44
:100D800001F1084202D02869012877D130689BFA26
:100D9000ABF220F0F8016869B2FA82F290400143A8
:100DA00031605AE064E1286988B394FAA4F0B0FA9B
:100DB00080F048F82040FFF731FC814606E000BF94
:100DC000FFF72CFCA0EB090002289AD897FAA7F0AD
:100DD000B0FA80F040F02000400901D0306800E017
:100DE000706A97FAA7F1B1FA81F101F01F0104FAD4
:100DF00001F10842E4D030689BFAABF26969B2FABB
:100E000082F220F0F80091400843306025E0FFE7CF
:100E100094FAA4F0B0FA80F048F820A0FFF7FEFBA7
:100E2000814605E0FFF7FAFBA0EB09000228CCD8C9
:100E300097FAA7F0B0FA80F040F02000400901D006
:100E4000306800E0706A97FAA7F1B1FA81F101F019
:100E50001F0104FA01F10842E4D1287800076CD59B
:100E6000A869A8B394FAA4F0B0FA80F008EB800067
:100E7000C0F88044FFF7D2FB814607E0A4E100BF41
:100E8000FFF7CCFBA0EB090002289ED897FAA7F049
:100E9000B0FA80F040F06000B4EB501F01D1306830
:100EA0000BE097FAA7F0B0FA80F040F06000B7EBE3
:100EB000501F01D1306A00E0706A97FAA7F1B1FAC9
:100EC00081F101F01F0104FA01F21042D8D034E0A0
:100ED000FFE794FAA4F1B1FA81F108EB8101C1F8BE
:100EE00080A4FFF79BFB814606E000BFFFF796FB5F
:100EF000A0EB090002289AD897FAA7F0B0FA80F080
:100F000040F06000B4EB501F01D130680BE097FA5D
:100F1000A7F0B0FA80F040F06000B7EB501F01D1AD
:100F2000306A00E0706A97FAA7F1B1FA81F101F036
:100F30001F0104FA01F21042D8D12878400768D581
:100F4000F0694FF00009C00009D4F06940F080500A
:100F5000F061F0694FF0010900F0805000902B48DB
:100F60000168C90512D4016841F480710160FFF77E
:100F700055FB834606E000BFFFF750FBA0EB0B00DC
:100F8000642875D821480068C005F5D5E8680128AF
:100F90000AD008B1052811D0306A20F00100306273
:100FA000306A20F0040002E0306A40F00100306254
:100FB000E86868B3FFF732FB83460DE0306A40F023
:100FC00004003062F0E700BFFFF728FBA0EB0B0145
:100FD00041F2883081424BD897FAA7F0B0FA80F0FE
:100FE00040F04000B4EB501F01D1306813E097FA95
:100FF000A7F0B0FA80F040F04000B7EB501F09D1E5
:10100000306A08E0001002400000424200700040D8
:101010000CE040E0706A97FAA7F1B1FA81F101F0B3
:101020001F0104FA01F21042CED02DE0FFF7F6FACC
:10103000834607E0FFF7F2FAA0EB0B0141F288309C
:10104000814215D897FAA7F0B0FA80F040F040003E
:10105000B4EB501F01D130680CE097FAA7F0B0FA5A
:1010600080F040F04000B7EB501F02D1306A01E041
:1010700083E0706A97FAA7F1B1FA81F101F01F01DC
:1010800004FA01F21042D5D1B9F1000F03D0F06992
:1010900020F08050F061E86980B37168C1F381018C
:1010A000022977D04FF080714F000228504609D0B6
:1010B00091FAA1F1B1FA81F148F82100FFF7AEFAF7
:1010C00005465DE0894691FAA1F1B1FA81F1C24687
:1010D00048F82100FFF7A2FA804605E0FFF79EFAE4
:1010E000A0EB0800022848D897FAA7F0B0FA80F0E1
:1010F00040F02000400902D0306801E066E0706AEC
:1011000097FAA7F1B1FA81F101F01F0104FA01F198
:101110000842E3D1D5E908100843716821F474113D
:101120000843706099FAA9F0B0FA80F04AF82040BC
:10113000FFF774FA054604E0FFF770FA401B022837
:101140001BD897FAA7F0B0FA80F040F020004009D1
:1011500001D0306800E0706A97FAA7F1B1FA81F126
:1011600001F01F0104FA01F10842E5D02EE000BFB2
:10117000FFF754FA401B022802D90320BDE8F88F7C
:1011800097FAA7F0B0FA80F040F02000400902D0B2
:10119000306801E00BE0706A97FAA7F1B1FA81F1CB
:1011A00001F01F0104FA01F10842E1D10EE001282B
:1011B000E4D070682A6A00F48031914204D1696AEF
:1011C00000F47010884201D00120D7E70020D5E755
:1011D00070477047704710B5040003D094F83D0085
:1011E00010B107E0012010BD002084F83C0020462B
:1011F00000F022F8022084F83D00211D206800F054
:10120000EFFA012084F8480084F83E0084F83F009B
:1012100084F8400084F8410084F8420084F84300D8
:1012200084F8440084F8450084F8460084F84700B8
:1012300084F83D00002010BD7047000090F83D107C
:10124000012901D001207047022180F83D1001687A
:10125000CA6842F00102CA600068104988420ED094
:10126000B0F1804F0BD00E49884208D00D4988421A
:1012700005D00D49884202D00C49884207D18168C7
:101280000B4A1140062906D0B1F5803F03D0016812
:1012900041F001010160002070470000002C014076
:1012A00000040040000800400034014000400140BC
:1012B00007000100704770B50446006801694FF0EF
:1012C0000005C943890715D4C168C943890711D4EA
:1012D000E91E01610120207720688069800720468F
:1012E00002D0FFF7E7FF04E000F0A7F8204600F087
:1012F000A5F8257720680169C943490717D4C16853
:10130000C943490713D46FF004010161022020771B
:101310002068806910F4407F204602D0FFF7CAFFA2
:1013200004E000F08AF8204600F088F8257720686D
:101330000169C943090716D4C168C943090712D412
:101340006FF008010161042020772068C0698007E0
:10135000204602D0FFF7AEFF04E000F06EF8204612
:1013600000F06CF8257720680169C943C90617D4D5
:10137000C168C943C90613D46FF010010161082088
:1013800020772068C06910F4407F204602D0FFF724
:1013900091FF04E000F051F8204600F04FF8257767
:1013A00020680169C943C90708D1C168C943C90791
:1013B00004D1891E0161204600F042F820680169CD
:1013C000C943090609D4C168C943090605D46FF0A9
:1013D000800101612046FFF7FCFE20680169C943D6
:1013E000C90509D4C168C943090605D46FF48071E1
:1013F00001612046FFF7ECFE20680169C9434906F8
:1014000009D4C168C943490605D46FF040010161A0
:10141000204600F01FF820680169C94389060BD4F3
:10142000C168C943890607D46FF0200101612046D5
:10143000BDE87040FFF7CEBE70BD7047704700003A
:1014400000680349884201D1FFF7EEB870470000F9
:10145000002C0140704710B5040002D0A06F10B1FD
:1014600007E0012010BD002084F87400204600F041
:1014700025F82420A0672068016821F0010101609F
:10148000204600F097FA0128ECD0606A10B120469F
:1014900000F0FEF92068416821F490414160206825
:1014A000816821F02A0181602068016841F0010112
:1014B00001602046BDE8104000F04EBAF0B587B09C
:1014C000044614216846FEF735FF19492068884212
:1014D0002BD11848C16941F40031C161C16901F4DF
:1014E00000310591416941F400314161416901F4E4
:1014F00000310591416941F4802141614069022434
:1015000000F48020059004200025032607278DE89D
:10151000F10069464FF09040FEF78AFF10208DE8F9
:10152000F10069460448FEF783FF07B0F0BD0000F4
:10153000004400400010024000040048FEE7012083
:1015400000F0B2FBFBE7000010B5AAB01C22214955
:101550006846FEF7D6FE0021684600F0B1FB1E4C3F
:101560001C491C2220601C3107A8FEF7CAFE00217E
:1015700007A800F0A5FB174960601C2238310EA8AF
:10158000FEF7BFFE00210EA800F09AFB1149A060F3
:101590001C22543115A8FEF7B4FE002115A800F056
:1015A0008FFB0C49E0601C2270311CA8FEF7A9FEDD
:1015B00000211CA800F084FB064920611C228C310C
:1015C00023A8FEF79EFE002123A800F079FB6061AE
:1015D0002AB010BD9C280008000000202DE9F0472B
:1015E00086B014216846FEF7A5FE3848416941F4EB
:1015F00000214161416901F400210591416941F4F3
:1016000080014161416901F480010591416941F422
:1016100000314161416901F400310591416941F4B2
:1016200080114161416901F480110591416941F4E2
:101630008021416140694FF4004400F480204FF064
:1016400090480590002221464046FEF7E1FF012226
:10165000DFF87C90970239464846FEF7D9FFDFF85D
:1016600074A0002204215046FEF7D2FF009401AA84
:1016700001240025032682E8700069464046FEF7F3
:10168000D7FE01AA009782E8700069464846FEF737
:10169000CFFEE00200904FF40410CDE9010469464A
:1016A0004846FEF7C5FE04208DE8710069465046A5
:1016B000FEF7BEFE002201212820FFF73DF828207A
:1016C000FFF72CF806B0BDE8F087000000100240DC
:1016D00000080048000C00480D4810B50B49016097
:1016E0004FF4E1314160002181600C22C160C0E90A
:1016F00004128161C16101624162FFF7ACFE002802
:1017000003D0BDE81040FEF775BE10BD0044004098
:10171000D81E0020FEE7FEE7012000F0C5FAFBE737
:1017200010B5502080F31188BFF34F8FBFF36F8F38
:1017300000F0B4FF18B104494FF080500860002059
:1017400080F3118810BD000004ED00E030B59FB0BB
:1017500028216846FEF7EEFD142119A8FEF7EAFDE0
:101760003C210AA8FEF7E6FD01210804CDE900109E
:101770000025029502240491CDE907404FF4E010C2
:1017800009906846FFF740FA08B172B6FEE719A95A
:101790000F2081E831004FF48060CDE91C05022163
:1017A00019A8FFF707F908B172B6FEE70AA80D9568
:1017B0000A94FEF7F3FF002801D072B6FEE71FB0CF
:1017C00030BD00000248016841F4700101607047BB
:1017D00088ED00E00148FFF76EBD00005C1F0020AF
:1017E0002DE9F0430268234B234D244E244C4FF047
:1017F0008049984207D0484505D0A84203D0B0425E
:1018000001D0A04203D122F070074A683A431D4F2D
:10181000DFF874C0DFF8748098420DD048450BD0D3
:10182000A84209D0B04207D0A04205D0B84203D0A8
:10183000604501D0404503D122F44075CA682A436F
:101840004D6922F080022A4302608A68C2620A68F7
:101850008262984207D0A04205D0B84203D06045CA
:1018600001D0404501D10969016301214161BDE811
:10187000F0830000002C01400004004000080040FC
:101880000034014000400140004401400048014054
:1018900090F82410C90706D001684A68836A22F4C8
:1018A00000321A434A6090F82410890706D501686F
:1018B0004A68C36A22F480321A434A6090F82410BE
:1018C000490706D501684A68036B22F480221A434F
:1018D0004A6090F82410090706D501684A68436BEE
:1018E00022F400421A434A6090F82410C90606D533
:1018F00001688A68836B22F480521A438A6090F8E8
:101900002410890606D501688A68C36B22F4005248
:101910001A438A6090F82410490611D501684A6874
:10192000036C22F480121A434A60016CB1F5801FE7
:1019300006D101684A68436C22F4C0021A434A6027
:1019400090F82410090606D501684A68806C22F4D4
:10195000002202434A607047F8B500260446C0F8EA
:101960008060FEF75BFE0546206800686FF07E47EA
:10197000000708D52B4600224FF40011204600979F
:1019800000F0FCF860B92068006840070AD52B46D3
:1019900000224FF480012046009700F0EFF808B1D4
:1019A0000320F8BD2020A067E067266684F87460F5
:1019B0000020F8BD70B5044680682169E2690843DB
:1019C00061690025114322680843116849F20C63DC
:1019D00099430143116020684168E26821F4405155
:1019E00011434160216AA06901432068826822F4A2
:1019F00030620A4382605A4A20685A4990420CD1A8
:101A0000086B10F0030006D001285FD002285FD0D9
:101A1000032845D158E0012143E0534A90420DD1BB
:101A2000086B10F440304DD0B0F5803F4ED0B0F58B
:101A3000003F4DD0B0F5403F32D145E04B4A904297
:101A40000DD1086B10F440203CD0B0F5802F3DD074
:101A5000B0F5002F3CD0B0F5402F21D134E0444AFE
:101A600090420DD1086B10F440102BD0B0F5801FC0
:101A70002CD0B0F5001F2BD0B0F5401F10D123E0C3
:101A80003C4A90420CD1086B10F440001AD0B0F5DB
:101A9000800F1BD0B0F5000F1AD0B0F5400F13D057
:101AA0001021E3694FF40040334A4FF6EF7683424A
:101AB0002ED109294AD2DFE801F00D10134915494A
:101AC000494918000021ECE70221EAE70421E8E790
:101AD0000821E6E7FFF732F806E0FFF747F803E0F2
:101AE000104602E0FFF75AF888B34100606801EB46
:101AF0005001B1FBF0F081B2A1F11000B04225D845
:101B00004FF6F07201EA0200C1F3420108431FE000
:101B100009291BD2DFE801F005080B1A0D1A1A1A61
:101B20001000FFF70BF806E0FFF720F803E010467F
:101B300002E0FFF733F850B1616800EB5100B0FBF1
:101B4000F1F080B2A0F11001B14201D9012501E00C
:101B50002168C86000206066A066284670BD00004D
:101B6000003801400010024000440040004800409E
:101B7000004C00400050004000127A002DE9F04770
:101B80009A4617460E4604464FF000094FF02008CB
:101B9000089D4AE0681C48D0FEF740FDA0EB0A0013
:101BA000A8422AD84DB32068016849073DD5C069CD
:101BB000C043000539D421684FF4006008622068F2
:101BC00050E8001F21F4D07140E80012002AF6D13D
:101BD0002068083050E8001F21F0010140E80012A1
:101BE000002AF5D1C4F87880C4F87C80C4F88080DD
:101BF00084F874900320BDE8F087216851E8000F55
:101C000020F4D07041E80002002AF6D120680830A4
:101C100050E8001F21F0010140E80012002AF5D130
:101C2000C4F87880C4F87C80E2E72068C06936EAAE
:101C3000000004D00020B842ACD00020DBE7012037
:101C4000F9E7FEE70907090E002804DB00F1E020B0
:101C500080F80014704700F00F0000F1E02080F8D9
:101C6000141D704702E008C8121F08C1002AFAD1EB
:101C700070477047002001E001C1121F002AFBD10C
:101C80007047FEF7D9FCFFF761FDFFF7A7FCFFF7F0
:101C900023FDFFF759FC00F00EF8FEE70146002097
:101CA000842900D0C81C704710B500B9012000F08D
:101CB00043FB002010BD10B500F064FB002010BDF8
:101CC0007FB50D4604464169B0F9080081B1A169AC
:101CD00071B1FFF7E3FFD4E905128DE80700D4E9FD
:101CE00000102B46226900F0AEFC039004B070BDDA
:101CF000FFF7D4FF03A9CDE90001208A2B4682B269
:101D0000D4E9001000F072FC012801D00020EDE7BA
:101D10000398EBE72DE9F041184C0F46054666693C
:101D20002068001D00F01AFA38B9206890F82C10CD
:101D300001208840A1698143A161681C07D137B1A6
:101D40002168BDE8F0410E48091D00F04BBA20683B
:101D50003544B5424560216805D2A068BDE8F04130
:101D6000091D00F027BA6068091D00F023FA206BF6
:101D7000854200D22563BDE8F081000028000020E4
:101D8000842000202DE9F041054600F037FA2E4C62
:101D90002069401C206120682C4F10B1E06940B3DD
:101DA0002DE025602069012829D1002606EB860058
:101DB00007EB800000F0F0F9761C072EF6D32348DD
:101DC0008C3000F0E9F92148A03000F0E5F91F4817
:101DD000B43000F0E1F91D48C83000F0DDF91B48CF
:101DE000DC3000F0D9F919488C3060601430A06004
:101DF00005E02068E96AC06A884200D82560E06A88
:101E0000401CE062E96A0120A26988401043A06199
:101E100001EB810007EB8000291D00F0E3F900F0E1
:101E20000DFAE06900280CD02068E96AC06A88428F
:101E300007D207494FF080500860BFF34F8FBFF3C0
:101E40006F8FBDE8F081000028000020A81F00204F
:101E500004ED00E010B5044690F8510058B1012897
:101E60000CD002280FD0502080F31188BFF34F8F81
:101E7000BFF36F8FFEE7206B00F0F4F92046BDE85A
:101E8000104000F0EFB910BD10484FF44061420718
:101E900006D0C01D0D4920F00700411AC1F5406170
:101EA0000B4A00230144C2E900030839103A21F02B
:101EB000070111604B600B600B1AC0E900139360BF
:101EC0004FF000405360D060704700009820002021
:101ED00074000020144E154CA6F1C8074FF080582E
:101EE000DFF84C9012E000BF00F088F9F068C56898
:101EF000281D00F033F92069401E2061E068401E73
:101F0000E06000F09BF92846FFF7A4FFE068002896
:101F1000EAD138680128F9D9C9F80080BFF34F8F9A
:101F2000BFF36F8FF2E70000702000202800002030
:101F300004ED00E02DE9F0479A46DDE90984814689
:101F40006FF00303206B03EB82021044089D20F026
:101F50000706700707D0502080F31188BFF34F8F1A
:101F6000BFF36F8FFEE723180A5C83F834200A5C06
:101F700012B1401C1028F6D3002784F84370072DB7
:101F800000D30625E562C4E91157201D00F00FF9C2
:101F900004F1180000F00BF92461C5F10700646238
:101FA000A061E76484F8507052464946304600F01C
:101FB000BFF82060B8F1000F01D0C8F80040BDE8BC
:101FC000F087000030B5114900E011460A688242EE
:101FD000FBD34B685C18844203D1406818444860C6
:101FE000084643681C18944209D1084C103C2468E8
:101FF000A24209D052681A4442600A68126802601C
:10200000814200D0086030BD0460F9E77400002010
:1020100006484168096829B14168C968C9684968C2
:10202000016370474FF0FF31FAE7000028000020FD
:1020300008484068401C4FF0500080F3118804D0DD
:10204000BFF34F8FBFF36F8FFEE7BFF34F8FBFF329
:102050006F8FFEE77C0000202DE9F0410546002748
:1020600000F0C6F9314E306808B9FFF70DFFF0688F
:1020700005424BD1C5B3083568070ED005F00700FF
:10208000C0F108000544680707D0502080F311888C
:10209000BFF34F8FBFF36F8FFEE72DB3706885429C
:1020A00034D82248103001460C6801E020460C4626
:1020B0006168A94202D221680029F7D131688C42B7
:1020C00024D007682168016060680837411B102927
:1020D0000FD96019420708D0502080F31188BFF350
:1020E0004F8FBFF36F8FFEE710E041606560FFF731
:1020F00069FF61687068401A7060B268904200D2EF
:10210000B060F06801430020C4E9000100F064FB06
:10211000780707D0502080F31188BFF34F8FBFF3AB
:102120006F8FFEE73846BDE8F081000064000020B4
:1021300010B5031F4FF080741C601B1F21F00101BC
:102140001960191F044B0B6014390A60091F6FF0E6
:10215000020244380A6010BD31200008D0E9013283
:1021600001699A60D0E901235A604A68824201D12C
:1021700082684A60002202610868401E08600868A0
:1021800070470000034B036003F154000860802097
:1021900010607047841C002000F108014FF0FF32EE
:1021A000C0E90112C1600161002101607047002196
:1021B0000161704730B50B685A1C02D000F108026B
:1021C00002E0026904E02246546825689D42FAD97B
:1021D00053684B6099608A60516008610168491CCE
:1021E000016030BD42684A6093688B6093685960B3
:1021F000916008610168491C01607047502080F3BC
:102200001188BFF34F8FBFF36F8F0A494868401C96
:10221000486001280CD10848006810F0FF0F07D073
:10222000502080F31188BFF34F8FBFF36F8FFEE70D
:10223000704700007C00002004ED00E00849486879
:1022400028B1401E486001D180F3118870475020AA
:1022500080F31188BFF34F8FBFF36F8FFEE700004D
:102260007C00002070B5002827D0144DA0F1080490
:102270006168E868014207D1502080F31188BFF3FC
:102280004F8FBFF36F8FFEE722683AB1502080F383
:102290001188BFF34F8FBFF36F8FFEE781436160FB
:1022A00000F0A6F860686968084468602046FFF797
:1022B00089FEBDE8704000F08FBA70BD6400002058
:1022C0004FF0E02000210161816105494FF47A72ED
:1022D0000968B1FBF2F1491E4161072101617047B4
:1022E0002400002010B5FDF7B5FF114910280ED3CA
:1022F00000F1E02090F8F0030A78904207D25020D5
:1023000080F31188BFF34F8FBFF36F8FFEE709484B
:102310000068896800F4E060884207D9502080F3A3
:102320001188BFF34F8FBFF36F8FFEE710BD000022
:102330007C0000200CED00E010B5020014D00F4826
:10234000806B38B1502080F31188BFF34F8FBFF3FB
:102350006F8FFEE700F04CF800211046FFF7DAFC23
:1023600000F03AFA002807D105494FF08050086084
:10237000BFF34F8FBFF36F8F10BD00002800002008
:1023800004ED00E010B586B00024039405AA04A96A
:1023900003A80494FFF7F6FEDDE903010094CDE9FC
:1023A000011000230EA11048059A00F04CF90F49C6
:1023B0000028486311D0502080F31188BFF34F8F5D
:1023C000BFF36F8F4FF0FF3008630120C8614C618D
:1023D00006B0BDE8104000F041B806B010BD0000E6
:1023E00049444C4500000000D51E0008280000208C
:1023F0000248816B491C816370470000280000205F
:102400001448816B11B10121416270470021416282
:102410008169B1FA81F1C1F11F0101EB81020E491D
:1024200051F822306BB101EB820101F108034A68D7
:1024300052684A609A4201D152684A60D16801608C
:102440007047502080F31188BFF34F8FBFF36F8F19
:10245000FEE7000028000020A81F00201CB5374818
:102460000168374A914207D1502080F31188BFF3A9
:102470004F8FBFF36F8FFEE700683149491E8842D6
:1024800007D1502080F31188BFF34F8FBFF36F8FB8
:10249000FEE72C4908780190FF20087008788DF835
:1024A00000009DF800009DF8002000F0F000904230
:1024B00007D0502080F31188BFF34F8FBFF36F8F89
:1024C000FEE79DF80000204B00F050001870072038
:1024D000986005E09DF8002052008DF80020401E15
:1024E0009DF800201206F5D49860032807D05020EC
:1024F00080F31188BFF34F8FBFF36F8FFEE74FF468
:1025000040709860019808700C482030016841F4D0
:1025100070010160016841F070410160FFF7D0FE79
:1025200000205860FDF75EFE0848016841F0404118
:102530000160FDF743FE00201CBD000000ED00E03F
:1025400071C20F4100E400E07C00002034EF00E0A5
:1025500070B50E46040009D0206C78B1502080F38D
:102560001188BFF34F8FBFF36F8FFEE7502080F3CA
:102570001188BFF34F8FBFF36F8FFEE7206848B914
:10258000606838B1502080F31188BFF34F8FBFF3DC
:102590006F8FFEE7FFF7A6FE5020EFF3118580F363
:1025A0001188BFF34F8FBFF36F8FA16BE06B884231
:1025B00018D994F94500491CA163411C04D0401C62
:1025C00084F8450001200EE0606A0028FAD004F18A
:1025D000240000F0C7F80028F4D0002EF2D001202B
:1025E0003060EFE7002085F3118870BD2DE9FF5FB3
:1025F0008346DDE90E87994616468A469000FFF726
:102600002BFD05001CD05420FFF726FD040014D03C
:102610000020256384F85100CDE90240CDE9008710
:102620004B46324651465846FFF784FC2046FFF79A
:10263000A9FB012004B0BDE8F09F2846FFF712FE79
:102640004FF0FF30F6E7F0B585B0DDE90B640A9D89
:10265000A6B1DCB1542700972663022684F85160A6
:10266000002604AFCDE90246CDE90057FFF762FC32
:102670002046FFF787FB049805B0F0BD502080F39B
:102680001188BFF34F8FBFF36F8FFEE7502080F3A9
:102690001188BFF34F8FBFF36F8FFEE72DE9F04135
:1026A0002E4C0027A06B40B1206A401C2062606A5B
:1026B00000B101273846BDE8F0816669761C666185
:1026C00013D16068006838B1502080F31188BFF3DF
:1026D0004F8FBFF36F8FFEE76068A1686160A060F5
:1026E000A06A401CA062FFF793FC206BDFF87080AB
:1026F000864209D36068006880B16068C068C568B8
:10270000686886420DD220632068C06A00EB8001B1
:1027100058F821000128CAD90127C8E74FF0FF3037
:10272000F1E7281DFFF71AFDA86A18B105F1180096
:10273000FFF714FDE86A0121A26981401143A161FC
:1027400000EB800108EB8100291DFFF74BFDE86AD3
:102750002168C96A8842CDD30127CBE72800002031
:10276000A81F00202DE9F041C068C468ACB104F195
:1027700018000746FFF7F2FC154DA86B0126A0B123
:1027800039461448FFF72EFDE06A2968C96A884275
:102790001CD901206E62BDE8F081502080F31188C1
:1027A000BFF34F8FBFF36F8FFEE7201DFFF7D6FCFF
:1027B000E16AAA6906FA01F01043A86101EB810001
:1027C0000449B43901EB8000211DDBE70020E2E77A
:1027D000280000205C2000202DE9F0472C4D00242B
:1027E0002746A86B38B1FFF709FDA86B401EA86308
:1027F000A86B40B146E0502080F31188BFF34F8FA3
:10280000BFF36F8FFEE72969224E0120D1B3A6F1F5
:10281000B40980463068E8B1F068C46804F1180073
:10282000FFF79CFC201DFFF799FCE06AAA6908FAF3
:1028300000F11143A96100EB800109EB8100211D2A
:10284000FFF7D0FCE06A2968C96A8842E2D3C5F87C
:102850002480DFE70CB1FFF7DBFB2C6A44B146466E
:10286000FFF71CFF00B16E62641EF9D100202862E0
:10287000686A38B10849012738070860BFF34F8FED
:10288000BFF36F8FFFF7DAFC3846BDE8F087000032
:10289000280000205C20002004ED00E0A8290008AA
:1028A0001917000800000000000000008000000070
:1028B0008C0000208C0200207C290008F90300080D
:1028C000020000000000000000010000E002002003
:1028D000E0060020B42900083F15000803000000AE
:1028E000000000000001000034070020340B00202D
:1028F0009C2900088F030008000000000000000071
:1029000000020000880B00208813002084290008A2
:102910009F0300080000000000000000000100000C
:10292000DC130020DC170020902900089703000822
:10293000030000000000000000010000301800202B
:10294000301C002002030405060708090A0B0C0DC1
:102950000E0F10100102030405060708090A0B0CEC
:102960000D0E0F1000000000000000000102030423
:102970000607080900000000010203046775695496
:1029800061736B00636F6E74726F6C5461736B0074
:10299000636F6D6D5461736B00000000636F6C6C4E
:1029A0006563745461736B0064656661756C74541F
:1029B00061736B006B65795461736B00DC290008EF
:1029C000000000208C000000641C0008682A000839
:1029D0008C0000200C300000741C00080000000077
:1029E00000000000000000000000000000000000E7
:1029F00000000000010000001000000000000000C6
:102A000000127A000000000000000000000000003A
:102A100000000000000000000000000000000000B6
:102A200000000000000000000000000000000000A6
:102A30000000000000000000000000000000000096
:102A40000000000000000000000000000000000086
:102A5000000000000000000000000000AAAAAAAACE
:082A600000000000000000006E
:040000050800018965
:00000001FF
