:020000040800F2
:10000000905100205D020008DD670008C54C000823
:10001000D9670008491300080182000800000000A9
:100020000000000000000000000000009D0100082A
:100030002114000800000000F901000805750008FF
:1000400077020008770200087702000877020008AC
:10005000770200087702000877020008770200089C
:10006000770200087702000877020008770200088C
:10007000770200087702000877020008770200087C
:10008000770200087702000877020008770200086C
:10009000770200087702000877020008770200085C
:1000A00077020008F175000877020008770200085F
:1000B000017600087702000877020008770200083E
:1000C000770200087702000877020008770200082C
:1000D000770200086D8100087702000877020008A7
:1000E000251400087702000877020008770200084C
:1000F00077020008770200087702000877020008FC
:10010000000000000000000000000000770200086E
:1001100077020008770200087702000877020008DB
:1001200077020008770200087702000877020008CB
:1001300077020008770200080000000000000000BD
:10014000770200087702000877020008000000002C
:10015000000000000000000000000000000000009F
:10016000000000000000000077020008770200088D
:1001700077020008000000000000000000000000FE
:100180000000000077020008DFF80CD000F088FCC7
:1001900000480047A5AB0008905100202C4B19687F
:1001A0000868B0E8F04F80F30988BFF36F8F4FF015
:1001B000000080F3118870470000000008480068C4
:1001C000006880F308884FF0000080F3148862B65E
:1001D00061B6BFF34F8FBFF36F8F00DF00BF00BF6B
:1001E00008ED00E0DFF80C00016841F470010160E7
:1001F000704700BF88ED00E0EFF30980BFF36F8F19
:10020000134B1A681EF0100F08BF20ED108A20E96A
:10021000F04F106009B44FF0500080F31188BFF325
:100220004F8FBFF36F8F0CF081FF4FF0000080F312
:10023000118809BC19680868B0E8F04F1EF0100F6B
:1002400008BFB0EC108A80F30988BFF36F8F704746
:1002500034000020EFF30580704700000648804717
:1002600006480047FEE7FEE7FEE7FEE7FEE7FEE79B
:10027000FEE7FEE7FEE7FEE7DD75000889010008FE
:100280002DE9F05F0546002092469B4688460646CB
:10029000814640241BE0284641464746224600F05E
:1002A00020F853465A46C01A914110D311461846B9
:1002B000224600F0D2F92D1A67EB01084F4622467C
:1002C0000120002100F0C9F917EB00094E41201E62
:1002D000A4F10104DFDC484631462A464346BDE826
:1002E000F09F202A04DB203A21FA02F00021704717
:1002F00021FA02F3D040C2F120029140084319468E
:10030000704740EA01039B0703D009E008C9121FA8
:1003100008C0042AFAD203E011F8013B00F8013BBF
:10032000521EF9D27047D2B201E000F8012B491EEB
:10033000FBD270470022F6E710B513460A46044682
:100340001946FFF7F0FF204610BD421C10F8011BB4
:100350000029FBD1801A7047034611F8012B00F8E1
:10036000012B002AF9D11846704770B5064609F0EE
:1003700083FD046805460A220021304600F0DCF9BE
:100380002C6070BD70B5064609F076FD0468054620
:100390000A220021304600F007FA2C6070BD2DE9DA
:1003A000FE4F804681EA0300C00F0C46009021F00A
:1003B000004123F00045B8EB0200A94105D24046B8
:1003C000214690461C460B46024623F0004010434F
:1003D00047D0270DC7F30A00C3F30A510290401A11
:1003E000019040286BDAC3F3130040F4801B00989F
:1003F000924620B10023D2EB030A63EB0B0B01986A
:100400005946C0F14002504600F027F906460D4615
:1004100050465946019A00F02FF910EB080061414F
:10042000002487EA115284EAE7731A4340D0009A05
:1004300062B3019A012A4FEA075215DC001B61EBF7
:1004400002014FF0004202EA0752CDE90042001CCF
:1004500041F5801132462B4600F034FA03B0BDE876
:10046000F08F40462146F9E7001B61EB0201001CBA
:1004700041F5801300185B412018A2F5001747EBE7
:10048000030140EAD570B6196D4111E06D084FEADD
:10049000360645EAC0754FEA0752001B61EB0201C0
:1004A000001C41F5801149084FEA30000019514104
:1004B00032462B4603B0BDE8F04F00F0F4B9009887
:1004C000012240000023D0EB020263EBE0730098AE
:1004D00021464FEAE074B8EB000061EB0401E9E764
:1004E00083F000435BE781F0004158E72DE9FE4FC0
:1004F00081EA030404F0004421F0004100944FF02D
:10050000000B23F0004350EA01045ED052EA0304DA
:100510005BD0C3F30A54C1F30A552C44A4F2F3345C
:100520000194A0FB0254C1F3130141F48011C3F301
:10053000130343F4801301FB024400FB034E840ABF
:10054000970A44EA815447EA8357A4FB0768029557
:100550008D0A05FB07854FEA932C04FB0C542705F5
:10056000029D4FEA065847EA1637B5EB08056EEBD1
:10057000070C870E920E47EA811742EA8312A7FB07
:100580000201B6EB0B0164EB00042B0D43EA0C33C4
:100590005E1844EB1C50DA465146E7FB0201C5F3F6
:1005A00013044FEA0B3343EA14534FEA0432019C1D
:1005B00043EA0603A4F10C040294009CCDE900B4C4
:1005C00000F080F903B0BDE8F08F00200146F9E7A4
:1005D00000F0004230F000400AD0C10D01F560711A
:1005E000C0F3160042EA0151C208400711437047A8
:1005F00000200146704701F0004330B421F0004173
:1006000050EA010206D00A0DA2F56072C1F313018F
:10061000002A02DC30BC00207047440F44EAC104C9
:10062000C100E01830BC00EBC25000F005B930B595
:100630000B46014600202022012409E021FA02F5A0
:100640009D4205D303FA02F5491B04FA02F528443A
:10065000151EA2F10102F1DC30BD202A04DB203A94
:1006600000FA02F1002070479140C2F1200320FA05
:1006700003F3194390407047202A06DBCB17203A3A
:1006800041FA02F043EAE07306E041FA02F3D04097
:10069000C2F1200291400843194670470FB400236D
:1006A00000B589B00CA900910B996FF00042CB60A6
:1006B0001E4B06931E4B07930423CDE901321D4ABE
:1006C000089202466B46002000F09EFA09B05DF8E1
:1006D00014FB70B586B006464FF0FF300091CDE9AF
:1006E0000101002015460C4604903246694604A8D4
:1006F000FFF7D4FF02460498211825B108B1084637
:1007000000E020462860049800280DD0002A02DD71
:100710000098884208D0081B0094CDE901043246B5
:10072000694604A8FFF7BAFF06B070BD410E000885
:100730005F0E0008CD0A00082DE9F04791460F46EC
:1007400080460446002614F8015B2DB100F0BAF98A
:100750000068405DC007F6D12B2D02D02D2D18D09A
:10076000641E4A463946204600F08AFB27B13968A4
:10077000A14201D1C7F8008071054FF002040BD5EA
:100780004042002803DD09F077FB0460A007BDE8C4
:10079000F08746F48066E4E70028F8DA09F06CFB9D
:1007A00004606FF00040F2E72DE9F04791460E46F5
:1007B00080460446002514F8017B2FB100F082F931
:1007C0000068C05DC007F6D12B2F02D02D2F1ED0A0
:1007D000641E4A463146204600F0A1FB26B132682D
:1007E000A24201D1C6F800806A054FF0020418D574
:1007F0000023D0EB030563EB01025D1B934109DB92
:100800000023D0EB030063EB0101BDE8F08745F462
:100810008065DEE709F030FB046000204FF0004106
:10082000F3E7021E71F10002EFDA09F025FB046024
:100830004FF0FF304108E8E70029A8BF7047401C8F
:10084000490008BF20F00100704710B4B0FA80FCE6
:1008500000FA0CF050EA010404BF10BC704749B123
:10086000CCF1200421FA04F411FA0CF118BF012193
:1008700021430843A3EB0C01CB1D4FEA00614FEA73
:10088000102042BF002010BC704700EBC350104442
:100890000029A4BF10BC7047401C490008BF20F0CD
:1008A000010010BC704710B5141E73F1000408DA83
:1008B000401C41F1000192185B411A4301D120F024
:1008C000010010BD2DE9F04D92469B4611B1B1FAE1
:1008D00081F202E0B0FA80F220329046FFF7BDFECE
:1008E00004460F4640EA0A0041EA0B0153465A46C5
:1008F000084313D0114653EA010019D0C8F1400251
:100900005046FFF7EEFC05460E4650465946424615
:10091000FFF7A3FE084305D0012004E02046394636
:10092000BDE8F08D0020054346EAE0762C433743CE
:100930000A986305E40AA0EB08000022FD0A44EAD5
:1009400047540A3002D500200146E9E70105101995
:100950006941DDE9084500196941BDE8F04DA2E7AC
:100960002DE9F04D81EA030404F0004B21F000452D
:1009700014464FF0000A23F0004150EA050220D04F
:1009800054EA01021DD0C5F30A570246C5F313030A
:10099000C1F31300C1F30A5640F4801543F48013E9
:1009A000A7EB0608101BD64608F2FD3873EB0500CE
:1009B00002D308F1010801E092185B41B8F1000F81
:1009C00003DA00200146BDE8F08D00204FF48011CD
:1009D000064684460EE0171B73EB050705D3121B72
:1009E00063EB050306434CEA010C49084FEA30006B
:1009F00092185B4150EA0107EDD152EA030012D090
:100A000082EA040083EA0501084305D0101BAB41CC
:100A100006D20122002306E000224FF0004302E04C
:100A20006FF0010253101AEB06004CEB085110EB6B
:100A30000A0041EB0B01BDE8F04DFFF734BFC1F3F5
:100A40000A52C1F3130140F2FF3341F480119A427C
:100A500002DA00200146704740F233439A42A2F284
:100A6000334202DC5242FFF73CBCFFF7F6BD000008
:100A700030B5041E71F1000404DB4FF00044404225
:100A800064EB0101141E73F1000405DB1C464FF0FA
:100A90000043524263EB0403994208BF904230BDC9
:100AA000064C074D06E0E06840F0010394E80700BB
:100AB00098471034AC42F6D3FFF76AFBB4600108E4
:100AC000E460010800487047885F010810B50446DB
:100AD000FFF7F8FF0068005D00F0010010BD0000A6
:100AE0002DE9FF4F087883B09946FF2805D0491CAF
:100AF0002D2804D00024002008E000200BE0012471
:100B0000F9E700EB800003EB4000491C0B78FF2B5A
:100B1000F7D104B1404200230293147819461D46D0
:100B20002D2C01D02B2C04D1521C2D2C13D00024A1
:100B30000294AA461478FF2C0FD00A25A3FB05784F
:100B400001FB05814FF0000C03FB0C11521CE31953
:100B50004AEB0101EEE70124EAE7814453EA010090
:100B600002D019F5C87F06DA03980021C0E9001108
:100B700007B0BDE8F08F0025AE4E2F46DFF8B882F3
:100B8000184600F03BFACDE90001B9F1000002DAA5
:100B9000C9F1000400E004460023A74A1AEB030B46
:100BA00042EB045A12E0E00707D02A4633463846A3
:100BB0004146FFF79BFC074688462A4633461046C7
:100BC0001946FFF793FC05460E466410002CEAD147
:100BD000DDE90001B9F1000F5A46534606DAFFF786
:100BE000BFFE3A464346FFF7BBFE05E0FFF77EFC3B
:100BF0003A464346FFF77AFC029A0AB181F0004177
:100C0000039AC2E90001B3E72DE9FF4F1F468DB0FB
:100C1000D7E901464FF0FF382E2045464FF0000936
:100C20000B90B9696D1C0E988847396A82468847CF
:100C30000028F6D1BAF1FF3F0AD024F4D064002E88
:100C400011DDBAF12B0F08D0BAF12D0F0BD102E054
:100C5000404611B08DE744F48064B9696D1C0E986C
:100C600088478246761E6946600501D52D2000E042
:100C70002B208DF8000001F1010B0DF1200809E097
:100C8000B9696D1C0E98884782460F9844F4007429
:100C9000761E0560002E02DDBAF1300FF0D00B9900
:100CA0008A453ED144F0800406E00F99681CA9F102
:100CB000010944F400740860B9696D1C761E0E9831
:100CC000884782463028F0D02BE00B998A4505D121
:100CD000200603D444F08004761E18E0504609F044
:100CE000C9F908B30DF11301761E44F400748B4565
:100CF00008D2AAF130000BF8010B200607D5A9F1A4
:100D0000010003E0200602D409F101008146A0059C
:100D100002D50F99681C0860B9696D1C0E98884748
:100D20008246002ED1DC53E0002E51DDBAF1650F72
:100D300002D0BAF1450F4BD1A00549D5B9696D1C58
:100D400024F44074761E0E9888478246002E0CDDEF
:100D50002B2804D0BAF12D0F07D144F48074B9695F
:100D60006D1C0E9888478246761EE00501D52D2120
:100D700000E02B2108F8011BCDF82C8021E00DF1BB
:100D80002901761E44F4007488450CD2AAF1300083
:100D900010F0FF0088F8000002D10B99884509D9AE
:100DA00008F1010806E0E00501D5244801E042F21F
:100DB0000F708146B9696D1C0E98884782460F985E
:100DC0000560002E04DD504609F054F90028D6D104
:100DD000F9690E988847FF208BF8000088F800001A
:100DE0000020069007904B466A4608A906A8FFF720
:100DF00077FEA00502D46FF001002AE714F0240F5B
:100E00000AD0E00714D1DDE906123868031D3B6003
:100E10000068C0E900120BE0DDE90601FFF7EBFB1B
:100E20000146E00704D13868021D3A60006801609D
:100E300028460EE7000014400000F03FF1D8FFFF05
:100E4000426842B1016811F8013B23B1521EC0E96A
:100E50000012184670470121C160881E7047426821
:100E60005AB1C368016843B983688B4205D0491EF3
:100E7000521CC0E90012002070474FF0FF3070474D
:100E80002DE9F05F82460078002715468B460AF16F
:100E90000104B946302801D09DB113E014F8010BCC
:100EA0000127782803D0582801D045B10AE00DB1B8
:100EB000102D07D10027102514F8010B02E008259A
:100EC00000E00A250026B0460EE005FB080005FB01
:100ED00006F1012701EB10461FFA80F8B6F5803FB6
:100EE00000D3B94614F8010B294600F079F8002820
:100EF000EBDABBF1000F05D00FB1641E00E05446E1
:100F0000CBF80040B9F1000F06D008F0B5FF022180
:100F10000160C81EBDE8F09F48EA0640FAE72DE9E7
:100F2000F74F4FF00009009C1546CA4614F8010B14
:100F3000302801D0ADB115E014F8010B4FF00109D4
:100F4000782803D0582801D04DB10BE00DB1102DF9
:100F500008D14FF00009102514F8010B02E0082514
:100F600000E00A2500273E46B8464FEAE57B16E03A
:100F7000A5FB07230BFB073105FB080005FB061645
:100F8000030CD71846F100061FFA80F8381E4FF000
:100F9000010976F5803000D3CA4614F8010B2946C2
:100FA00000F01EF80028E3DA019838B1B9F1000F1B
:100FB00001D0641E00E0009C01980460BAF1000FAB
:100FC00008D008F059FF02210160C81E014603B095
:100FD000BDE8F08F310441EA174148EA0740F6E7DF
:100FE0003A2800D2303820F02002412A01D3A2F161
:100FF0003700884201D34FF0FF3070470EB540F202
:10100000334202920022CDE900221346FFF75AFC38
:1010100003B000BD70B58C1810F8015B15F0070324
:1010200001D110F8013B2A1106D110F8012B03E081
:1010300010F8016B01F8016B5B1EF9D12B0705D489
:101040000023521E0DD401F8013BFAE710F8013BD2
:10105000CB1A921C03E013F8015B01F8015B521EEE
:10106000F9D5A142D8D3002070BD00000146084642
:1010700000F02002202A00D1012000F00502052AFC
:1010800000D0012000F00802082A01D0012007E06A
:1010900000F00D020D2A03D100200122014B1A702D
:1010A00070470000A800002070B50024002528200B
:1010B00000F02CFF00F098F884B2B4F5004F03DD87
:1010C000A4F5004084B200E0002439480078401CB8
:1010D0003749087008460078052803D13548048050
:1010E0003548048032480078052816DB3348D0EDB7
:1010F000000A00EE104AB8EE400A30EE800A80ED99
:10110000000A2C480088844201DD2A4804802A48CD
:101110000088844201DA28480480254800780F2896
:1011200041DB2648D0ED000A2248008800EE100A74
:10113000B8EE400A70EEC00A1F48008800EE100AA0
:10114000B8EE400A30EEC00AF2EE020A80EE201A33
:10115000BCEEC10A10EE100A19491A4A127801EBC6
:101160004211088016481749097800EB41100088A1
:101170001349144A127801EB421108821248406860
:1011800010490A780121914008430F4948609FEDBA
:101190000F0A0A4880ED000A002006490880064927
:1011A000088003490870282000F0D2FE70BD0000BE
:1011B000940000209C0000209E0000209800002049
:1011C000744C0020A1000020544C002000000000BE
:1011D00010B5482200EBC003D90000E000BF0B1E91
:1011E000A1F10101FAD110BDF8B500200090002452
:1011F00000260025012291020F4800F0D7FD05E0EE
:10120000681CC5B2C82D01DD3046F8BD4FF4006141
:10121000094800F0B9FD0028F2D1684600F024F832
:101220000098C4B20098000A00902046FFF71EFF05
:1012300000B9009E3046E8E70008004810B50022DB
:101240004FF400414FF0904000F0B0FD0A2000F054
:101250000DFC0122D1034FF0904000F0A7FD642067
:1012600000F004FC10BD00002DE9F04105464FF0F0
:1012700000080024002624E000271EE0640000226D
:101280004FF48061144800F091FD0220FFF7A0FFA9
:1012900001229102104800F089FD0220FFF798FF1B
:1012A0004FF400610C4800F06FFD8046B8F1010F6B
:1012B00001D144F00104781CC7B2082FDEDB701C9A
:1012C000C6B2032ED8DB2C6001229102024800F046
:1012D0006DFDBDE8F08100000008004810B5002455
:1012E0000948006870B10848006809F072FA0446BD
:1012F0000648844201D2012010BD00200249086046
:10130000034908700020F7E704020020C027090005
:101310000802002010B500240948006868B1084898
:10132000006809F056FA04460648844205D204488B
:1013300000680449084402490860002010BD00000C
:1013400004020020E093040000BFFEE70024002513
:1013500000BFFFF773FF0CF0CFFA054622E04FF015
:10136000FF31114800680CF007F901281AD10CF080
:10137000C3FA401B32280FD3FFF796FE0B480C49E7
:10138000097800EB411002880AA1002005F040FB1B
:101390000CF0B2FA054605E0601C84B2B4F57A7F21
:1013A00000DD0024DBE70000A4000020744C0020D6
:1013B000A10000206761735F4368616E6E656C5FBA
:1013C00041445F5265616C3D256C640D0A0000006C
:1013D00000BF0C4890F8020178B10A48B0F800113B
:1013E00005F0B0FE0020074981F80201A1F80001D4
:1013F0004FF480710348FEF79DFF0A2009F005FCB9
:10140000E7E70000F035002000BF0421034800F0AA
:10141000C3FC4FF47A7009F0F8FBF6E7000C0048C3
:101420007047000008B5002000900C48006800F4E8
:10143000006060B14FF40060084908600848006827
:1014400020B16946064800680CF026F808BD4FF444
:10145000006000F0ADFB00BFF8E70000140401409D
:10146000A400002072B600BFFEE7000008B503F03C
:10147000E9FC4FF4784073234FF4A07200210090F0
:10148000084603F050FC4FF4FC6078234FF4A07240
:1014900073210090002003F046FC1F20F0234FF43E
:1014A000A07278210090002003F03DFC03F0E8FFDB
:1014B00009F00EFB642009F0A8FB48F23040F0234D
:1014C0004FF4A0720021009008460AF03DF8002079
:1014D00004F0CAFE0748006840F0100005490860A3
:1014E00000BF0BF051FB05F067F8322009F08DFBCF
:1014F000F7E70000B40000202DE9F04104467048F1
:10150000B4FBF0F00A21B0FBF1F201FB12066D48CA
:10151000B4FBF0F0B0FBF1F201FB120706EB860022
:1015200007EB4000C5B21B2D71D2DFE805F0C50EF8
:10153000151C232A31383F464D545B626971787F10
:10154000868D949BA2A9B0B7BE005F485FA1026ED2
:10155000483008F061FCB0E05B485DA1026E4830A5
:1015600008F05AFCA9E058485AA1026E483008F029
:1015700053FCA2E0544858A1026E483008F04CFCDD
:101580009BE0514855A1026E483008F045FC94E0BC
:101590004D4853A1026E483008F03EFC8DE04A48A9
:1015A00050A1026E483008F037FC86E046484EA154
:1015B000026E483008F030FC7FE043484BA1026ED9
:1015C000483008F029FC78E03F4849A1026E4830D5
:1015D00008F022FC71E03C4846A1026E483008F059
:1015E0001BFC6AE0384844A1026E483008F014FC45
:1015F00063E0354841A1026E483008F00DFC5CE024
:1016000031483FA1026E483008F006FC55E053E037
:101610002D483CA1026E483008F0FEFB4DE02A4800
:1016200039A1026E483008F0F7FB46E0264837A1A2
:10163000026E483008F0F0FB3FE0234834A1026E10
:10164000483008F0E9FB38E01F4832A1026E48300C
:1016500008F0E2FB31E01C482FA1026E483008F090
:10166000DBFB2AE018482DA1026E483008F0D4FBBD
:1016700023E015482AA1026E483008F0CDFB1CE09B
:10168000114828A1026E483008F0C6FB15E00E484C
:1016900025A1026E483008F0BFFB0EE00A4823A1E6
:1016A000026E483008F0B8FB07E0074820A1026E40
:1016B000483008F0B1FB00E000BF00BFBDE8F0819A
:1016C00000E1F50580969800F04500204125640072
:1016D00042256400432564004425640045256400D8
:1016E00046256400472564004825640049256400B8
:1016F0004A2564004B2564004C2564004D25640098
:101700004E2564004F256400502564005125640077
:101710005225640053256400542564005525640057
:101720005625640057256400582564005925640037
:101730005A25640000A070474754512D5A472D3058
:10174000303100007CB500F049FB044600F040FB5E
:10175000054600F037FB0646334604A21921074828
:10176000CDE9005408F040FB04487CBD25303478B6
:10177000253034782530347800000000B046002051
:10178000864800684179303984480068007920280B
:1017900001D1002003E0814800680079303800EB77
:1017A000800001EB40000A2190FBF1F030307C49D1
:1017B00008707A48006841793039784800680079C3
:1017C000202801D1002003E07448006800793038F7
:1017D00000EB800001EB40000A2190FBF1F201FBDD
:1017E000120030306E4948706C48006880786E286E
:1017F00001D1012045E0694800688078622801D164
:1018000002203EE0654800688078722807D165A014
:1018100000784D2801D1032033E0042031E05F48F7
:1018200000688078792801D105202AE05B480068AB
:1018300080786E2801D1062023E05848006880781F
:101840006C2801D107201CE0544800688078672884
:1018500001D1082015E0514800688078702801D136
:1018600009200EE04D4800688078742801D10A20D4
:1018700007E04A4800688078762801D10B2000E014
:101880000C200A2190FBF1F0303045498870434824
:10189000006880786E2801D1012045E03F4800684B
:1018A0008078622801D102203EE03C4800688078C0
:1018B000722807D13BA000784D2801D1032033E0E6
:1018C000042031E0354800688078792801D105206E
:1018D0002AE03248006880786E2801D1062023E093
:1018E0002E48006880786C2801D107201CE02B4826
:1018F00000688078672801D1082015E02748006833
:101900008078702801D109200EE024480068807892
:10191000742801D10A2007E02048006880787628E2
:1019200001D10B2000E00C200A2190FBF1F201FB19
:10193000120030301A49C87018480068C079113058
:10194000087116480068007A113048711348006821
:10195000407A1130887111480068807A1130C8715E
:1019600013480068C078087211480068007948720E
:101970000F480068007888720D4800684078C87287
:101980000B48006880791130087309480068C079F5
:10199000113048730020887308467047AC0000205F
:1019A000D045002044656320323920323032350082
:1019B000B000002000A0704756312E322E320000B9
:1019C000014691F82100022808D00420886300BF56
:1019D000002081F8200000BF0120704708680068DF
:1019E00020F00E000A6810600868006820F001000E
:1019F0000A68106091F8402001209040CA6B506046
:101A0000012081F8210000BF002081F8200000BFE4
:101A100000BFE2E770B50446002594F821000228D3
:101A200003D00420A06301251EE02068006820F098
:101A30000E00216808602068006820F0010021681D
:101A4000086094F8401001208840E16B4860012054
:101A500084F8210000BF002084F8200000BF606BE4
:101A600010B12046616B8847284670BD70B50446AA
:101A700000F0A2F906462546681C10B1044800781B
:101A8000054400BF00F098F9801BA842FAD370BD4E
:101A90002C000020F0B50B46002176E001258D409A
:101AA00005EA0302002A6FD03A4D8E0855F8264009
:101AB0008D072E0F0F25B5402C40B0F1904F01D16E
:101AC000002514E0344DA84201D101250FE0334D2B
:101AD000A84201D102250AE0314DA84201D10325D7
:101AE00005E0304DA84201D1042500E005258E0710
:101AF000360FB540A54221D12B4D2D6895432A4E76
:101B00003560351D2D689543361D3560351D2D68B2
:101B10009543361D3560351D2D689543361D35605E
:101B20008D072E0F0F2505FA06F41A4D8E0855F86D
:101B30002650A543174E8F0846F8275005684F00DA
:101B40000326BE40B5430560CE0800F1200555F8D8
:101B500026504E07F70E0F26BE40B543CF0800F1C2
:101B6000200646F82750C5684F000326BE40B543FF
:101B7000C560466801258D40AE43466085684F00CC
:101B80000326BE40B5438560491C23FA01F5002DAC
:101B900084D1F0BD0800014000040048000800485E
:101BA000000C00480010004800040140704700008D
:101BB00010B5044604480068204020B10248046083
:101BC0002046FFF7F3FF10BD1404014078B503462B
:101BD0000A460021C4E001268E40156805EA060485
:101BE000002C73D0157905F00305012D04D015796B
:101BF00005F00305022D13D198684E000325B5406A
:101C0000A8434E00D568B540284398605868012520
:101C10008D40A8431579C5F300158D4028435860C1
:101C2000157905F00305032D09D0D8684E0003256A
:101C3000B540A8434E009568B5402843D860157953
:101C400005F00305022D13D1CE0803F1200555F848
:101C500026004D07EE0E0F25B540A8434E07F60EA1
:101C60001569B5402843CE0803F1200545F8260044
:101C700018684E000325B540A843157905F0030503
:101C80004E00B54028431860556805F44035002DD6
:101C900065D000BF354DAD6945F00105334EB561E6
:101CA0003546AD6905F00105009500BF00BF4FEA5C
:101CB000B6358E0855F826008D072E0F0F25B54036
:101CC000A843B3F1904F02D1002515E047E0284D1D
:101CD000AB4201D101250FE0264DAB4201D10225D7
:101CE0000AE0254DAB4201D1032505E0234DAB426F
:101CF00001D1042500E005258E07360FB5402843A5
:101D00001F4D8E0845F826001E4D2868A0435568D3
:101D100005F4803505B120431A4D28602D1D286833
:101D2000A043556805F4003505B12043154D2D1D20
:101D300028602D1D2868A043556805F4801505B15D
:101D40002043104D083528602D1D2868A043556894
:101D500005F4001505B120430A4D0C352860491CD7
:101D60001568CD40002D7FF436AF78BD00100240DD
:101D70000004004800080048000C0048001000481B
:101D80000800014000040140024613690B400BB1FA
:101D9000012000E00020704710B5426921EA0203EB
:101DA00002EA010443EA0443836110BD0AB1816180
:101DB00000E0816270470000014800687047000041
:101DC000240000200148006870470000ACF7FF1FA6
:101DD0000148006870470000B0F7FF1F0148006825
:101DE00070470000B4F7FF1F0348006803490978F3
:101DF0000844014908607047240000202C0000209E
:101E000010B50848006840F010000649086003203B
:101E100000F0ECF80F2000F007F800F053F8002075
:101E200010BD000000200240F0B587B00446002637
:101E3000002700BF1E48806940F400601C4988618B
:101E40000846806900F40060009000BF00BF01A94F
:101E500002A800F0D3FB00F00FFC06461548B6FBC5
:101E6000F0F0471E14481549086040F2E731134866
:101E7000C1604760002101618160816101F0CEFE97
:101E8000054695B90D4801F001FF05466DB91920C9
:101E900000F05EF8102C07D200222146192000F035
:101EA00067F80748046000E00125284607B0F0BD48
:101EB0000010024040420F00002C014094380020E6
:101EC0002800002008B500BF0F48806940F00100DD
:101ED0000D4988610846806900F00100009000BF4C
:101EE00000BF00BF0846C06940F08050C861084686
:101EF000C06900F08050009000BF00BF00220F2199
:101F0000901E00F035F808BD0010024010B50146E3
:101F10000846002817DB00F01F0301229A400B4BF4
:101F2000440943F8242000BF00BF00BFBFF34F8F18
:101F300000BF00BF00BF00BF00BF00BFBFF36F8F77
:101F400000BF00BF00BF00BF10BD000080E100E087
:101F500001460846002809DB00F01F0301229A40D1
:101F600043099B0003F1E023C3F8002100BF704741
:101F70002DE9F05F80460D461646002707F060FF0A
:101F8000074639462A46334601F00700C0F1070AE2
:101F9000BAF1040F02D94FF0040A01E0C0F1070AB8
:101FA000D14600F1040ABAF1070F02D24FF0000A3D
:101FB00001E0A0F1030AD4464FF0010A0AFA09FA37
:101FC000AAF1010A0AEA020A0AFA0CFA4FF0010B16
:101FD0000BFA0CFBABF1010B0BEA030B4AEA0B0407
:101FE0002146404607F034FFBDE8F09F00BF00F0F7
:101FF0000702064B19684FF6FF031940044B0B43C9
:1020000043EA0221014B196000BF70470CED00E06C
:102010000000FA0500BF00BF00BF00BF00BFBFF354
:102020004F8F00BF00BF00BF0948006800F4E060A8
:1020300008490843001D0649086000BF00BF00BFF3
:10204000BFF34F8F00BF00BF00BF00BF00BFFDE761
:102050000CED00E00000FA050348006840F48070D1
:10206000014908607047000000700040F8B5044660
:10207000002600250027206800F48030B0F5803F5E
:1020800073D1B048C06900F0805070B900BFAD484E
:10209000C06940F08050AB49C8610846C06900F093
:1020A0008050009000BF00BF0127A748006800F4DF
:1020B0008070B0B9A448006840F48070A2490860FC
:1020C000FFF77AFE064606E0FFF776FE801B6428DF
:1020D00001D90320F8BD9C48006800F480700028F6
:1020E000F2D09848006A00F44075002D6BD0A088AB
:1020F00000F44070A84266D09248006A20F440750F
:102100000121080490FAA0F0B0FA80F08F4A02EBA7
:102110008000C0F800140020090491FAA1F1B1FA7E
:1021200081F102EB8101C1F800048648056205F0E7
:102130000100B8B3FFF740FE064608E0FFF73CFE9B
:10214000801B41F28831884201D90320C2E7402038
:10215000022191FAA1F1B1FA81F108430121B1EB19
:10216000601F03D1774800681FE03BE04020022158
:1021700091FAA1F1B1FA81F108430221B1EB601F9C
:1021800002D17048006A10E04020022191FAA1F1CA
:10219000B1FA81F108430421B1EB601F03D1694812
:1021A000406802E00FE06748406A4021022292FA4C
:1021B000A2F2B2FA82F2114301F01F020121914012
:1021C00008400028BAD05F48006A20F44070616877
:1021D00008435C490862012F04D10846C06920F019
:1021E0008050C861207800F0010038B15548006B7C
:1021F00020F00300A168084352490863207800F0EA
:102200000200022807D14F48006B20F44030E168FB
:1022100008434C490863207800F00400042807D1E3
:102220004848006B20F44020216908434549086371
:10223000207800F02000202807D14248006B20F0D1
:102240001000E16908433F490863206800F400304A
:10225000B0F5003F07D13B48406820F48000A16BF7
:10226000084338494860207800F04000402807D1F2
:102270003448006B20F02000216A0843314908638C
:10228000207800F00800082807D12E48006B20F4C1
:102290004010616908432B490863207800F0100062
:1022A000102807D12748006B20F44000A16908439B
:1022B00024490863208800F40070B0F5007F07D13E
:1022C0002048406820F40000E16A08431D49486046
:1022D000207800F08000802807D11A48C06A20F4D6
:1022E000F870616A08431749C862208800F480705A
:1022F000B0F5807F07D11348C06A20F47850A16AF6
:1023000008431049C862208800F48050B0F5805F0F
:1023100007D10C48006B20F48070216B08430949F9
:102320000863208800F40050B0F5005F07D105482D
:10233000006B20F40070616B0843024908630020C1
:10234000C8E6000000100240007000400000424259
:1023500070B504460D4600260CB9012070BDA24898
:10236000006800F00700A8420ED29F48006820F0E5
:10237000070028439C4908600846006800F00700F1
:10238000A84201D00120E9E7207800F002000228ED
:1023900007D19648406820F0F000A16808439349AF
:1023A0004860207800F0010000287CD06068012897
:1023B0003BD12020010391FAA1F1B1FA81F1084348
:1023C0000121B1EB601F02D1884800681DE0202088
:1023D000010391FAA1F1B1FA81F108430221B1EBB5
:1023E000601F02D18148006A0FE02020010391FAAA
:1023F000A1F1B1FA81F108430421B1EB601F02D1D0
:102400007A48406801E07948406A20210A0392FA3C
:10241000A2F2B2FA82F2114301F01F0201219140AF
:10242000084000287CD1012098E7606802283BD151
:102430002020010591FAA1F1B1FA81F108430121AF
:10244000B1EB601F02D1694800681DE02020010542
:1024500091FAA1F1B1FA81F108430221B1EB601FB9
:1024600002D16248006A0FE02020010591FAA1F133
:10247000B1FA81F108430421B1EB601F02D15B483E
:10248000406801E05948406A20210A0592FAA2F208
:10249000B2FA82F2114301F01F020121914008407B
:1024A000E8BB01205AE758E02020022191FAA1F16F
:1024B000B1FA81F108430121B1EB601F02D14B4811
:1024C00000681DE02020022191FAA1F1B1FA81F10A
:1024D00008430221B1EB601F02D14448006A0FE0BB
:1024E0002020022191FAA1F1B1FA81F108430421DF
:1024F000B1EB601F02D13D48406801E03B48406AB3
:102500002021022292FAA2F2B2FA82F2114301F0E1
:102510001F0201219140084008B901201EE7FFE792
:102520003248406820F00300616808432F49486042
:10253000FFF742FC064608E0FFF73EFC801B41F235
:102540008831884201D9032008E72848406800F014
:102550000C006168B0EB810FEED12348006800F0F9
:102560000700A8420ED92048006820F00700284341
:102570001D4908600846006800F00700A84201D025
:102580000120EBE6207800F00400042807D117486A
:10259000406820F4E060E16808431449486020780E
:1025A00000F00800082808D11048406820F4605066
:1025B000216940EAC1000D49486000F073F80B49F9
:1025C000496801F0F001F02292FAA2F2B2FA82F226
:1025D000D140074A515CC840064908600648006877
:1025E000FFF722FC0020B9E6002002400010024064
:1025F00078DD000830000020280000200F22026053
:102600000D4A526802F0030242600B4A526802F01F
:10261000F0028260084A526802F4E062C260064A30
:10262000526802F46052D2080261044A126802F051
:1026300007020A60704700000010024000200240BC
:1026400001480068704700003000002000B5FFF727
:10265000F7FF0749496801F4E0614FF4E06292FA3C
:10266000A2F2B2FA82F2D140024A515CC84000BDE7
:102670000010024088DD000800B5FFF7E1FF0749C0
:10268000496801F460514FF4605292FAA2F2B2FA32
:1026900082F2D140024A515CC84000BD00100240A5
:1026A00088DD00082DE9F0410024002500270026E0
:1026B000A0461F48446804F00C0078B3042802D0F8
:1026C00008282CD102E0DFF86C802CE004F47010B4
:1026D0004FF4701191FAA1F1B1FA81F1C840164995
:1026E0000E5C1348C06A00F00F000F2191FAA1F1AF
:1026F000B1FA81F1C84011490D5C04F4803040B159
:102700002A4600230B481946FDF7BAFDA0FB0671C7
:1027100002E00B48A0FB0671B84604E000E000BFF1
:10272000DFF8108000BF00BF4046BDE8F081000028
:102730000010024000127A0058DD000868DD000831
:1027400000093D00F8B504460CB90120F8BD207819
:1027500000F0010000287BD0FA48406800F00C002F
:1027600004280CD0F748406800F00C00082845D138
:10277000F448406800F48030B0F5803F3ED120201E
:10278000010391FAA1F1B1FA81F108430121B1EB02
:10279000601F02D1EB4800681DE02020010391FA80
:1027A000A1F1B1FA81F108430221B1EB601F02D11E
:1027B000E448006A0FE02020010391FAA1F1B1FA88
:1027C00081F108430421B1EB601F02D1DD4840686C
:1027D00001E0DC48406A20210A0392FAA2F2B2FA30
:1027E00082F2114301F01F020121914008400028AC
:1027F000B1D0606800282BD10120A7E700BF606836
:10280000B0F5803F06D1CF48006840F48030CD4914
:10281000086029E0606858B9CA48006820F4803030
:10282000C84908600846006820F4802008601BE062
:102830006068B0F5A02F0CD1C248006840F4802039
:10284000C04908600846006840F4803008600BE02A
:10285000A1E0BC48006820F48030BA49086008460E
:10286000006820F48020086000BFB648C06A20F0ED
:102870000F00A1680843B349C8626068A0B3FFF7BE
:102880009BFA054606E0FFF797FA401B642801D93A
:1028900003205BE72020010391FAA1F1B1FA81F155
:1028A00008430121B1EB601F02D1A64800681EE079
:1028B0002020010391FAA1F1B1FA81F1084302212C
:1028C000B1EB601F02D19F48006A10E02020010395
:1028D00091FAA1F1B1FA81F108430421B1EB601F33
:1028E00003D19848406802E010E09648406A2021F1
:1028F0000A0392FAA2F2B2FA82F2114301F01F0225
:102900000121914008400028BDD044E0FFF754FA6F
:10291000054606E0FFF750FA401B642801D9032062
:1029200014E72020010391FAA1F1B1FA81F10843E3
:102930000121B1EB601F02D1824800681DE0202018
:10294000010391FAA1F1B1FA81F108430221B1EB3F
:10295000601F02D17B48006A0FE02020010391FA3A
:10296000A1F1B1FA81F108430421B1EB601F02D15A
:102970007448406801E07348406A20210A0392FAD3
:10298000A2F2B2FA82F2114301F01F02012191403A
:1029900008400028BED1207800F0020002285CD157
:1029A0006848406800F00C0050B16648406800F08C
:1029B0000C00082852D16348406800F48030E8BB1E
:1029C0002020022191FAA1F1B1FA81F108430121FD
:1029D000B1EB601F02D15B4800681DE0202002219E
:1029E00091FAA1F1B1FA81F108430221B1EB601F24
:1029F00002D15448006A0FE02020022191FAA1F18F
:102A0000B1FA81F108430421B1EB601F02D14D48B6
:102A1000406801E04B48406A2021022292FAA2F26B
:102A2000B2FA82F2114301F01F02012191400840E5
:102A300028B12069012802D0012087E60EE0414834
:102A4000006820F0F800F82292FAA2F2B2FA82F2BC
:102A50006169914008433B490860B1E0206970B367
:102A6000012191FAA1F0B0FA80F0374A42F8201023
:102A7000FFF7A2F9054606E0FFF79EF9401B022882
:102A800001D9032062E62020022191FAA1F1B1FAD6
:102A900081F108430121B1EB601F02D12948006890
:102AA0001EE02020022191FAA1F1B1FA81F1084340
:102AB0000221B1EB601F03D12248006A10E02CE034
:102AC0002020022191FAA1F1B1FA81F108430421F9
:102AD000B1EB601F02D11B48406801E01948406A11
:102AE0002021022292FAA2F2B2FA82F2114301F0FC
:102AF0001F020121914008400028BDD01148006804
:102B000020F0F800F82292FAA2F2B2FA82F2616999
:102B1000914008430B49086052E00020012191FADE
:102B2000A1F1B1FA81F1084A42F82100FFF744F916
:102B300005460BE0FFF740F9401B022806D90320A9
:102B400004E6000000100240000042422020022162
:102B500091FAA1F1B1FA81F108430121B1EB601FB3
:102B600002D1FB4800681DE02020022191FAA1F16A
:102B7000B1FA81F108430221B1EB601F02D1F448A0
:102B8000006A0FE02020022191FAA1F1B1FA81F14F
:102B900008430421B1EB601F02D1ED48406801E019
:102BA000EB48406A2021022292FAA2F2B2FA82F2A3
:102BB000114301F01F020121914008400028B9D1C2
:102BC000207800F00800082851D1A06980B30121C5
:102BD00091FAA1F0B0FA80F0DE4A02EB8000C0F872
:102BE0008014FFF7E9F8054606E0FFF7E5F8401B1B
:102BF000022801D90320A9E56020022191FAA1F160
:102C0000B1FA81F108430121B1EB601F02D1D04834
:102C100000681EE06020022191FAA1F1B1FA81F171
:102C200008430221B1EB601F03D1C948006A10E0DC
:102C30001EE06020022191FAA1F1B1FA81F108436E
:102C40000421B1EB601F02D1C148406801E0C048D7
:102C5000406A6021022292FAA2F2B2FA82F2114391
:102C600001F01F020121914008400028BDD04FE033
:102C70000020012191FAA1F1B1FA81F1B54A02EBEC
:102C80008101C1F88004FFF797F8054606E0FFF7D9
:102C900093F8401B022801D9032057E56020022148
:102CA00091FAA1F1B1FA81F108430121B1EB601F62
:102CB00002D1A74800681DE06020022191FAA1F12D
:102CC000B1FA81F108430221B1EB601F02D1A048A3
:102CD000006A0FE06020022191FAA1F1B1FA81F1BE
:102CE00008430421B1EB601F02D19948406801E01C
:102CF0009748406A6021022292FAA2F2B2FA82F266
:102D0000114301F01F020121914008400028BED16B
:102D1000207800F00400042873D100278C48C06993
:102D200000F0805070B900BF8948C06940F0805001
:102D30008749C8610846C06900F08050009000BF14
:102D400000BF01278448006800F48070B0B9824851
:102D5000006840F4807080490860FFF72DF8054650
:102D600006E0FFF729F8401B642801D90320EDE4B1
:102D70007948006800F480700028F2D000BFE06855
:102D8000012806D17248006A40F0010070490862CB
:102D900027E0E06858B96E48006A20F001006C49ED
:102DA00008620846006A20F00400086219E0E06842
:102DB00005280BD16648006A40F0040064490862A7
:102DC0000846006A40F0010008620AE06048006AB4
:102DD00020F001005E4908620846006A20F0040005
:102DE000086200BFE068B8B3FEF7E6FF054609E0F9
:102DF000FEF7E2FF401B41F28831884202D90320EE
:102E0000A4E48BE04020022191FAA1F1B1FA81F112
:102E100008430121B1EB601F02D14D4800681EE05C
:102E20004020022191FAA1F1B1FA81F10843022177
:102E3000B1EB601F02D14648006A10E04020022139
:102E400091FAA1F1B1FA81F108430421B1EB601FBD
:102E500003D13F48406802E010E03D48406A40210D
:102E6000022292FAA2F2B2FA82F2114301F01F0298
:102E70000121914008400028BAD046E0FEF79CFFAF
:102E8000054608E0FEF798FF401B41F28831884272
:102E900001D903205AE44020022191FAA1F1B1FAAC
:102EA00081F108430121B1EB601F02D1284800687D
:102EB0001DE04020022191FAA1F1B1FA81F108430D
:102EC0000221B1EB601F02D12148006A0FE04020CF
:102ED000022191FAA1F1B1FA81F108430421B1EB89
:102EE000601F02D11A48406801E01948406A402139
:102EF000022292FAA2F2B2FA82F2114301F01F0208
:102F00000121914008400028BCD1012F05D1104873
:102F1000C06920F080500E49C86100BFE0690028F8
:102F200074D00B48406800F00C0008286FD0E069AE
:102F300002286DD100204FF0807191FAA1F1B1FA11
:102F400081F1044A42F82100FEF736FF05460CE005
:102F5000001002400000424200700040FEF72CFFCB
:102F6000401B022801D9032047E42020010591FAE3
:102F7000A1F1B1FA81F108430121B1EB601F02D147
:102F8000774800681DE02020010591FAA1F1B1FA0F
:102F900081F108430221B1EB601F02D17048006A41
:102FA0000FE02020010591FAA1F1B1FA81F1084367
:102FB0000421B1EB601F02D16948406801E0684814
:102FC000406A20210A0592FAA2F2B2FA82F2114373
:102FD00001F01F020121914008400028BED1D4E930
:102FE000081008435E49496821F4741108435C499C
:102FF00048600120010691FAA1F1B1FA81F1594A24
:1030000042F82100FEF7D8FE054609E0A5E092E06F
:1030100041E0FEF7D1FE401B022801D9032038E42D
:103020002020010591FAA1F1B1FA81F108430121B3
:10303000B1EB601F02D14A4800681DE02020010565
:1030400091FAA1F1B1FA81F108430221B1EB601FBD
:1030500002D14348006A0FE02020010591FAA1F156
:10306000B1FA81F108430421B1EB601F02D13C4861
:10307000406801E03A48406A20210A0592FAA2F22B
:10308000B2FA82F2114301F01F020121914008407F
:103090000028BED061E000204FF0807191FAA1F1CC
:1030A000B1FA81F12F4A42F82100FEF785FE05466C
:1030B00006E0FEF781FE401B022801D903202FE421
:1030C0002020010591FAA1F1B1FA81F10843012113
:1030D000B1EB601F02D1224800681DE020200105ED
:1030E00091FAA1F1B1FA81F108430221B1EB601F1D
:1030F00002D11B48006A0FE02020010591FAA1F1DE
:10310000B1FA81F108430421B1EB601F02D11448E8
:10311000406801E01248406A20210A0592FAA2F2B2
:10312000B2FA82F2114301F01F02012191400840DE
:103130000028BED111E0E069012800D17DE40848F3
:10314000466806F48031206A814204D106F4701189
:10315000606A814201D001206FE400206DE400002C
:10316000001002400000424202460023106800F1B5
:10317000500303EB810318687047000070B50546E3
:103180000B4616460024286840680E4900EA0104F0
:10319000200CD870C4F30420587004F03F009870DD
:1031A000C4F3423018705EB9D87803F04DFBD87084
:1031B000587803F049FB5870987803F045FB9870F5
:1031C000002070BD3FFFFF0070B504460B46164659
:1031D00000252068806A586020680069C0F30E00EE
:1031E0009860206800680F4900EA0105C5F30540B2
:1031F0001870C5F30620587005F07F00987005F42C
:103200008000000CD8705EB9187803F01DFB1870B0
:10321000587803F019FB5870987803F015FB9870F4
:10322000002070BD7F7F7F0010B504460CB90120DF
:1032300010BD607F20B900202077204600F060F8A4
:103240000220607700BFCA202168486253202168AD
:10325000486200BF204603F00FFB40B100BFFF20D3
:103260002168486200BF042060770120E0E7206801
:1032700080682249084021688860216960680843A5
:10328000616908432168896808432168886021686A
:10329000E068086120680169208941EA00402168EE
:1032A00008612068C06820F080002168C86020683C
:1032B000806800F0200060B9204600F033FA40B189
:1032C00000BFFF202168486200BF04206077012012
:1032D000AEE72068006C20F4802021680864206834
:1032E000006CA16908432168086400BFFF202168C1
:1032F000486200BF01206077002099E7BFFF8FFF81
:10330000074A016891420AD10121CA0392FAA2F246
:10331000B2FA82F2034B03EB8202C2F80014704748
:1033200000280040000042422DE9F04704460D46C7
:1033300016460027B846B94600BF207F012802D1B3
:103340000220BDE8F0870120207700BF02206077CF
:1033500046BB2068806800F0400000B102E0002019
:10336000E87000BFE86900B900E000BF287803F00A
:1033700076FA0304687803F072FA43EA0023A87827
:1033800003F06DFA0343E87843EA004395F8200020
:1033900003F065FA43EA0060E9690843696940EAB5
:1033A00001081FE02068806800F0400000B102E0E2
:1033B0000020E87000BFE86900B900E000BF28788D
:1033C0000004697840EA0120A9780843E97840EAD6
:1033D000014095F8201040EA0160E96908436969F5
:1033E00040EA0108A969686840EA010900BFCA20EB
:1033F0002168486253202168486200BF686AB0F5BE
:10340000807F35D12068806820F4807021688860D2
:103410002068806820F4805021688860FEF7CCFC2A
:10342000074612E0FEF7C8FCC01BB0F57A7F0CD946
:1034300000BFFF202168486200BF0320607700BF03
:103440000020207700BF03207BE72068C06800F0E1
:1034500001000028E6D02068C0F81C802068C0F871
:1034600044902068806840F480702168886034E06F
:103470002068806820F40070216888602068806877
:1034800020F4005021688860FEF796FC074612E0A1
:10349000FEF792FCC01BB0F57A7F0CD900BFFF206D
:1034A0002168486200BF0320607700BF00202077BA
:1034B00000BF032045E72068C068C0F34000002833
:1034C000E6D02068C0F820802068C0F848902068C6
:1034D000806840F400702168886000BFFF20216888
:1034E000486200BF0120607700BF0020207700BF46
:1034F00000BF26E72DE9F04104460D461646002799
:1035000000BF207F012802D10220BDE8F081012008
:10351000207700BF022060774EB9687800F0100075
:10352000102804D1687800F0EF000A30687086B97E
:10353000E87803F094F90304687803F090F943EA1B
:103540000023A87803F08BF90343287843EA403737
:1035500009E0E8780004697840EA0120A978084386
:10356000297840EA413700BFCA20216848625320C9
:103570002168486200BF204603F07EF960B100BFB9
:10358000FF202168486200BF0420607700BF002050
:10359000207700BF0120B8E716483840216848600E
:1035A0002068C06820F080002168C86020688068BA
:1035B00000F0200080B9204600F0B4F860B100BFF0
:1035C000FF202168486200BF0420607700BF002010
:1035D000207700BF012098E700BFFF2021684862E4
:1035E00000BF0120607700BF0020207700BF00BF30
:1035F0008BE700003FFFFF002DE9F04104460D4638
:103600001646002700BF207F012802D10220BDE816
:10361000F0810120207700BF02206077CEB92068BA
:10362000806800F0400000B102E00020E87000BFB8
:10363000287803F014F90304687803F010F943EADA
:103640000023A87803F00BF90343E87843EA004726
:1036500012E02068806800F0400000B102E0002025
:10366000E87000BF28780004697840EA0120A97852
:103670000843E97840EA014700BFCA202168486250
:1036800053202168486200BF204603F0F5F860B17E
:1036900000BFFF202168486200BF0420607700BFA0
:1036A0000020207700BF0120B1E71D483840216885
:1036B00008602068806820F4802021688860D5E94F
:1036C00003010843216889680843216888602068ED
:1036D000C06820F080002168C8602068806800F021
:1036E000200080B9204600F01DF860B100BFFF2027
:1036F0002168486200BF0420607700BF0020207767
:1037000000BF012083E700BFFF202168486200BF9F
:103710000120607700BF0020207700BF00BF76E760
:103720007F7F7F0070B5044600252068C06820F0C8
:10373000A0002168C860FEF73FFB054607E0FEF7E2
:103740003BFB401BB0F57A7F01D9032070BD206898
:10375000C06800F020000028F1D00020F6E710B586
:1037600004460CB9012010BD022084F85D002068D9
:10377000006820F0400021680860204600F088F8CA
:103780000020206684F85D0000BF84F85C0000BF64
:1037900000BFE8E770B504460CB9012070BD606A4F
:1037A00038B96068B0F5827F00D105E00021E161A1
:1037B00002E00021216161610021A16294F85D00B5
:1037C00028B9002084F85C00204600F07DF8022033
:1037D00084F85D002068006820F0400021680860DF
:1037E000E068B0F5E06F01D9002501E04FF48055A5
:1037F000E068B0F5706F05D0E068B0F5E06F01D01B
:103800000021A162A08800F48270218901F40441A2
:103810000843217C01F002010843217D01F00101F0
:103820000843218B01F400710843217F01F0380126
:1038300008432021095D01F080010843218D01F436
:1038400000510843216808600421A06901EA104082
:1038500094F8241001F01001084394F8341001F09A
:1038600008010843A18901F47061084305F48051FF
:103870000843216848602068C06920F4006021681E
:10388000C86100202066012084F85D00002085E7E3
:1038900010B504460949206888420ED1084880695D
:1038A00020F4805006498861C0214FF09040FEF717
:1038B000F1F808210348FEF7EDF810BD0030014093
:1038C000001002400004004810B586B004461421E0
:1038D00001A8FCF72FFD25492068884244D100BF8C
:1038E0002348806940F480502149886108468069F6
:1038F00000F48050009000BF00BF00BF0846406940
:1039000040F4003048610846406900F400300090FF
:1039100000BF00BF00BF0846406940F480204861F6
:103920000846406900F48020009000BF00BFC0201E
:1039300001900220029000200390032004900520B3
:10394000059001A94FF09040FEF740F90820019042
:10395000022002900020039003200490052005908F
:1039600001A90448FEF732F906B010BD003001404D
:1039700000100240000400482DE9F84F0446884634
:1039800016461D464FF0000A00BF94F85C0001285F
:1039900002D10220BDE8F88F012084F85C0000BF4E
:1039A000FEF70AFA0746B14694F85D00012802D0F6
:1039B0004FF0020ACBE0B8F1000F00D016B94FF07B
:1039C000010AC4E0032084F85D0000202066C4F8EA
:1039D0003880A687E6872064A4F84400A4F846004F
:1039E0002065E064A068B0F5004F0BD12068006846
:1039F00020F04000216808602068006840F48040A2
:103A0000216808602068006800F04000402805D068
:103A10002068006840F0400021680860E068B0F568
:103A2000E06F2FD9606810B1B9F1010F09D1A06B17
:103A300000882168C860A06B801CA063E08F401ED6
:103A4000E0871BE02068806800F0020002280AD1AD
:103A5000A06B00882168C860A06B801CA063E08F09
:103A6000401EE0870AE0FEF7A7F9C01BA84201D379
:103A7000681C00B915B94FF0030A68E0E08F002810
:103A8000E0D14AE0606810B1B9F1010F17D1E08FC1
:103A900001280AD9A06B00882168C860A06B801C2F
:103AA000A063E08F801EE08709E0A06B00782168AA
:103AB0000873A06B401CA063E08F401EE08729E0E4
:103AC0002068806800F00200022818D1E08F0128E9
:103AD0000AD9A06B00882168C860A06B801CA06315
:103AE000E08F801EE08715E0A06B007821680873E6
:103AF000A06B401CA063E08F401EE0870AE0FEF749
:103B00005BF9C01BA84201D3681C00B915B94FF07E
:103B1000030A1CE0E08F0028D2D13A46294620460D
:103B200003F0DEF808B120202066A06850B900BF7D
:103B3000002000902068C068009020688068009095
:103B400000BF00BF206E08B14FF0010A00BF012086
:103B500084F85D0000BF002084F85C0000BF504680
:103B600018E770477047704730B502460B4600BFF4
:103B700092F83C00012801D1022030BD012082F8DA
:103B80003C0000BF022082F83D00106841681068C8
:103B900084681D4D1068A84203D01C4D1068A842CF
:103BA00003D121F470015868014321F070011868B5
:103BB000014310684160144D1068A84213D010688A
:103BC000B0F1804F0FD0124D1068A8420BD0114DAC
:103BD0001068A84207D00D4D1068A84203D00E4DC2
:103BE0001068A84205D124F0800498680443106846
:103BF0008460012082F83D0000BF002082F83C0074
:103C000000BF00BFB9E70000002C014000340140B4
:103C100000040040000800400040014010B5044688
:103C20000CB9012010BD94F83D0028B9002084F89B
:103C30003C00204600F029F8022084F83D00211DB8
:103C4000206803F0E5FC012084F8480000BF84F8F8
:103C50003E0001213F2001554020015541200155E2
:103C6000422001554320015500BF00BF012084F8C8
:103C7000440045200155462001554720015500BF0D
:103C8000012084F83D000020CCE77047014691F800
:103C90003D00012801D001207047022081F83D003D
:103CA0000868C06840F001000B68D860184B0868CD
:103CB000984213D00868B0F1804F0FD0154B0868B8
:103CC00098420BD0144B0868984207D0134B0868F1
:103CD000984203D0124B0868984210D10868806857
:103CE000104B00EA0302062A0FD0B2F5803F0CD039
:103CF0000868006840F001000B68186005E008687B
:103D0000006840F001000B6818600020C4E7000064
:103D1000002C014000040040000800400034014035
:103D2000004001400700010010B504462068B0F1D2
:103D3000804F1FD14FF400614D48FEF725F8D0B1F8
:103D40004C480068006A20F420404A49096808622B
:103D500048480068006A40F4005046490968086213
:103D600000204449096848624348007840F0100048
:103D7000414908707BE00C213E4800F075FC3F494A
:103D800008803C480068006A20F4204039490968EE
:103D9000086238480068006A36490968086236488F
:103DA000007800F0100000285BD03348007800F065
:103DB0008000E8B331480088B0F5967F0DDD2F48CC
:103DC0000088B0F5487F08DA2D48006840002C498B
:103DD000086008460068086043E028480088B0F59D
:103DE000AF6F0FDD25480088B0F5E16F0ADA24488F
:103DF00000684000224908600846006840F0010061
:103E000008602EE01D48008840F69801884228DDB1
:103E10001A48008840F62821884222DA194800789A
:103E2000401C184908701448007800F0F00000E0C9
:103E300002E01149087014E01048008841F268015E
:103E400088420EDD0D48008841F25C21884208DA84
:103E50000948007840F080000749087000200949AF
:103E600008700548007820F010000349087010BD64
:103E700000040048A43500207C0A00207E0A0020AF
:103E8000800A0020840A00202DE9F04104460D46F6
:103E90001646002700BF94F83C00012802D10220FA
:103EA000BDE8F081012084F83C0000BF96B9EB68C2
:103EB000D5E90012206803F0CFFD2068806920F06A
:103EC0000C002168886120688069A968084321681E
:103ED000886141E0042E13D1EB68D5E90012206817
:103EE00003F0F8FD2068806920F440602168886153
:103EF00020688069A96840EA0120216888612BE078
:103F0000082E12D1EB68D5E90012206803F0FFFDFE
:103F10002068C06920F00C002168C8612068C06971
:103F2000A96808432168C86116E00C2E13D1EB681C
:103F3000D5E90012206803F006FE2068C06920F46D
:103F400040602168C8612068C069A96840EA012012
:103F50002168C86100E0012700BF002084F83C0010
:103F600000BF38469CE710B504460CB9012010BDCF
:103F700094F83D0028B9002084F83C00204600F069
:103F800029F8022084F83D00211D206803F040FB41
:103F9000012084F8480000BF84F83E0001213F2042
:103FA0000155402001554120015542200155432033
:103FB000015500BF00BF012084F844004520015591
:103FC000462001554720015500BF012084F83D00DF
:103FD0000020CCE7704700002DE9F04304460D4671
:103FE000002715B994F83E0015E0042D02D13F20BA
:103FF000005D10E0082D02D14020005D0BE00C2D8B
:1040000002D14120005D06E0102D02D14220005D6A
:1040100001E04320005D804615B994F844000BE0B0
:10402000042D02D14520005D06E0082D02D1462076
:10403000005D01E04720005D8146B8F1010F02D12B
:10404000B9F1010F02D00120BDE8F0831DB90220B3
:1040500084F83E001AE0042D03D102213F200155CF
:1040600014E0082D03D10221402001550EE00C2D53
:1040700003D102214120015508E0102D03D1022176
:104080004220015502E00221432001551DB90220C2
:1040900084F844000EE0042D03D10221452001558F
:1040A00008E0082D03D102214620015502E002213B
:1040B0004720015535B1042D0BD0082D10D00C2D03
:1040C0001CD114E02068C06840F002002168C8607C
:1040D00016E02068C06840F004002168C8600FE066
:1040E0002068C06840F008002168C86008E02068C7
:1040F000C06840F010002168C86001E0012700BFDF
:1041000000BF67BB01222946206803F0DFFA184987
:104110002068884213D02068B0F1804F0FD0154935
:10412000206888420BD014492068884207D0134980
:104130002068884203D012492068884210D1206844
:104140008068104900EA0106062E0FD0B6F5803FC0
:104150000CD02068006840F001002168086005E08C
:104160002068006840F001002168086038466BE76D
:10417000002C0140000400400008004000340140D1
:10418000004001400700010010B5044620680069A6
:10419000C0F34000D8B12068C068C0F34000B0B19F
:1041A0006FF0020021680861012020772068806993
:1041B00000F0030018B12046FFF7B6FD05E02046E9
:1041C00000F0E8F8204600F017FA00202077206879
:1041D0000069C0F38000D8B12068C068C0F38000D7
:1041E000B0B16FF0040021680861022020772068D8
:1041F000806900F4407018B12046FFF795FD05E096
:10420000204600F0C7F8204600F0F6F9002020779D
:1042100020680069C0F3C000D8B12068C068C0F34E
:10422000C000B0B16FF00800216808610420207759
:104230002068C06900F0030018B12046FFF774FD44
:1042400005E0204600F0A6F8204600F0D5F9002051
:10425000207720680069C0F30010D8B12068C068DA
:10426000C0F30010B0B16FF01000216808610820A1
:1042700020772068C06900F4407018B12046FFF72D
:1042800053FD05E0204600F085F8204600F0B4F923
:10429000002020772068006900F0010058B12068F4
:1042A000C06800F0010030B16FF0010021680861C2
:1042B000204600F0A3F920680069C0F3C01058B18F
:1042C0002068C068C0F3C01030B16FF08000216872
:1042D00008612046FFF746FC20680069C0F3002013
:1042E00058B12068C068C0F3C01030B16FF480705E
:1042F000216808612046FFF734FC20680069C0F39C
:10430000801058B12068C068C0F3801030B16FF0E1
:10431000400021680861204600F0BFF9206800696C
:10432000C0F3401058B12068C068C0F3401030B1ED
:104330006FF02000216808612046FFF714FC10BDD3
:1043400010B586B00446142101A8FBF7F3FF2068DE
:10435000B0F1804F1AD100BF0D48406940F40030E1
:104360000B4948610846406900F40030009000BFE6
:1043700000BF0220019002900020039004900120D1
:10438000059001A94FF09040FDF720FC06B010BD4C
:104390000010024070472DE9F04104460D461646D4
:1043A000002700BF94F83C00012802D10220BDE89C
:1043B000F081012084F83C0000BF0C2E51D005DCB8
:1043C0004EB1042E1ED0082E7AD133E0102E60D0CC
:1043D000142EF9D175E02946206803F089F9206888
:1043E000806940F00800216888612068806920F0B9
:1043F0000400216888612068806929690843216870
:10440000886178E02946206803F0C8F9206880694F
:1044100040F40060216888612068806920F4806031
:104420002168886120688069296940EA0120216843
:10443000886160E02946206803F00AFA2068C069B4
:1044400040F008002168C8612068C06920F00400BD
:104450002168C8612068C069296908432168C8616A
:1044600049E02946206803F04DFA2068C06940F40D
:1044700000602168C8612068C06920F480602168FC
:10448000C8612068C069296940EA01202168C861C3
:1044900031E02946206803F06FFA2068406D40F053
:1044A0000800216848652068406D20F004002168FC
:1044B00048652068406D29690843216848651AE00D
:1044C00017E02946206803F08FFA2068406D40F419
:1044D0000060216848652068406D20F48060216894
:1044E00048652068406D296940EA012021684865D7
:1044F00001E0012700BF00BF00BF002084F83C009E
:1045000000BF384653E710B504460CB9012010BD72
:1045100094F83D0028B9002084F83C00204600F0C3
:1045200029F8022084F83D00211D206803F070F86E
:10453000012084F8480000BF84F83E0001213F209C
:10454000015540200155412001554220015543208D
:10455000015500BF00BF012084F8440045200155EB
:10456000462001554720015500BF012084F83D0039
:104570000020CCE710B586B00446142101A8FBF753
:10458000D9FE2068B0F1804F2FD100BF1848C06914
:1045900040F001001649C8610846C06900F00100FA
:1045A000009000BF00BF00BF0846406940F4802073
:1045B00048610846406900F48020009000BF00BFB9
:1045C000C814019002200290002003900490012062
:1045D000059001A90748FDF7F9FA002205211C20E2
:1045E000FDF7C6FC1C20FDF7B3FC06B010BD0000B3
:1045F00000100240000400487047000010B5044657
:1046000015492068884201D1FDF7EEFB2068B0F122
:10461000804F1FD1114802F0E3F81048844219D1AD
:1046200000F06CFD0E48C078012813D10C480079C9
:104630000B280FD10A4840790B280BD10948B0F854
:104640006600401C0749A1F86600012081F864005B
:10465000FDF7E0FC10BD0000002C0140A435002057
:1046600018000020F04500200246002031B1042946
:1046700007D0082908D00C290CD108E01368586B22
:1046800009E01368986B06E01368D86B03E01368C1
:10469000186C00E000BF00BF70477047704770475C
:1046A000704700002DE9F04704462068C56920687E
:1046B00006682068876840F60F0005EA0009B9F12E
:1046C000000F0CD105F0200048B106F0200030B1F9
:1046D000606E10B12046616E8847BDE8F087B9F181
:1046E000000F7DD007F0010018B9BD483040002808
:1046F000F7D005F0010058B106F4807040B10120F8
:1047000021680862D4F8800040F00100C4F88000FD
:1047100005F0020058B107F0010040B10220216805
:104720000862D4F8800040F00400C4F8800005F06E
:10473000040058B107F0010040B10420216808626C
:10474000D4F8800040F00200C4F8800005F00800B2
:1047500070B106F0200010B907F0010040B1082048
:1047600021680862D4F8800040F00800C4F8800096
:1047700005F4006060B106F0806048B14FF400605D
:1047800021680862D4F8800040F02000C4F880005E
:10479000D4F8800000284BD005F0200038B106F096
:1047A000200020B1606E10B12046616E8847D4F8B9
:1047B00080A02068806800F04000402802D00AF005
:1047C000280070B3204603F0C6FA2068806800F025
:1047D0004000402821D100BF00BF2168083100E01F
:1047E00027E051E8001F21F040002168083141E82E
:1047F0000002002AF1D100BF206F50B17948216F2B
:104800004863206FFDF706F990B1206F416B884730
:104810000EE02046FFF744FF0AE02046FFF740FF86
:1048200006E0FFE72046FFF73BFF0020C4F88000CA
:1048300053E7206E01287DD105F01000002879D0C3
:1048400006F010000028FAD01020216808622068C5
:10485000806800F0400040285AD1206F006840680E
:104860001FFA80F8B8F1000F51D0B4F85800404555
:104870004DDDA4F85A80206F806920283ED000BF0B
:1048800000BF216851E8001F21F48070226842E8CF
:1048900000010029F5D100BF00BF00BF2168083129
:1048A00051E8001F21F001002168083141E80002B1
:1048B000002AF3D100BF00BF00BF2168083151E8D2
:1048C000001F21F040002168083141E80002002A61
:1048D000F3D100BF2020E0670020206600BF00BFAA
:1048E000216851E8001F21F01000226842E8000111
:1048F0000029F5D100BF206FFDF762F8B4F8580029
:10490000B4F85A20801A81B22046FFF7C7FEE4E6C9
:1049100034F8580F6188401A1FFA80F86088583CB4
:10492000B0B3B8F1000F33D000BF00BF216851E829
:10493000001F00E02DE021F49070226842E80001A1
:104940000029F3D100BF00BF00BF2168083151E842
:10495000001F21F001002168083141E80002002A0F
:10496000F3D100BF2020E06700202066606600BF12
:1049700000BF216851E8001F21F01000226842E8C2
:1049800000010029F5D100BF41462046FFF786FE11
:10499000A3E605F4801050B107F4800038B14FF45D
:1049A0008010216808622046FFF779FE95E605F041
:1049B000800040B106F0800028B1A06E10B1204602
:1049C000A16E884789E605F0400030B106F040004E
:1049D00018B1204603F0F1F97FE600BF7DE6000044
:1049E000200100043F7D000810B504460CB90120E9
:1049F00010BDA06900B100E000BFA06F28B9002081
:104A000084F87400204600F029F82420A06720686C
:104A1000006820F0010021680860204603F0E4F9F6
:104A2000012800D1E4E7606A10B1204603F0D2F813
:104A30002068406820F490402168486020688068C1
:104A400020F02A00216888602068006840F001009A
:104A500021680860204603F039F9C9E710B586B02F
:104A60000446142101A8FBF765FC1B492068884215
:104A700030D100BF1948806940F4804017498861EF
:104A80000846806900F48040009000BF00BF00BF6E
:104A90000846406940F4002048610846406900F437
:104AA0000020009000BF00BF302001900220029043
:104AB00000200390032004900720059001A90848D6
:104AC000FDF784F8002205212520FDF751FA252065
:104AD000FDF73EFA06B010BD00380140001002405C
:104AE000000800482DE9F84F04460E4617469A463E
:104AF000E06F20287AD106B117B90120BDE8F88F00
:104B000000BF94F87400012801D10220F6E70120CB
:104B100084F8740000BF00205834A0622220606234
:104B20000020A060FDF748F9834627806780583C45
:104B300000BFA068B0F5805F0AD1206920B940F2BB
:104B4000FF10A4F85C0012E0FF20A4F85C000EE067
:104B5000A06848B9206918B9FF20A4F85C0006E0F5
:104B60007F20A4F85C0002E00020A4F85C0000BFF5
:104B7000B4F85C90A068B0F5805F04D1206910B9EA
:104B80000025B04602E035464FF0000800BF002087
:104B900084F8740000BF20E05B46002220212046FC
:104BA000CDF800A003F066FA08B10320A6E745B9E6
:104BB0002068808C00EA0900A8F8000008F10208CB
:104BC00006E02068808C09F0FF01084028706D1C09
:104BD000B4F85A00401EA4F85A00B4F85A0000284D
:104BE000DAD12020E067002088E7FFE7022085E790
:104BF0002DE9F84F04460E4617469946A06F202827
:104C00005DD106B117B90120BDE8F88F00BF94F857
:104C10007400012801D10220F6E7012084F8740015
:104C200000BF0020503420632120A062FDF7C4F8AB
:104C3000824627806780503CA068B0F5805F04D131
:104C4000206910B90025B04602E035464FF0000853
:104C500000BF002084F8740000BF1DE0534600220E
:104C600080212046CDF8009003F004FA08B103201B
:104C7000CAE745B9B8F80000C0F308002168088504
:104C800008F1020803E02878216808856D1CB4F853
:104C90005200401EA4F85200B4F852000028DDD1A2
:104CA0005346002240212046CDF8009003F0E2F95F
:104CB00008B10320A8E72020A0670020A4E7022075
:104CC000A2E7704700BFFEE701F02AFE0648006831
:104CD00040F020000449086000BF05F0B7FD0A203D
:104CE00005F093FFF9E70000B40000202DE9F04142
:104CF00007460C4615461E462A2000F084F9384621
:104D000000F072F9284600F06FF92B2000F07BF9D3
:104D1000204600F069F9304600F066F92C2000F0DA
:104D200072F9BDE8F0812DE9F04706460F461446BA
:104D30001D46DDF820A0681E83B2601E82B239468F
:104D40003046FFF7D3FFB8460EE0B14606E05046C6
:104D500000F04AF909F101001FFA80F9A145F6DBDC
:104D600008F101001FFA80F8A845EEDBBDE8F087E6
:104D700000B587B0142102A8FBF7DCFA00BF2D486C
:104D8000406940F400302B4948610846406900F40E
:104D90000030019000BF00BF00BF0846406940F4EA
:104DA000802048610846406900F48020019000BFDF
:104DB00000BF00BF0846406940F400204861084633
:104DC000406900F40020019000BF00BF1A48FEF7C0
:104DD000C6FC98200290012003900320059002A9B0
:104DE0004FF09040FCF7F2FE0A2002900120039061
:104DF0000320059002A91148FCF7E8FE0820029064
:104E0000012003900320059002A90D48FCF7DEFE67
:104E1000012298214FF09040FCF7C8FF01220A219F
:104E20000648FCF7C3FF012208210548FCF7BEFF36
:104E300007B000BD001002404035002000040048CB
:104E40000008004810B5FFF793FF002202216448D4
:104E5000FCF7ACFF6420FCF709FE01220221604848
:104E6000FCF7A4FF6420FCF701FE012208215D4845
:104E7000FCF79CFF6420FCF7F9FD112000F0C3F85B
:104E80007820FCF7F3FD362000F0BDF8702000F02C
:104E9000B4F83A2000F0B7F8052000F0AEF8B220E0
:104EA00000F0B1F80C2000F0A8F80C2000F0A5F8F4
:104EB000002000F0A2F8332000F09FF8332000F02B
:104EC0009CF8B72000F09FF8352000F096F8BB2042
:104ED00000F099F8322000F090F8C22000F093F82A
:104EE000012000F08AF8C32000F08DF8152000F0B2
:104EF00084F8C42000F087F8202000F07EF8C62057
:104F000000F081F80F2000F078F8D02000F07BF856
:104F1000A42000F072F8A12000F06FF8E02000F06B
:104F200072F8D02000F069F8082000F066F80E2032
:104F300000F063F8092000F060F8092000F05DF847
:104F4000052000F05AF8312000F057F8332000F027
:104F500054F8482000F051F8172000F04EF81420C3
:104F600000F04BF8152000F048F8312000F045F82B
:104F7000342000F042F8E12000F045F8D02000F0A5
:104F80003CF8082000F039F80E2000F036F809202F
:104F900000F033F8092000F030F8152000F02DF86B
:104FA000312000F02AF8332000F027F8482000F0E4
:104FB00024F8172000F021F8142000F01EF8152026
:104FC00000F01BF8312000F018F8342000F015F83C
:104FD000212000F018F8292000F015F810BD00007D
:104FE000000400480008004810B50446201200F0F4
:104FF0001DF8E0B200F01AF810BD10B504462046C6
:1050000000F014F810BD10B50446002208214FF03E
:105010009040FCF7CBFE2046FFF7EFFF012208216E
:105020004FF09040FCF7C2FE10BD000070B5044682
:10503000002210214FF09040FCF7B8FE00251DE043
:10504000002208211248FCF7B1FE04F0800030B1C4
:10505000012280214FF09040FCF7A8FE05E00022DD
:1050600080214FF09040FCF7A1FE01220821084862
:10507000FCF79CFE6006040E681CC5B2082DDFDB41
:10508000012210214FF09040FCF790FE70BD00000F
:105090000004004810B586B00446002201A9164855
:1050A000FEF792F8002269461348FEF767F8A078E9
:1050B0008DF8030020788DF8010060788DF80200EB
:1050C00001208DF80000002269460B48FEF712FA15
:1050D000E0788DF8040020798DF8050060798DF86E
:1050E0000600002004900590002201A90248FEF766
:1050F00083FA06B010BD00002035002000B587B04F
:10510000002202A90E48FEF75FF8002201A90C4810
:10511000FEF734F89DF807000A4988709DF80500ED
:1051200008709DF8060048709DF80800C8709DF84A
:10513000090008719DF80A00487107B000BD000021
:10514000203500201800002000B5ABB01C222449F7
:1051500024A8FBF7D6F8002124A805F067FD214913
:1051600008601C221E491C311DA8FBF7CAF800214B
:105170001DA805F05BFD1C4908601C221849383148
:1051800016A8FBF7BEF8002116A805F04FFD174939
:1051900008601C22124954310FA8FBF7B2F8002115
:1051A0000FA805F043FD124908601C220C4970311C
:1051B00008A8FBF7A6F8002108A805F037FD0D495F
:1051C00008601C2206498C3101A8FBF79AF80021DF
:1051D00001A805F02BFD084908602BB000BD0000B8
:1051E000B0DC0008000000200400002008000020BF
:1051F0000C000020100000201400002000B587B033
:10520000142102A8FBF796F800BF5B48406940F400
:105210000020594948610846406900F40020019087
:1052200000BF00BF00BF0846406940F480004861ED
:105230000846406900F48000019000BF00BF00BF35
:105240000846406940F4003048610846406900F46F
:105250000030019000BF00BF00BF0846406940F425
:10526000802048610846406900F48020019000BF1A
:1052700000BF00BF0846406940F4801048610846FE
:10528000406900F48010019000BF00BF01224FF47C
:1052900081613A48FCF78AFD002248F21C014FF078
:1052A0009040FCF783FD002203213548FCF77EFD8A
:1052B000002204213348FCF779FD4FF4816002900D
:1052C00001200390002004900320059002A92B48A0
:1052D000FCF77CFC48F21C000290012003900020A7
:1052E00004900320059002A94FF09040FCF76EFC5B
:1052F00003200290012003900020049003200590D9
:1053000002A91F48FCF762FC4FF4C0700290002015
:105310000390049002A91948FCF758FC4FF4006070
:10532000029000200390049002A94FF09040FCF7F7
:105330004DFC4FF4006002904FF4041003900120E4
:10534000049002A90D48FCF741FC042002900120C2
:105350000390002004900320059002A90948FCF75F
:1053600035FC002205212820FCF702FE2820FCF74E
:10537000EFFD07B000BD000000100240000800482B
:1053800000040048000C004800B593B014210EA89A
:10539000FAF7D0FF00200D90282103A8FAF7CAFFE2
:1053A0000020029000BF3348C06940F0805031496E
:1053B000C8610846C06900F08050019000BF00BF7E
:1053C0002D482E490860002048607F212B488160CD
:1053D000FF21C1600021016141618161FDF724FF6E
:1053E00008B1FCF73FF800212448FDF7BDFE41F26B
:1053F000342188423CD000208DF838008DF83900E7
:105400008DF83A001190129001220EA91B48FEF768
:10541000F3F808B1FCF726F801208DF834008DF878
:1054200035008DF8360000208DF8370001220DA9D7
:105430001248FEF75FF808B1FCF714F800208DF869
:105440000C008DF80D008DF80E000490069007906A
:10545000089009900A9001208DF82C0000020C9011
:10546000012203A90548FDF75FFF08B1FBF7FAFF2A
:1054700013B000BD0010024000280040203500207D
:1054800010B51248124908604FF48270486000213C
:105490000F4881604FF4E061C1600021016141610A
:1054A0004FF4007181610821C161002101624162F4
:1054B00081620721C1620021016308214163FEF777
:1054C00069F908B1FBF7CEFF10BD000000300140C4
:1054D0004035002000B58FB000200C900D900E904C
:1054E0001C2105A8FAF726FF0020019002900390E6
:1054F00004904FF080402349086047204860002115
:105500002048816042F20F71C16000210161802159
:105510008161FEF7F8FF08B1FBF7A4FF1948FEF719
:1055200022FD08B1FBF79EFF00200C900E900CA905
:105530001448FEF719FB08B1FBF794FF60200590B3
:105540000020069007900990042205A90D48FEF757
:1055500022FF08B1FBF786FF002001900120029096
:1055600000200390032004900C2201A90548FEF7B7
:105570008BFC08B1FBF776FF0248FEF7E1FE0FB0A7
:1055800000BD0000A435002010B50D480D4908608D
:105590004FF41650486000210A488160C1600161E3
:1055A0000C21416100218161C16101620020054936
:1055B00048620846FFF718FA08B1FBF753FF10BD21
:1055C000003801401038002030B589B005462C461F
:1055D000207D00F0010068B100F01AFDCF48D049ED
:1055E0004862606920F001006061606940F010006D
:1055F000606190E1207D00F0100078B12046E16903
:105600008847606920F010006061C6A001F014F8BE
:10561000C7A2C9A1C9A000F05BFF7CE1207D00F01A
:10562000200038B1204607F08DFA606920F0200094
:10563000606170E1207D00F0040000287DD0012031
:1056400006F080FA0F281ED2DFE800F01DFDB40935
:105650001DFCFB1E0863B51D1D1DFA0000BFB948E7
:10566000008806280DD2DFE800F0030405070608CD
:1056700008E007E006E005E004E0204602F094FEC2
:1056800000E000BF00BF38E10020AF49AD4A1288FA
:1056900051F82210A1F86400AB48AA49098850F8D3
:1056A0002100406940F01001A748A64A128850F82E
:1056B0002200416107AA08A9A248008805F09CF8C9
:1056C0000898401E08900898002801DA01200890E8
:1056D000DDE9071005F08BF89A49088001209A4906
:1056E000984A128851F82210A1F86400964895490A
:1056F000098850F82100406940F010009249914A11
:10570000128851F822104861606940F02000606101
:10571000F3E000208C498B4A128851F82210A1F83E
:10572000640089488749098850F82100406940F0A1
:1057300010018548834A128800E0E4E050F8220016
:10574000416105AA06A97F48008805F055F805982B
:10575000002803DD0598401E05900AE0069820B950
:10576000012006900220059003E000200690022010
:105770000590DDE9051005F03AF87249088001202E
:105780007149704A128851F82210A1F864006E48DD
:105790006C49098850F82100406940F010006A49BE
:1057A000684A128851F822104861606940F0200070
:1057B0006061A2E000BF00216348624A128850F88D
:1057C0002200A0F8641060485E49098850F8210062
:1057D000406940F010015C485A4A128850F8220093
:1057E000416103AA04A95748008805F005F8039809
:1057F000022803DA0398401C039009E0049820B9BA
:10580000012004900020039002E000200490039007
:10581000DDE9031004F0EBFF4A49088001214A4802
:10582000484A128850F82200A0F8641046484549BA
:10583000098850F82100406940F01001424803E017
:1058400056E00BE04FE04FE03E4A128850F822004D
:105850004161606940F0200060614EE000213A48FB
:10586000384A128850F82200A0F8641036483549AA
:10587000098850F82100406940F010013248314A4F
:10588000128850F82200416101AA02A92D4800881F
:1058900004F0B2FF0298401C02900298022801DB3B
:1058A00000200290DDE9011004F0A1FF25490880E5
:1058B00001212548234A128850F82200A0F86410DC
:1058C00021482049098850F82100406940F0100122
:1058D0001D481C4A128850F822004161606940F05E
:1058E0002000606109E000BFE06A07F01EF904E0F3
:1058F0002146204601F00EFB00BF00BF606920F08A
:105900000400606107E0207D00F0020018B16069CA
:1059100020F00200606109B030BD00007C0800206A
:105920000C020020CFB5CDB3B2CBB5A5000000006E
:10593000C8B7C8CF000000002D3E0000B7B5BBD8E7
:1059400000000000C0080020E40800207FB50546E4
:105950002C46207D00F0010068B100F091FBC348A7
:10596000C3494862606920F001006061606940F0ED
:105970001000606179E1207D00F0100078B12046D0
:10598000E1698847606920F010006061B9A000F00B
:1059900053FEBBA2BCA1BDA000F09AFD65E1207D35
:1059A00000F0200038B1204607F0CCF8606920F004
:1059B0002000606159E1207D00F00400002872D0D1
:1059C000012006F0BFF80F281DD2DFE800F01CFD13
:1059D000AD091CFCEA1D086DAE1C1C1CFB0000BFC1
:1059E000AC48008805280CD2DFE800F00304050667
:1059F000070007E006E005E004E0204602F0D4FCE2
:105A000000E000BF00BF22E10020A349A14A1288A4
:105A100051F82210A1F864009F489E49098850F867
:105A20002100406940F010019B489A4A128850F8C2
:105A30002200416102AA03A99648008804F0DCFE16
:105A40000398401E03900298022811DA0398002858
:105A500008DA01200390DDE9021004F0C8FE8D4948
:105A6000088005E0DDE9021004F0C1FE89490880E4
:105A700001208949874A128851F82210A1F8640050
:105A800085488449098850F82100406940F0100099
:105A90008149804A128851F822104861606940F0BB
:105AA00020006061D3E0D8E000207B49794A128869
:105AB00051F82210A1F8640077487649098850F817
:105AC0002100406940F010007349724A128851F871
:105AD000221048616F48008818B904206D49088079
